{
	"contracts/Call.sol": {
		"Call": {
			"abi": [
				{
					"inputs": [
						{
							"internalType": "address",
							"name": "_test",
							"type": "address"
						}
					],
					"name": "callDoesNotExist",
					"outputs": [],
					"stateMutability": "nonpayable",
					"type": "function"
				},
				{
					"inputs": [
						{
							"internalType": "address",
							"name": "_test",
							"type": "address"
						}
					],
					"name": "callFoo",
					"outputs": [],
					"stateMutability": "payable",
					"type": "function"
				},
				{
					"inputs": [],
					"name": "data",
					"outputs": [
						{
							"internalType": "bytes",
							"name": "",
							"type": "bytes"
						}
					],
					"stateMutability": "view",
					"type": "function"
				}
			],
			"devdoc": {
				"kind": "dev",
				"methods": {},
				"version": 1
			},
			"evm": {
				"assembly": "    /* \"contracts/Call.sol\":603:1621  contract Call {... */\n  mstore(0x40, 0x80)\n  callvalue\n  dup1\n  iszero\n  tag_1\n  jumpi\n  0x00\n  dup1\n  revert\ntag_1:\n  pop\n  dataSize(sub_0)\n  dup1\n  dataOffset(sub_0)\n  0x00\n  codecopy\n  0x00\n  return\nstop\n\nsub_0: assembly {\n        /* \"contracts/Call.sol\":603:1621  contract Call {... */\n      mstore(0x40, 0x80)\n      jumpi(tag_1, lt(calldatasize, 0x04))\n      shr(0xe0, calldataload(0x00))\n      dup1\n      0x73d4a13a\n      eq\n      tag_2\n      jumpi\n      dup1\n      0xb0feeff6\n      eq\n      tag_3\n      jumpi\n      dup1\n      0xedcbe76c\n      eq\n      tag_4\n      jumpi\n    tag_1:\n      0x00\n      dup1\n      revert\n        /* \"contracts/Call.sol\":623:640  bytes public data */\n    tag_2:\n      callvalue\n      dup1\n      iszero\n      tag_5\n      jumpi\n      0x00\n      dup1\n      revert\n    tag_5:\n      pop\n      tag_6\n      tag_7\n      jump\t// in\n    tag_6:\n      mload(0x40)\n      tag_8\n      swap2\n      swap1\n      tag_9\n      jump\t// in\n    tag_8:\n      mload(0x40)\n      dup1\n      swap2\n      sub\n      swap1\n      return\n        /* \"contracts/Call.sol\":1439:1619  function callDoesNotExist(address _test) external {... */\n    tag_3:\n      callvalue\n      dup1\n      iszero\n      tag_10\n      jumpi\n      0x00\n      dup1\n      revert\n    tag_10:\n      pop\n      tag_11\n      0x04\n      dup1\n      calldatasize\n      sub\n      dup2\n      add\n      swap1\n      tag_12\n      swap2\n      swap1\n      tag_13\n      jump\t// in\n    tag_12:\n      tag_14\n      jump\t// in\n    tag_11:\n      stop\n        /* \"contracts/Call.sol\":647:1349  function callFoo(address _test) external payable {... */\n    tag_4:\n      tag_15\n      0x04\n      dup1\n      calldatasize\n      sub\n      dup2\n      add\n      swap1\n      tag_16\n      swap2\n      swap1\n      tag_13\n      jump\t// in\n    tag_16:\n      tag_17\n      jump\t// in\n    tag_15:\n      stop\n        /* \"contracts/Call.sol\":623:640  bytes public data */\n    tag_7:\n      0x00\n      dup1\n      sload\n      tag_18\n      swap1\n      tag_19\n      jump\t// in\n    tag_18:\n      dup1\n      0x1f\n      add\n      0x20\n      dup1\n      swap2\n      div\n      mul\n      0x20\n      add\n      mload(0x40)\n      swap1\n      dup2\n      add\n      0x40\n      mstore\n      dup1\n      swap3\n      swap2\n      swap1\n      dup2\n      dup2\n      mstore\n      0x20\n      add\n      dup3\n      dup1\n      sload\n      tag_20\n      swap1\n      tag_19\n      jump\t// in\n    tag_20:\n      dup1\n      iszero\n      tag_21\n      jumpi\n      dup1\n      0x1f\n      lt\n      tag_22\n      jumpi\n      0x0100\n      dup1\n      dup4\n      sload\n      div\n      mul\n      dup4\n      mstore\n      swap2\n      0x20\n      add\n      swap2\n      jump(tag_21)\n    tag_22:\n      dup3\n      add\n      swap2\n      swap1\n      0x00\n      mstore\n      keccak256(0x00, 0x20)\n      swap1\n    tag_23:\n      dup2\n      sload\n      dup2\n      mstore\n      swap1\n      0x01\n      add\n      swap1\n      0x20\n      add\n      dup1\n      dup4\n      gt\n      tag_23\n      jumpi\n      dup3\n      swap1\n      sub\n      0x1f\n      and\n      dup3\n      add\n      swap2\n    tag_21:\n      pop\n      pop\n      pop\n      pop\n      pop\n      dup2\n      jump\t// out\n        /* \"contracts/Call.sol\":1439:1619  function callDoesNotExist(address _test) external {... */\n    tag_14:\n        /* \"contracts/Call.sol\":1500:1512  bool success */\n      0x00\n        /* \"contracts/Call.sol\":1518:1523  _test */\n      dup2\n        /* \"contracts/Call.sol\":1518:1528  _test.call */\n      0xffffffffffffffffffffffffffffffffffffffff\n      and\n        /* \"contracts/Call.sol\":1529:1570  abi.encodeWithSignature(\"doesNotExist()\") */\n      add(0x24, mload(0x40))\n      mload(0x40)\n      0x20\n      dup2\n      dup4\n      sub\n      sub\n      dup2\n      mstore\n      swap1\n      0x40\n      mstore\n      and(not(0xffffffffffffffffffffffffffffffffffffffffffffffffffffffff), 0x1dcc85ae00000000000000000000000000000000000000000000000000000000)\n      0x20\n      dup3\n      add\n      dup1\n      mload\n      0xffffffffffffffffffffffffffffffffffffffffffffffffffffffff\n      dup4\n      dup2\n      dup4\n      and\n      or\n      dup4\n      mstore\n      pop\n      pop\n      pop\n      pop\n        /* \"contracts/Call.sol\":1518:1571  _test.call(abi.encodeWithSignature(\"doesNotExist()\")) */\n      mload(0x40)\n      tag_25\n      swap2\n      swap1\n      tag_26\n      jump\t// in\n    tag_25:\n      0x00\n      mload(0x40)\n      dup1\n      dup4\n      sub\n      dup2\n      0x00\n      dup7\n      gas\n      call\n      swap2\n      pop\n      pop\n      returndatasize\n      dup1\n      0x00\n      dup2\n      eq\n      tag_29\n      jumpi\n      mload(0x40)\n      swap2\n      pop\n      and(add(returndatasize, 0x3f), not(0x1f))\n      dup3\n      add\n      0x40\n      mstore\n      returndatasize\n      dup3\n      mstore\n      returndatasize\n      0x00\n      0x20\n      dup5\n      add\n      returndatacopy\n      jump(tag_28)\n    tag_29:\n      0x60\n      swap2\n      pop\n    tag_28:\n      pop\n        /* \"contracts/Call.sol\":1499:1571  (bool success, ) = _test.call(abi.encodeWithSignature(\"doesNotExist()\")) */\n      pop\n      swap1\n      pop\n        /* \"contracts/Call.sol\":1589:1596  success */\n      dup1\n        /* \"contracts/Call.sol\":1581:1612  require(success, \"call failed\") */\n      tag_30\n      jumpi\n      mload(0x40)\n      0x08c379a000000000000000000000000000000000000000000000000000000000\n      dup2\n      mstore\n      0x04\n      add\n      tag_31\n      swap1\n      tag_32\n      jump\t// in\n    tag_31:\n      mload(0x40)\n      dup1\n      swap2\n      sub\n      swap1\n      revert\n    tag_30:\n        /* \"contracts/Call.sol\":1489:1619  {... */\n      pop\n        /* \"contracts/Call.sol\":1439:1619  function callDoesNotExist(address _test) external {... */\n      pop\n      jump\t// out\n        /* \"contracts/Call.sol\":647:1349  function callFoo(address _test) external payable {... */\n    tag_17:\n        /* \"contracts/Call.sol\":948:960  bool success */\n      0x00\n        /* \"contracts/Call.sol\":962:980  bytes memory _data */\n      dup1\n        /* \"contracts/Call.sol\":984:989  _test */\n      dup3\n        /* \"contracts/Call.sol\":984:994  _test.call */\n      0xffffffffffffffffffffffffffffffffffffffff\n      and\n        /* \"contracts/Call.sol\":1002:1005  111 */\n      0x6f\n        /* \"contracts/Call.sol\":1024:1028  5000 */\n      0x1388\n        /* \"contracts/Call.sol\":984:1279  _test.call{value: 111... */\n      swap1\n        /* \"contracts/Call.sol\":1252:1255  123 */\n      0x7b\n        /* \"contracts/Call.sol\":1173:1269  abi.encodeWithSignature(... */\n      add(0x24, mload(0x40))\n      tag_34\n      swap2\n      swap1\n      tag_35\n      jump\t// in\n    tag_34:\n      mload(0x40)\n      0x20\n      dup2\n      dup4\n      sub\n      sub\n      dup2\n      mstore\n      swap1\n      0x40\n      mstore\n      and(not(0xffffffffffffffffffffffffffffffffffffffffffffffffffffffff), 0x24ccab8f00000000000000000000000000000000000000000000000000000000)\n      0x20\n      dup3\n      add\n      dup1\n      mload\n      0xffffffffffffffffffffffffffffffffffffffffffffffffffffffff\n      dup4\n      dup2\n      dup4\n      and\n      or\n      dup4\n      mstore\n      pop\n      pop\n      pop\n      pop\n        /* \"contracts/Call.sol\":984:1279  _test.call{value: 111... */\n      mload(0x40)\n      tag_36\n      swap2\n      swap1\n      tag_26\n      jump\t// in\n    tag_36:\n      0x00\n      mload(0x40)\n      dup1\n      dup4\n      sub\n      dup2\n      dup6\n      dup9\n      dup9\n      call\n      swap4\n      pop\n      pop\n      pop\n      pop\n      returndatasize\n      dup1\n      0x00\n      dup2\n      eq\n      tag_39\n      jumpi\n      mload(0x40)\n      swap2\n      pop\n      and(add(returndatasize, 0x3f), not(0x1f))\n      dup3\n      add\n      0x40\n      mstore\n      returndatasize\n      dup3\n      mstore\n      returndatasize\n      0x00\n      0x20\n      dup5\n      add\n      returndatacopy\n      jump(tag_38)\n    tag_39:\n      0x60\n      swap2\n      pop\n    tag_38:\n      pop\n        /* \"contracts/Call.sol\":947:1279  (bool success, bytes memory _data) = _test.call{value: 111... */\n      swap2\n      pop\n      swap2\n      pop\n        /* \"contracts/Call.sol\":1297:1304  success */\n      dup2\n        /* \"contracts/Call.sol\":1289:1320  require(success, \"call failed\") */\n      tag_40\n      jumpi\n      mload(0x40)\n      0x08c379a000000000000000000000000000000000000000000000000000000000\n      dup2\n      mstore\n      0x04\n      add\n      tag_41\n      swap1\n      tag_32\n      jump\t// in\n    tag_41:\n      mload(0x40)\n      dup1\n      swap2\n      sub\n      swap1\n      revert\n    tag_40:\n        /* \"contracts/Call.sol\":1337:1342  _data */\n      dup1\n        /* \"contracts/Call.sol\":1330:1334  data */\n      0x00\n        /* \"contracts/Call.sol\":1330:1342  data = _data */\n      swap1\n      dup1\n      mload\n      swap1\n      0x20\n      add\n      swap1\n      tag_42\n      swap3\n      swap2\n      swap1\n      tag_43\n      jump\t// in\n    tag_42:\n      pop\n        /* \"contracts/Call.sol\":696:1349  {... */\n      pop\n      pop\n        /* \"contracts/Call.sol\":647:1349  function callFoo(address _test) external payable {... */\n      pop\n      jump\t// out\n    tag_43:\n      dup3\n      dup1\n      sload\n      tag_44\n      swap1\n      tag_19\n      jump\t// in\n    tag_44:\n      swap1\n      0x00\n      mstore\n      keccak256(0x00, 0x20)\n      swap1\n      0x1f\n      add\n      0x20\n      swap1\n      div\n      dup2\n      add\n      swap3\n      dup3\n      tag_46\n      jumpi\n      0x00\n      dup6\n      sstore\n      jump(tag_45)\n    tag_46:\n      dup3\n      0x1f\n      lt\n      tag_47\n      jumpi\n      dup1\n      mload\n      not(0xff)\n      and\n      dup4\n      dup1\n      add\n      or\n      dup6\n      sstore\n      jump(tag_45)\n    tag_47:\n      dup3\n      dup1\n      add\n      0x01\n      add\n      dup6\n      sstore\n      dup3\n      iszero\n      tag_45\n      jumpi\n      swap2\n      dup3\n      add\n    tag_48:\n      dup3\n      dup2\n      gt\n      iszero\n      tag_49\n      jumpi\n      dup3\n      mload\n      dup3\n      sstore\n      swap2\n      0x20\n      add\n      swap2\n      swap1\n      0x01\n      add\n      swap1\n      jump(tag_48)\n    tag_49:\n    tag_45:\n      pop\n      swap1\n      pop\n      tag_50\n      swap2\n      swap1\n      tag_51\n      jump\t// in\n    tag_50:\n      pop\n      swap1\n      jump\t// out\n    tag_51:\n    tag_52:\n      dup1\n      dup3\n      gt\n      iszero\n      tag_53\n      jumpi\n      0x00\n      dup2\n      0x00\n      swap1\n      sstore\n      pop\n      0x01\n      add\n      jump(tag_52)\n    tag_53:\n      pop\n      swap1\n      jump\t// out\n        /* \"#utility.yul\":7:146   */\n    tag_55:\n        /* \"#utility.yul\":53:58   */\n      0x00\n        /* \"#utility.yul\":91:97   */\n      dup2\n        /* \"#utility.yul\":78:98   */\n      calldataload\n        /* \"#utility.yul\":69:98   */\n      swap1\n      pop\n        /* \"#utility.yul\":107:140   */\n      tag_57\n        /* \"#utility.yul\":134:139   */\n      dup2\n        /* \"#utility.yul\":107:140   */\n      tag_58\n      jump\t// in\n    tag_57:\n        /* \"#utility.yul\":7:146   */\n      swap3\n      swap2\n      pop\n      pop\n      jump\t// out\n        /* \"#utility.yul\":152:481   */\n    tag_13:\n        /* \"#utility.yul\":211:217   */\n      0x00\n        /* \"#utility.yul\":260:262   */\n      0x20\n        /* \"#utility.yul\":248:257   */\n      dup3\n        /* \"#utility.yul\":239:246   */\n      dup5\n        /* \"#utility.yul\":235:258   */\n      sub\n        /* \"#utility.yul\":231:263   */\n      slt\n        /* \"#utility.yul\":228:347   */\n      iszero\n      tag_60\n      jumpi\n        /* \"#utility.yul\":266:345   */\n      tag_61\n      tag_62\n      jump\t// in\n    tag_61:\n        /* \"#utility.yul\":228:347   */\n    tag_60:\n        /* \"#utility.yul\":386:387   */\n      0x00\n        /* \"#utility.yul\":411:464   */\n      tag_63\n        /* \"#utility.yul\":456:463   */\n      dup5\n        /* \"#utility.yul\":447:453   */\n      dup3\n        /* \"#utility.yul\":436:445   */\n      dup6\n        /* \"#utility.yul\":432:454   */\n      add\n        /* \"#utility.yul\":411:464   */\n      tag_55\n      jump\t// in\n    tag_63:\n        /* \"#utility.yul\":401:464   */\n      swap2\n      pop\n        /* \"#utility.yul\":357:474   */\n      pop\n        /* \"#utility.yul\":152:481   */\n      swap3\n      swap2\n      pop\n      pop\n      jump\t// out\n        /* \"#utility.yul\":487:847   */\n    tag_64:\n        /* \"#utility.yul\":573:576   */\n      0x00\n        /* \"#utility.yul\":601:639   */\n      tag_66\n        /* \"#utility.yul\":633:638   */\n      dup3\n        /* \"#utility.yul\":601:639   */\n      tag_67\n      jump\t// in\n    tag_66:\n        /* \"#utility.yul\":655:725   */\n      tag_68\n        /* \"#utility.yul\":718:724   */\n      dup2\n        /* \"#utility.yul\":713:716   */\n      dup6\n        /* \"#utility.yul\":655:725   */\n      tag_69\n      jump\t// in\n    tag_68:\n        /* \"#utility.yul\":648:725   */\n      swap4\n      pop\n        /* \"#utility.yul\":734:786   */\n      tag_70\n        /* \"#utility.yul\":779:785   */\n      dup2\n        /* \"#utility.yul\":774:777   */\n      dup6\n        /* \"#utility.yul\":767:771   */\n      0x20\n        /* \"#utility.yul\":760:765   */\n      dup7\n        /* \"#utility.yul\":756:772   */\n      add\n        /* \"#utility.yul\":734:786   */\n      tag_71\n      jump\t// in\n    tag_70:\n        /* \"#utility.yul\":811:840   */\n      tag_72\n        /* \"#utility.yul\":833:839   */\n      dup2\n        /* \"#utility.yul\":811:840   */\n      tag_73\n      jump\t// in\n    tag_72:\n        /* \"#utility.yul\":806:809   */\n      dup5\n        /* \"#utility.yul\":802:841   */\n      add\n        /* \"#utility.yul\":795:841   */\n      swap2\n      pop\n        /* \"#utility.yul\":577:847   */\n      pop\n        /* \"#utility.yul\":487:847   */\n      swap3\n      swap2\n      pop\n      pop\n      jump\t// out\n        /* \"#utility.yul\":853:1226   */\n    tag_74:\n        /* \"#utility.yul\":957:960   */\n      0x00\n        /* \"#utility.yul\":985:1023   */\n      tag_76\n        /* \"#utility.yul\":1017:1022   */\n      dup3\n        /* \"#utility.yul\":985:1023   */\n      tag_67\n      jump\t// in\n    tag_76:\n        /* \"#utility.yul\":1039:1127   */\n      tag_77\n        /* \"#utility.yul\":1120:1126   */\n      dup2\n        /* \"#utility.yul\":1115:1118   */\n      dup6\n        /* \"#utility.yul\":1039:1127   */\n      tag_78\n      jump\t// in\n    tag_77:\n        /* \"#utility.yul\":1032:1127   */\n      swap4\n      pop\n        /* \"#utility.yul\":1136:1188   */\n      tag_79\n        /* \"#utility.yul\":1181:1187   */\n      dup2\n        /* \"#utility.yul\":1176:1179   */\n      dup6\n        /* \"#utility.yul\":1169:1173   */\n      0x20\n        /* \"#utility.yul\":1162:1167   */\n      dup7\n        /* \"#utility.yul\":1158:1174   */\n      add\n        /* \"#utility.yul\":1136:1188   */\n      tag_71\n      jump\t// in\n    tag_79:\n        /* \"#utility.yul\":1213:1219   */\n      dup1\n        /* \"#utility.yul\":1208:1211   */\n      dup5\n        /* \"#utility.yul\":1204:1220   */\n      add\n        /* \"#utility.yul\":1197:1220   */\n      swap2\n      pop\n        /* \"#utility.yul\":961:1226   */\n      pop\n        /* \"#utility.yul\":853:1226   */\n      swap3\n      swap2\n      pop\n      pop\n      jump\t// out\n        /* \"#utility.yul\":1232:1379   */\n    tag_80:\n        /* \"#utility.yul\":1327:1372   */\n      tag_82\n        /* \"#utility.yul\":1366:1371   */\n      dup2\n        /* \"#utility.yul\":1327:1372   */\n      tag_83\n      jump\t// in\n    tag_82:\n        /* \"#utility.yul\":1322:1325   */\n      dup3\n        /* \"#utility.yul\":1315:1373   */\n      mstore\n        /* \"#utility.yul\":1232:1379   */\n      pop\n      pop\n      jump\t// out\n        /* \"#utility.yul\":1385:1751   */\n    tag_84:\n        /* \"#utility.yul\":1527:1530   */\n      0x00\n        /* \"#utility.yul\":1548:1615   */\n      tag_86\n        /* \"#utility.yul\":1612:1614   */\n      0x0b\n        /* \"#utility.yul\":1607:1610   */\n      dup4\n        /* \"#utility.yul\":1548:1615   */\n      tag_87\n      jump\t// in\n    tag_86:\n        /* \"#utility.yul\":1541:1615   */\n      swap2\n      pop\n        /* \"#utility.yul\":1624:1717   */\n      tag_88\n        /* \"#utility.yul\":1713:1716   */\n      dup3\n        /* \"#utility.yul\":1624:1717   */\n      tag_89\n      jump\t// in\n    tag_88:\n        /* \"#utility.yul\":1742:1744   */\n      0x20\n        /* \"#utility.yul\":1737:1740   */\n      dup3\n        /* \"#utility.yul\":1733:1745   */\n      add\n        /* \"#utility.yul\":1726:1745   */\n      swap1\n      pop\n        /* \"#utility.yul\":1385:1751   */\n      swap2\n      swap1\n      pop\n      jump\t// out\n        /* \"#utility.yul\":1757:2123   */\n    tag_90:\n        /* \"#utility.yul\":1899:1902   */\n      0x00\n        /* \"#utility.yul\":1920:1987   */\n      tag_92\n        /* \"#utility.yul\":1984:1986   */\n      0x0b\n        /* \"#utility.yul\":1979:1982   */\n      dup4\n        /* \"#utility.yul\":1920:1987   */\n      tag_87\n      jump\t// in\n    tag_92:\n        /* \"#utility.yul\":1913:1987   */\n      swap2\n      pop\n        /* \"#utility.yul\":1996:2089   */\n      tag_93\n        /* \"#utility.yul\":2085:2088   */\n      dup3\n        /* \"#utility.yul\":1996:2089   */\n      tag_94\n      jump\t// in\n    tag_93:\n        /* \"#utility.yul\":2114:2116   */\n      0x20\n        /* \"#utility.yul\":2109:2112   */\n      dup3\n        /* \"#utility.yul\":2105:2117   */\n      add\n        /* \"#utility.yul\":2098:2117   */\n      swap1\n      pop\n        /* \"#utility.yul\":1757:2123   */\n      swap2\n      swap1\n      pop\n      jump\t// out\n        /* \"#utility.yul\":2129:2400   */\n    tag_26:\n        /* \"#utility.yul\":2259:2262   */\n      0x00\n        /* \"#utility.yul\":2281:2374   */\n      tag_96\n        /* \"#utility.yul\":2370:2373   */\n      dup3\n        /* \"#utility.yul\":2361:2367   */\n      dup5\n        /* \"#utility.yul\":2281:2374   */\n      tag_74\n      jump\t// in\n    tag_96:\n        /* \"#utility.yul\":2274:2374   */\n      swap2\n      pop\n        /* \"#utility.yul\":2391:2394   */\n      dup2\n        /* \"#utility.yul\":2384:2394   */\n      swap1\n      pop\n        /* \"#utility.yul\":2129:2400   */\n      swap3\n      swap2\n      pop\n      pop\n      jump\t// out\n        /* \"#utility.yul\":2406:2715   */\n    tag_9:\n        /* \"#utility.yul\":2517:2521   */\n      0x00\n        /* \"#utility.yul\":2555:2557   */\n      0x20\n        /* \"#utility.yul\":2544:2553   */\n      dup3\n        /* \"#utility.yul\":2540:2558   */\n      add\n        /* \"#utility.yul\":2532:2558   */\n      swap1\n      pop\n        /* \"#utility.yul\":2604:2613   */\n      dup2\n        /* \"#utility.yul\":2598:2602   */\n      dup2\n        /* \"#utility.yul\":2594:2614   */\n      sub\n        /* \"#utility.yul\":2590:2591   */\n      0x00\n        /* \"#utility.yul\":2579:2588   */\n      dup4\n        /* \"#utility.yul\":2575:2592   */\n      add\n        /* \"#utility.yul\":2568:2615   */\n      mstore\n        /* \"#utility.yul\":2632:2708   */\n      tag_98\n        /* \"#utility.yul\":2703:2707   */\n      dup2\n        /* \"#utility.yul\":2694:2700   */\n      dup5\n        /* \"#utility.yul\":2632:2708   */\n      tag_64\n      jump\t// in\n    tag_98:\n        /* \"#utility.yul\":2624:2708   */\n      swap1\n      pop\n        /* \"#utility.yul\":2406:2715   */\n      swap3\n      swap2\n      pop\n      pop\n      jump\t// out\n        /* \"#utility.yul\":2721:3266   */\n    tag_35:\n        /* \"#utility.yul\":2923:2927   */\n      0x00\n        /* \"#utility.yul\":2961:2963   */\n      0x40\n        /* \"#utility.yul\":2950:2959   */\n      dup3\n        /* \"#utility.yul\":2946:2964   */\n      add\n        /* \"#utility.yul\":2938:2964   */\n      swap1\n      pop\n        /* \"#utility.yul\":3010:3019   */\n      dup2\n        /* \"#utility.yul\":3004:3008   */\n      dup2\n        /* \"#utility.yul\":3000:3020   */\n      sub\n        /* \"#utility.yul\":2996:2997   */\n      0x00\n        /* \"#utility.yul\":2985:2994   */\n      dup4\n        /* \"#utility.yul\":2981:2998   */\n      add\n        /* \"#utility.yul\":2974:3021   */\n      mstore\n        /* \"#utility.yul\":3038:3169   */\n      tag_100\n        /* \"#utility.yul\":3164:3168   */\n      dup2\n        /* \"#utility.yul\":3038:3169   */\n      tag_84\n      jump\t// in\n    tag_100:\n        /* \"#utility.yul\":3030:3169   */\n      swap1\n      pop\n        /* \"#utility.yul\":3179:3259   */\n      tag_101\n        /* \"#utility.yul\":3255:3257   */\n      0x20\n        /* \"#utility.yul\":3244:3253   */\n      dup4\n        /* \"#utility.yul\":3240:3258   */\n      add\n        /* \"#utility.yul\":3231:3237   */\n      dup5\n        /* \"#utility.yul\":3179:3259   */\n      tag_80\n      jump\t// in\n    tag_101:\n        /* \"#utility.yul\":2721:3266   */\n      swap3\n      swap2\n      pop\n      pop\n      jump\t// out\n        /* \"#utility.yul\":3272:3691   */\n    tag_32:\n        /* \"#utility.yul\":3438:3442   */\n      0x00\n        /* \"#utility.yul\":3476:3478   */\n      0x20\n        /* \"#utility.yul\":3465:3474   */\n      dup3\n        /* \"#utility.yul\":3461:3479   */\n      add\n        /* \"#utility.yul\":3453:3479   */\n      swap1\n      pop\n        /* \"#utility.yul\":3525:3534   */\n      dup2\n        /* \"#utility.yul\":3519:3523   */\n      dup2\n        /* \"#utility.yul\":3515:3535   */\n      sub\n        /* \"#utility.yul\":3511:3512   */\n      0x00\n        /* \"#utility.yul\":3500:3509   */\n      dup4\n        /* \"#utility.yul\":3496:3513   */\n      add\n        /* \"#utility.yul\":3489:3536   */\n      mstore\n        /* \"#utility.yul\":3553:3684   */\n      tag_103\n        /* \"#utility.yul\":3679:3683   */\n      dup2\n        /* \"#utility.yul\":3553:3684   */\n      tag_90\n      jump\t// in\n    tag_103:\n        /* \"#utility.yul\":3545:3684   */\n      swap1\n      pop\n        /* \"#utility.yul\":3272:3691   */\n      swap2\n      swap1\n      pop\n      jump\t// out\n        /* \"#utility.yul\":3778:3876   */\n    tag_67:\n        /* \"#utility.yul\":3829:3835   */\n      0x00\n        /* \"#utility.yul\":3863:3868   */\n      dup2\n        /* \"#utility.yul\":3857:3869   */\n      mload\n        /* \"#utility.yul\":3847:3869   */\n      swap1\n      pop\n        /* \"#utility.yul\":3778:3876   */\n      swap2\n      swap1\n      pop\n      jump\t// out\n        /* \"#utility.yul\":3882:4050   */\n    tag_69:\n        /* \"#utility.yul\":3965:3976   */\n      0x00\n        /* \"#utility.yul\":3999:4005   */\n      dup3\n        /* \"#utility.yul\":3994:3997   */\n      dup3\n        /* \"#utility.yul\":3987:4006   */\n      mstore\n        /* \"#utility.yul\":4039:4043   */\n      0x20\n        /* \"#utility.yul\":4034:4037   */\n      dup3\n        /* \"#utility.yul\":4030:4044   */\n      add\n        /* \"#utility.yul\":4015:4044   */\n      swap1\n      pop\n        /* \"#utility.yul\":3882:4050   */\n      swap3\n      swap2\n      pop\n      pop\n      jump\t// out\n        /* \"#utility.yul\":4056:4203   */\n    tag_78:\n        /* \"#utility.yul\":4157:4168   */\n      0x00\n        /* \"#utility.yul\":4194:4197   */\n      dup2\n        /* \"#utility.yul\":4179:4197   */\n      swap1\n      pop\n        /* \"#utility.yul\":4056:4203   */\n      swap3\n      swap2\n      pop\n      pop\n      jump\t// out\n        /* \"#utility.yul\":4209:4378   */\n    tag_87:\n        /* \"#utility.yul\":4293:4304   */\n      0x00\n        /* \"#utility.yul\":4327:4333   */\n      dup3\n        /* \"#utility.yul\":4322:4325   */\n      dup3\n        /* \"#utility.yul\":4315:4334   */\n      mstore\n        /* \"#utility.yul\":4367:4371   */\n      0x20\n        /* \"#utility.yul\":4362:4365   */\n      dup3\n        /* \"#utility.yul\":4358:4372   */\n      add\n        /* \"#utility.yul\":4343:4372   */\n      swap1\n      pop\n        /* \"#utility.yul\":4209:4378   */\n      swap3\n      swap2\n      pop\n      pop\n      jump\t// out\n        /* \"#utility.yul\":4384:4480   */\n    tag_110:\n        /* \"#utility.yul\":4421:4428   */\n      0x00\n        /* \"#utility.yul\":4450:4474   */\n      tag_112\n        /* \"#utility.yul\":4468:4473   */\n      dup3\n        /* \"#utility.yul\":4450:4474   */\n      tag_113\n      jump\t// in\n    tag_112:\n        /* \"#utility.yul\":4439:4474   */\n      swap1\n      pop\n        /* \"#utility.yul\":4384:4480   */\n      swap2\n      swap1\n      pop\n      jump\t// out\n        /* \"#utility.yul\":4486:4612   */\n    tag_113:\n        /* \"#utility.yul\":4523:4530   */\n      0x00\n        /* \"#utility.yul\":4563:4605   */\n      0xffffffffffffffffffffffffffffffffffffffff\n        /* \"#utility.yul\":4556:4561   */\n      dup3\n        /* \"#utility.yul\":4552:4606   */\n      and\n        /* \"#utility.yul\":4541:4606   */\n      swap1\n      pop\n        /* \"#utility.yul\":4486:4612   */\n      swap2\n      swap1\n      pop\n      jump\t// out\n        /* \"#utility.yul\":4618:4704   */\n    tag_115:\n        /* \"#utility.yul\":4653:4660   */\n      0x00\n        /* \"#utility.yul\":4693:4697   */\n      0xff\n        /* \"#utility.yul\":4686:4691   */\n      dup3\n        /* \"#utility.yul\":4682:4698   */\n      and\n        /* \"#utility.yul\":4671:4698   */\n      swap1\n      pop\n        /* \"#utility.yul\":4618:4704   */\n      swap2\n      swap1\n      pop\n      jump\t// out\n        /* \"#utility.yul\":4710:4829   */\n    tag_83:\n        /* \"#utility.yul\":4768:4777   */\n      0x00\n        /* \"#utility.yul\":4801:4823   */\n      tag_118\n        /* \"#utility.yul\":4817:4822   */\n      dup3\n        /* \"#utility.yul\":4801:4823   */\n      tag_115\n      jump\t// in\n    tag_118:\n        /* \"#utility.yul\":4788:4823   */\n      swap1\n      pop\n        /* \"#utility.yul\":4710:4829   */\n      swap2\n      swap1\n      pop\n      jump\t// out\n        /* \"#utility.yul\":4835:5142   */\n    tag_71:\n        /* \"#utility.yul\":4903:4904   */\n      0x00\n        /* \"#utility.yul\":4913:5026   */\n    tag_120:\n        /* \"#utility.yul\":4927:4933   */\n      dup4\n        /* \"#utility.yul\":4924:4925   */\n      dup2\n        /* \"#utility.yul\":4921:4934   */\n      lt\n        /* \"#utility.yul\":4913:5026   */\n      iszero\n      tag_122\n      jumpi\n        /* \"#utility.yul\":5012:5013   */\n      dup1\n        /* \"#utility.yul\":5007:5010   */\n      dup3\n        /* \"#utility.yul\":5003:5014   */\n      add\n        /* \"#utility.yul\":4997:5015   */\n      mload\n        /* \"#utility.yul\":4993:4994   */\n      dup2\n        /* \"#utility.yul\":4988:4991   */\n      dup5\n        /* \"#utility.yul\":4984:4995   */\n      add\n        /* \"#utility.yul\":4977:5016   */\n      mstore\n        /* \"#utility.yul\":4949:4951   */\n      0x20\n        /* \"#utility.yul\":4946:4947   */\n      dup2\n        /* \"#utility.yul\":4942:4952   */\n      add\n        /* \"#utility.yul\":4937:4952   */\n      swap1\n      pop\n        /* \"#utility.yul\":4913:5026   */\n      jump(tag_120)\n    tag_122:\n        /* \"#utility.yul\":5044:5050   */\n      dup4\n        /* \"#utility.yul\":5041:5042   */\n      dup2\n        /* \"#utility.yul\":5038:5051   */\n      gt\n        /* \"#utility.yul\":5035:5136   */\n      iszero\n      tag_123\n      jumpi\n        /* \"#utility.yul\":5124:5125   */\n      0x00\n        /* \"#utility.yul\":5115:5121   */\n      dup5\n        /* \"#utility.yul\":5110:5113   */\n      dup5\n        /* \"#utility.yul\":5106:5122   */\n      add\n        /* \"#utility.yul\":5099:5126   */\n      mstore\n        /* \"#utility.yul\":5035:5136   */\n    tag_123:\n        /* \"#utility.yul\":4884:5142   */\n      pop\n        /* \"#utility.yul\":4835:5142   */\n      pop\n      pop\n      pop\n      jump\t// out\n        /* \"#utility.yul\":5148:5468   */\n    tag_19:\n        /* \"#utility.yul\":5192:5198   */\n      0x00\n        /* \"#utility.yul\":5229:5230   */\n      0x02\n        /* \"#utility.yul\":5223:5227   */\n      dup3\n        /* \"#utility.yul\":5219:5231   */\n      div\n        /* \"#utility.yul\":5209:5231   */\n      swap1\n      pop\n        /* \"#utility.yul\":5276:5277   */\n      0x01\n        /* \"#utility.yul\":5270:5274   */\n      dup3\n        /* \"#utility.yul\":5266:5278   */\n      and\n        /* \"#utility.yul\":5297:5315   */\n      dup1\n        /* \"#utility.yul\":5287:5368   */\n      tag_125\n      jumpi\n        /* \"#utility.yul\":5353:5357   */\n      0x7f\n        /* \"#utility.yul\":5345:5351   */\n      dup3\n        /* \"#utility.yul\":5341:5358   */\n      and\n        /* \"#utility.yul\":5331:5358   */\n      swap2\n      pop\n        /* \"#utility.yul\":5287:5368   */\n    tag_125:\n        /* \"#utility.yul\":5415:5417   */\n      0x20\n        /* \"#utility.yul\":5407:5413   */\n      dup3\n        /* \"#utility.yul\":5404:5418   */\n      lt\n        /* \"#utility.yul\":5384:5402   */\n      dup2\n        /* \"#utility.yul\":5381:5419   */\n      eq\n        /* \"#utility.yul\":5378:5462   */\n      iszero\n      tag_126\n      jumpi\n        /* \"#utility.yul\":5434:5452   */\n      tag_127\n      tag_128\n      jump\t// in\n    tag_127:\n        /* \"#utility.yul\":5378:5462   */\n    tag_126:\n        /* \"#utility.yul\":5199:5468   */\n      pop\n        /* \"#utility.yul\":5148:5468   */\n      swap2\n      swap1\n      pop\n      jump\t// out\n        /* \"#utility.yul\":5474:5654   */\n    tag_128:\n        /* \"#utility.yul\":5522:5599   */\n      0x4e487b7100000000000000000000000000000000000000000000000000000000\n        /* \"#utility.yul\":5519:5520   */\n      0x00\n        /* \"#utility.yul\":5512:5600   */\n      mstore\n        /* \"#utility.yul\":5619:5623   */\n      0x22\n        /* \"#utility.yul\":5616:5617   */\n      0x04\n        /* \"#utility.yul\":5609:5624   */\n      mstore\n        /* \"#utility.yul\":5643:5647   */\n      0x24\n        /* \"#utility.yul\":5640:5641   */\n      0x00\n        /* \"#utility.yul\":5633:5648   */\n      revert\n        /* \"#utility.yul\":5783:5900   */\n    tag_62:\n        /* \"#utility.yul\":5892:5893   */\n      0x00\n        /* \"#utility.yul\":5889:5890   */\n      dup1\n        /* \"#utility.yul\":5882:5894   */\n      revert\n        /* \"#utility.yul\":5906:6008   */\n    tag_73:\n        /* \"#utility.yul\":5947:5953   */\n      0x00\n        /* \"#utility.yul\":5998:6000   */\n      0x1f\n        /* \"#utility.yul\":5994:6001   */\n      not\n        /* \"#utility.yul\":5989:5991   */\n      0x1f\n        /* \"#utility.yul\":5982:5987   */\n      dup4\n        /* \"#utility.yul\":5978:5992   */\n      add\n        /* \"#utility.yul\":5974:6002   */\n      and\n        /* \"#utility.yul\":5964:6002   */\n      swap1\n      pop\n        /* \"#utility.yul\":5906:6008   */\n      swap2\n      swap1\n      pop\n      jump\t// out\n        /* \"#utility.yul\":6014:6175   */\n    tag_89:\n        /* \"#utility.yul\":6154:6167   */\n      0x63616c6c20666f6f696e67000000000000000000000000000000000000000000\n        /* \"#utility.yul\":6150:6151   */\n      0x00\n        /* \"#utility.yul\":6142:6148   */\n      dup3\n        /* \"#utility.yul\":6138:6152   */\n      add\n        /* \"#utility.yul\":6131:6168   */\n      mstore\n        /* \"#utility.yul\":6014:6175   */\n      pop\n      jump\t// out\n        /* \"#utility.yul\":6181:6342   */\n    tag_94:\n        /* \"#utility.yul\":6321:6334   */\n      0x63616c6c206661696c6564000000000000000000000000000000000000000000\n        /* \"#utility.yul\":6317:6318   */\n      0x00\n        /* \"#utility.yul\":6309:6315   */\n      dup3\n        /* \"#utility.yul\":6305:6319   */\n      add\n        /* \"#utility.yul\":6298:6335   */\n      mstore\n        /* \"#utility.yul\":6181:6342   */\n      pop\n      jump\t// out\n        /* \"#utility.yul\":6348:6470   */\n    tag_58:\n        /* \"#utility.yul\":6421:6445   */\n      tag_137\n        /* \"#utility.yul\":6439:6444   */\n      dup2\n        /* \"#utility.yul\":6421:6445   */\n      tag_110\n      jump\t// in\n    tag_137:\n        /* \"#utility.yul\":6414:6419   */\n      dup2\n        /* \"#utility.yul\":6411:6446   */\n      eq\n        /* \"#utility.yul\":6401:6464   */\n      tag_138\n      jumpi\n        /* \"#utility.yul\":6460:6461   */\n      0x00\n        /* \"#utility.yul\":6457:6458   */\n      dup1\n        /* \"#utility.yul\":6450:6462   */\n      revert\n        /* \"#utility.yul\":6401:6464   */\n    tag_138:\n        /* \"#utility.yul\":6348:6470   */\n      pop\n      jump\t// out\n\n    auxdata: 0xa26469706673582212205a9be85af5e2fc645db673739d4f19023f17517bc2eed9a897212fdbeadfc0af64736f6c63430008070033\n}\n",
				"bytecode": {
					"linkReferences": {},
					"object": "608060405234801561001057600080fd5b506107c7806100206000396000f3fe6080604052600436106100345760003560e01c806373d4a13a14610039578063b0feeff614610064578063edcbe76c1461008d575b600080fd5b34801561004557600080fd5b5061004e6100a9565b60405161005b9190610585565b60405180910390f35b34801561007057600080fd5b5061008b60048036038101906100869190610482565b610137565b005b6100a760048036038101906100a29190610482565b61026a565b005b600080546100b6906106b1565b80601f01602080910402602001604051908101604052809291908181526020018280546100e2906106b1565b801561012f5780601f106101045761010080835404028352916020019161012f565b820191906000526020600020905b81548152906001019060200180831161011257829003601f168201915b505050505081565b60008173ffffffffffffffffffffffffffffffffffffffff166040516024016040516020818303038152906040527f1dcc85ae000000000000000000000000000000000000000000000000000000007bffffffffffffffffffffffffffffffffffffffffffffffffffffffff19166020820180517bffffffffffffffffffffffffffffffffffffffffffffffffffffffff83818316178352505050506040516101e0919061056e565b6000604051808303816000865af19150503d806000811461021d576040519150601f19603f3d011682016040523d82523d6000602084013e610222565b606091505b5050905080610266576040517f08c379a000000000000000000000000000000000000000000000000000000000815260040161025d906105d5565b60405180910390fd5b5050565b6000808273ffffffffffffffffffffffffffffffffffffffff16606f61138890607b60405160240161029c91906105a7565b6040516020818303038152906040527f24ccab8f000000000000000000000000000000000000000000000000000000007bffffffffffffffffffffffffffffffffffffffffffffffffffffffff19166020820180517bffffffffffffffffffffffffffffffffffffffffffffffffffffffff8381831617835250505050604051610326919061056e565b600060405180830381858888f193505050503d8060008114610364576040519150601f19603f3d011682016040523d82523d6000602084013e610369565b606091505b5091509150816103ae576040517f08c379a00000000000000000000000000000000000000000000000000000000081526004016103a5906105d5565b60405180910390fd5b80600090805190602001906103c49291906103ca565b50505050565b8280546103d6906106b1565b90600052602060002090601f0160209004810192826103f8576000855561043f565b82601f1061041157805160ff191683800117855561043f565b8280016001018555821561043f579182015b8281111561043e578251825591602001919060010190610423565b5b50905061044c9190610450565b5090565b5b80821115610469576000816000905550600101610451565b5090565b60008135905061047c8161077a565b92915050565b60006020828403121561049857610497610712565b5b60006104a68482850161046d565b91505092915050565b60006104ba826105f5565b6104c48185610600565b93506104d481856020860161067e565b6104dd81610717565b840191505092915050565b60006104f3826105f5565b6104fd8185610611565b935061050d81856020860161067e565b80840191505092915050565b6105228161066c565b82525050565b6000610535600b8361061c565b915061054082610728565b602082019050919050565b6000610558600b8361061c565b915061056382610751565b602082019050919050565b600061057a82846104e8565b915081905092915050565b6000602082019050818103600083015261059f81846104af565b905092915050565b600060408201905081810360008301526105c081610528565b90506105cf6020830184610519565b92915050565b600060208201905081810360008301526105ee8161054b565b9050919050565b600081519050919050565b600082825260208201905092915050565b600081905092915050565b600082825260208201905092915050565b60006106388261063f565b9050919050565b600073ffffffffffffffffffffffffffffffffffffffff82169050919050565b600060ff82169050919050565b60006106778261065f565b9050919050565b60005b8381101561069c578082015181840152602081019050610681565b838111156106ab576000848401525b50505050565b600060028204905060018216806106c957607f821691505b602082108114156106dd576106dc6106e3565b5b50919050565b7f4e487b7100000000000000000000000000000000000000000000000000000000600052602260045260246000fd5b600080fd5b6000601f19601f8301169050919050565b7f63616c6c20666f6f696e67000000000000000000000000000000000000000000600082015250565b7f63616c6c206661696c6564000000000000000000000000000000000000000000600082015250565b6107838161062d565b811461078e57600080fd5b5056fea26469706673582212205a9be85af5e2fc645db673739d4f19023f17517bc2eed9a897212fdbeadfc0af64736f6c63430008070033",
					"opcodes": "PUSH1 0x80 PUSH1 0x40 MSTORE CALLVALUE DUP1 ISZERO PUSH2 0x10 JUMPI PUSH1 0x0 DUP1 REVERT JUMPDEST POP PUSH2 0x7C7 DUP1 PUSH2 0x20 PUSH1 0x0 CODECOPY PUSH1 0x0 RETURN INVALID PUSH1 0x80 PUSH1 0x40 MSTORE PUSH1 0x4 CALLDATASIZE LT PUSH2 0x34 JUMPI PUSH1 0x0 CALLDATALOAD PUSH1 0xE0 SHR DUP1 PUSH4 0x73D4A13A EQ PUSH2 0x39 JUMPI DUP1 PUSH4 0xB0FEEFF6 EQ PUSH2 0x64 JUMPI DUP1 PUSH4 0xEDCBE76C EQ PUSH2 0x8D JUMPI JUMPDEST PUSH1 0x0 DUP1 REVERT JUMPDEST CALLVALUE DUP1 ISZERO PUSH2 0x45 JUMPI PUSH1 0x0 DUP1 REVERT JUMPDEST POP PUSH2 0x4E PUSH2 0xA9 JUMP JUMPDEST PUSH1 0x40 MLOAD PUSH2 0x5B SWAP2 SWAP1 PUSH2 0x585 JUMP JUMPDEST PUSH1 0x40 MLOAD DUP1 SWAP2 SUB SWAP1 RETURN JUMPDEST CALLVALUE DUP1 ISZERO PUSH2 0x70 JUMPI PUSH1 0x0 DUP1 REVERT JUMPDEST POP PUSH2 0x8B PUSH1 0x4 DUP1 CALLDATASIZE SUB DUP2 ADD SWAP1 PUSH2 0x86 SWAP2 SWAP1 PUSH2 0x482 JUMP JUMPDEST PUSH2 0x137 JUMP JUMPDEST STOP JUMPDEST PUSH2 0xA7 PUSH1 0x4 DUP1 CALLDATASIZE SUB DUP2 ADD SWAP1 PUSH2 0xA2 SWAP2 SWAP1 PUSH2 0x482 JUMP JUMPDEST PUSH2 0x26A JUMP JUMPDEST STOP JUMPDEST PUSH1 0x0 DUP1 SLOAD PUSH2 0xB6 SWAP1 PUSH2 0x6B1 JUMP JUMPDEST DUP1 PUSH1 0x1F ADD PUSH1 0x20 DUP1 SWAP2 DIV MUL PUSH1 0x20 ADD PUSH1 0x40 MLOAD SWAP1 DUP2 ADD PUSH1 0x40 MSTORE DUP1 SWAP3 SWAP2 SWAP1 DUP2 DUP2 MSTORE PUSH1 0x20 ADD DUP3 DUP1 SLOAD PUSH2 0xE2 SWAP1 PUSH2 0x6B1 JUMP JUMPDEST DUP1 ISZERO PUSH2 0x12F JUMPI DUP1 PUSH1 0x1F LT PUSH2 0x104 JUMPI PUSH2 0x100 DUP1 DUP4 SLOAD DIV MUL DUP4 MSTORE SWAP2 PUSH1 0x20 ADD SWAP2 PUSH2 0x12F JUMP JUMPDEST DUP3 ADD SWAP2 SWAP1 PUSH1 0x0 MSTORE PUSH1 0x20 PUSH1 0x0 KECCAK256 SWAP1 JUMPDEST DUP2 SLOAD DUP2 MSTORE SWAP1 PUSH1 0x1 ADD SWAP1 PUSH1 0x20 ADD DUP1 DUP4 GT PUSH2 0x112 JUMPI DUP3 SWAP1 SUB PUSH1 0x1F AND DUP3 ADD SWAP2 JUMPDEST POP POP POP POP POP DUP2 JUMP JUMPDEST PUSH1 0x0 DUP2 PUSH20 0xFFFFFFFFFFFFFFFFFFFFFFFFFFFFFFFFFFFFFFFF AND PUSH1 0x40 MLOAD PUSH1 0x24 ADD PUSH1 0x40 MLOAD PUSH1 0x20 DUP2 DUP4 SUB SUB DUP2 MSTORE SWAP1 PUSH1 0x40 MSTORE PUSH32 0x1DCC85AE00000000000000000000000000000000000000000000000000000000 PUSH28 0xFFFFFFFFFFFFFFFFFFFFFFFFFFFFFFFFFFFFFFFFFFFFFFFFFFFFFFFF NOT AND PUSH1 0x20 DUP3 ADD DUP1 MLOAD PUSH28 0xFFFFFFFFFFFFFFFFFFFFFFFFFFFFFFFFFFFFFFFFFFFFFFFFFFFFFFFF DUP4 DUP2 DUP4 AND OR DUP4 MSTORE POP POP POP POP PUSH1 0x40 MLOAD PUSH2 0x1E0 SWAP2 SWAP1 PUSH2 0x56E JUMP JUMPDEST PUSH1 0x0 PUSH1 0x40 MLOAD DUP1 DUP4 SUB DUP2 PUSH1 0x0 DUP7 GAS CALL SWAP2 POP POP RETURNDATASIZE DUP1 PUSH1 0x0 DUP2 EQ PUSH2 0x21D JUMPI PUSH1 0x40 MLOAD SWAP2 POP PUSH1 0x1F NOT PUSH1 0x3F RETURNDATASIZE ADD AND DUP3 ADD PUSH1 0x40 MSTORE RETURNDATASIZE DUP3 MSTORE RETURNDATASIZE PUSH1 0x0 PUSH1 0x20 DUP5 ADD RETURNDATACOPY PUSH2 0x222 JUMP JUMPDEST PUSH1 0x60 SWAP2 POP JUMPDEST POP POP SWAP1 POP DUP1 PUSH2 0x266 JUMPI PUSH1 0x40 MLOAD PUSH32 0x8C379A000000000000000000000000000000000000000000000000000000000 DUP2 MSTORE PUSH1 0x4 ADD PUSH2 0x25D SWAP1 PUSH2 0x5D5 JUMP JUMPDEST PUSH1 0x40 MLOAD DUP1 SWAP2 SUB SWAP1 REVERT JUMPDEST POP POP JUMP JUMPDEST PUSH1 0x0 DUP1 DUP3 PUSH20 0xFFFFFFFFFFFFFFFFFFFFFFFFFFFFFFFFFFFFFFFF AND PUSH1 0x6F PUSH2 0x1388 SWAP1 PUSH1 0x7B PUSH1 0x40 MLOAD PUSH1 0x24 ADD PUSH2 0x29C SWAP2 SWAP1 PUSH2 0x5A7 JUMP JUMPDEST PUSH1 0x40 MLOAD PUSH1 0x20 DUP2 DUP4 SUB SUB DUP2 MSTORE SWAP1 PUSH1 0x40 MSTORE PUSH32 0x24CCAB8F00000000000000000000000000000000000000000000000000000000 PUSH28 0xFFFFFFFFFFFFFFFFFFFFFFFFFFFFFFFFFFFFFFFFFFFFFFFFFFFFFFFF NOT AND PUSH1 0x20 DUP3 ADD DUP1 MLOAD PUSH28 0xFFFFFFFFFFFFFFFFFFFFFFFFFFFFFFFFFFFFFFFFFFFFFFFFFFFFFFFF DUP4 DUP2 DUP4 AND OR DUP4 MSTORE POP POP POP POP PUSH1 0x40 MLOAD PUSH2 0x326 SWAP2 SWAP1 PUSH2 0x56E JUMP JUMPDEST PUSH1 0x0 PUSH1 0x40 MLOAD DUP1 DUP4 SUB DUP2 DUP6 DUP9 DUP9 CALL SWAP4 POP POP POP POP RETURNDATASIZE DUP1 PUSH1 0x0 DUP2 EQ PUSH2 0x364 JUMPI PUSH1 0x40 MLOAD SWAP2 POP PUSH1 0x1F NOT PUSH1 0x3F RETURNDATASIZE ADD AND DUP3 ADD PUSH1 0x40 MSTORE RETURNDATASIZE DUP3 MSTORE RETURNDATASIZE PUSH1 0x0 PUSH1 0x20 DUP5 ADD RETURNDATACOPY PUSH2 0x369 JUMP JUMPDEST PUSH1 0x60 SWAP2 POP JUMPDEST POP SWAP2 POP SWAP2 POP DUP2 PUSH2 0x3AE JUMPI PUSH1 0x40 MLOAD PUSH32 0x8C379A000000000000000000000000000000000000000000000000000000000 DUP2 MSTORE PUSH1 0x4 ADD PUSH2 0x3A5 SWAP1 PUSH2 0x5D5 JUMP JUMPDEST PUSH1 0x40 MLOAD DUP1 SWAP2 SUB SWAP1 REVERT JUMPDEST DUP1 PUSH1 0x0 SWAP1 DUP1 MLOAD SWAP1 PUSH1 0x20 ADD SWAP1 PUSH2 0x3C4 SWAP3 SWAP2 SWAP1 PUSH2 0x3CA JUMP JUMPDEST POP POP POP POP JUMP JUMPDEST DUP3 DUP1 SLOAD PUSH2 0x3D6 SWAP1 PUSH2 0x6B1 JUMP JUMPDEST SWAP1 PUSH1 0x0 MSTORE PUSH1 0x20 PUSH1 0x0 KECCAK256 SWAP1 PUSH1 0x1F ADD PUSH1 0x20 SWAP1 DIV DUP2 ADD SWAP3 DUP3 PUSH2 0x3F8 JUMPI PUSH1 0x0 DUP6 SSTORE PUSH2 0x43F JUMP JUMPDEST DUP3 PUSH1 0x1F LT PUSH2 0x411 JUMPI DUP1 MLOAD PUSH1 0xFF NOT AND DUP4 DUP1 ADD OR DUP6 SSTORE PUSH2 0x43F JUMP JUMPDEST DUP3 DUP1 ADD PUSH1 0x1 ADD DUP6 SSTORE DUP3 ISZERO PUSH2 0x43F JUMPI SWAP2 DUP3 ADD JUMPDEST DUP3 DUP2 GT ISZERO PUSH2 0x43E JUMPI DUP3 MLOAD DUP3 SSTORE SWAP2 PUSH1 0x20 ADD SWAP2 SWAP1 PUSH1 0x1 ADD SWAP1 PUSH2 0x423 JUMP JUMPDEST JUMPDEST POP SWAP1 POP PUSH2 0x44C SWAP2 SWAP1 PUSH2 0x450 JUMP JUMPDEST POP SWAP1 JUMP JUMPDEST JUMPDEST DUP1 DUP3 GT ISZERO PUSH2 0x469 JUMPI PUSH1 0x0 DUP2 PUSH1 0x0 SWAP1 SSTORE POP PUSH1 0x1 ADD PUSH2 0x451 JUMP JUMPDEST POP SWAP1 JUMP JUMPDEST PUSH1 0x0 DUP2 CALLDATALOAD SWAP1 POP PUSH2 0x47C DUP2 PUSH2 0x77A JUMP JUMPDEST SWAP3 SWAP2 POP POP JUMP JUMPDEST PUSH1 0x0 PUSH1 0x20 DUP3 DUP5 SUB SLT ISZERO PUSH2 0x498 JUMPI PUSH2 0x497 PUSH2 0x712 JUMP JUMPDEST JUMPDEST PUSH1 0x0 PUSH2 0x4A6 DUP5 DUP3 DUP6 ADD PUSH2 0x46D JUMP JUMPDEST SWAP2 POP POP SWAP3 SWAP2 POP POP JUMP JUMPDEST PUSH1 0x0 PUSH2 0x4BA DUP3 PUSH2 0x5F5 JUMP JUMPDEST PUSH2 0x4C4 DUP2 DUP6 PUSH2 0x600 JUMP JUMPDEST SWAP4 POP PUSH2 0x4D4 DUP2 DUP6 PUSH1 0x20 DUP7 ADD PUSH2 0x67E JUMP JUMPDEST PUSH2 0x4DD DUP2 PUSH2 0x717 JUMP JUMPDEST DUP5 ADD SWAP2 POP POP SWAP3 SWAP2 POP POP JUMP JUMPDEST PUSH1 0x0 PUSH2 0x4F3 DUP3 PUSH2 0x5F5 JUMP JUMPDEST PUSH2 0x4FD DUP2 DUP6 PUSH2 0x611 JUMP JUMPDEST SWAP4 POP PUSH2 0x50D DUP2 DUP6 PUSH1 0x20 DUP7 ADD PUSH2 0x67E JUMP JUMPDEST DUP1 DUP5 ADD SWAP2 POP POP SWAP3 SWAP2 POP POP JUMP JUMPDEST PUSH2 0x522 DUP2 PUSH2 0x66C JUMP JUMPDEST DUP3 MSTORE POP POP JUMP JUMPDEST PUSH1 0x0 PUSH2 0x535 PUSH1 0xB DUP4 PUSH2 0x61C JUMP JUMPDEST SWAP2 POP PUSH2 0x540 DUP3 PUSH2 0x728 JUMP JUMPDEST PUSH1 0x20 DUP3 ADD SWAP1 POP SWAP2 SWAP1 POP JUMP JUMPDEST PUSH1 0x0 PUSH2 0x558 PUSH1 0xB DUP4 PUSH2 0x61C JUMP JUMPDEST SWAP2 POP PUSH2 0x563 DUP3 PUSH2 0x751 JUMP JUMPDEST PUSH1 0x20 DUP3 ADD SWAP1 POP SWAP2 SWAP1 POP JUMP JUMPDEST PUSH1 0x0 PUSH2 0x57A DUP3 DUP5 PUSH2 0x4E8 JUMP JUMPDEST SWAP2 POP DUP2 SWAP1 POP SWAP3 SWAP2 POP POP JUMP JUMPDEST PUSH1 0x0 PUSH1 0x20 DUP3 ADD SWAP1 POP DUP2 DUP2 SUB PUSH1 0x0 DUP4 ADD MSTORE PUSH2 0x59F DUP2 DUP5 PUSH2 0x4AF JUMP JUMPDEST SWAP1 POP SWAP3 SWAP2 POP POP JUMP JUMPDEST PUSH1 0x0 PUSH1 0x40 DUP3 ADD SWAP1 POP DUP2 DUP2 SUB PUSH1 0x0 DUP4 ADD MSTORE PUSH2 0x5C0 DUP2 PUSH2 0x528 JUMP JUMPDEST SWAP1 POP PUSH2 0x5CF PUSH1 0x20 DUP4 ADD DUP5 PUSH2 0x519 JUMP JUMPDEST SWAP3 SWAP2 POP POP JUMP JUMPDEST PUSH1 0x0 PUSH1 0x20 DUP3 ADD SWAP1 POP DUP2 DUP2 SUB PUSH1 0x0 DUP4 ADD MSTORE PUSH2 0x5EE DUP2 PUSH2 0x54B JUMP JUMPDEST SWAP1 POP SWAP2 SWAP1 POP JUMP JUMPDEST PUSH1 0x0 DUP2 MLOAD SWAP1 POP SWAP2 SWAP1 POP JUMP JUMPDEST PUSH1 0x0 DUP3 DUP3 MSTORE PUSH1 0x20 DUP3 ADD SWAP1 POP SWAP3 SWAP2 POP POP JUMP JUMPDEST PUSH1 0x0 DUP2 SWAP1 POP SWAP3 SWAP2 POP POP JUMP JUMPDEST PUSH1 0x0 DUP3 DUP3 MSTORE PUSH1 0x20 DUP3 ADD SWAP1 POP SWAP3 SWAP2 POP POP JUMP JUMPDEST PUSH1 0x0 PUSH2 0x638 DUP3 PUSH2 0x63F JUMP JUMPDEST SWAP1 POP SWAP2 SWAP1 POP JUMP JUMPDEST PUSH1 0x0 PUSH20 0xFFFFFFFFFFFFFFFFFFFFFFFFFFFFFFFFFFFFFFFF DUP3 AND SWAP1 POP SWAP2 SWAP1 POP JUMP JUMPDEST PUSH1 0x0 PUSH1 0xFF DUP3 AND SWAP1 POP SWAP2 SWAP1 POP JUMP JUMPDEST PUSH1 0x0 PUSH2 0x677 DUP3 PUSH2 0x65F JUMP JUMPDEST SWAP1 POP SWAP2 SWAP1 POP JUMP JUMPDEST PUSH1 0x0 JUMPDEST DUP4 DUP2 LT ISZERO PUSH2 0x69C JUMPI DUP1 DUP3 ADD MLOAD DUP2 DUP5 ADD MSTORE PUSH1 0x20 DUP2 ADD SWAP1 POP PUSH2 0x681 JUMP JUMPDEST DUP4 DUP2 GT ISZERO PUSH2 0x6AB JUMPI PUSH1 0x0 DUP5 DUP5 ADD MSTORE JUMPDEST POP POP POP POP JUMP JUMPDEST PUSH1 0x0 PUSH1 0x2 DUP3 DIV SWAP1 POP PUSH1 0x1 DUP3 AND DUP1 PUSH2 0x6C9 JUMPI PUSH1 0x7F DUP3 AND SWAP2 POP JUMPDEST PUSH1 0x20 DUP3 LT DUP2 EQ ISZERO PUSH2 0x6DD JUMPI PUSH2 0x6DC PUSH2 0x6E3 JUMP JUMPDEST JUMPDEST POP SWAP2 SWAP1 POP JUMP JUMPDEST PUSH32 0x4E487B7100000000000000000000000000000000000000000000000000000000 PUSH1 0x0 MSTORE PUSH1 0x22 PUSH1 0x4 MSTORE PUSH1 0x24 PUSH1 0x0 REVERT JUMPDEST PUSH1 0x0 DUP1 REVERT JUMPDEST PUSH1 0x0 PUSH1 0x1F NOT PUSH1 0x1F DUP4 ADD AND SWAP1 POP SWAP2 SWAP1 POP JUMP JUMPDEST PUSH32 0x63616C6C20666F6F696E67000000000000000000000000000000000000000000 PUSH1 0x0 DUP3 ADD MSTORE POP JUMP JUMPDEST PUSH32 0x63616C6C206661696C6564000000000000000000000000000000000000000000 PUSH1 0x0 DUP3 ADD MSTORE POP JUMP JUMPDEST PUSH2 0x783 DUP2 PUSH2 0x62D JUMP JUMPDEST DUP2 EQ PUSH2 0x78E JUMPI PUSH1 0x0 DUP1 REVERT JUMPDEST POP JUMP INVALID LOG2 PUSH5 0x6970667358 0x22 SLT KECCAK256 GAS SWAP12 0xE8 GAS CREATE2 0xE2 0xFC PUSH5 0x5DB673739D 0x4F NOT MUL EXTCODEHASH OR MLOAD PUSH28 0xC2EED9A897212FDBEADFC0AF64736F6C634300080700330000000000 "
				},
				"gasEstimates": {
					"creation": {
						"codeDepositCost": "398200",
						"executionCost": "436",
						"totalCost": "398636"
					},
					"external": {
						"callDoesNotExist(address)": "infinite",
						"callFoo(address)": "infinite",
						"data()": "infinite"
					}
				},
				"methodIdentifiers": {
					"callDoesNotExist(address)": "b0feeff6",
					"callFoo(address)": "edcbe76c",
					"data()": "73d4a13a"
				}
			},
			"storageLayout": {
				"storage": [
					{
						"astId": 53,
						"contract": "contracts/Call.sol:Call",
						"label": "data",
						"offset": 0,
						"slot": "0",
						"type": "t_bytes_storage"
					}
				],
				"types": {
					"t_bytes_storage": {
						"encoding": "bytes",
						"label": "bytes",
						"numberOfBytes": "32"
					}
				}
			},
			"userdoc": {
				"kind": "user",
				"methods": {},
				"version": 1
			}
		}
	}
}