{
	"contracts/DataLocations.sol": {
		"DataLocations": {
			"abi": [
				{
					"inputs": [
						{
							"internalType": "uint256[]",
							"name": "y",
							"type": "uint256[]"
						},
						{
							"internalType": "string",
							"name": "s",
							"type": "string"
						}
					],
					"name": "examples",
					"outputs": [
						{
							"internalType": "uint256[]",
							"name": "",
							"type": "uint256[]"
						}
					],
					"stateMutability": "nonpayable",
					"type": "function"
				},
				{
					"inputs": [
						{
							"internalType": "address",
							"name": "",
							"type": "address"
						}
					],
					"name": "myStructs",
					"outputs": [
						{
							"internalType": "uint256",
							"name": "foo",
							"type": "uint256"
						},
						{
							"internalType": "string",
							"name": "text",
							"type": "string"
						}
					],
					"stateMutability": "view",
					"type": "function"
				}
			],
			"devdoc": {
				"kind": "dev",
				"methods": {},
				"version": 1
			},
			"evm": {
				"assembly": "    /* \"contracts/DataLocations.sol\":110:423  contract DataLocations {... */\n  mstore(0x40, 0x80)\n  callvalue\n  dup1\n  iszero\n  tag_1\n  jumpi\n  0x00\n  dup1\n  revert\ntag_1:\n  pop\n  dataSize(sub_0)\n  dup1\n  dataOffset(sub_0)\n  0x00\n  codecopy\n  0x00\n  return\nstop\n\nsub_0: assembly {\n        /* \"contracts/DataLocations.sol\":110:423  contract DataLocations {... */\n      mstore(0x40, 0x80)\n      callvalue\n      dup1\n      iszero\n      tag_1\n      jumpi\n      0x00\n      dup1\n      revert\n    tag_1:\n      pop\n      jumpi(tag_2, lt(calldatasize, 0x04))\n      shr(0xe0, calldataload(0x00))\n      dup1\n      0xb43c5d33\n      eq\n      tag_3\n      jumpi\n      dup1\n      0xfc277a95\n      eq\n      tag_4\n      jumpi\n    tag_2:\n      0x00\n      dup1\n      revert\n        /* \"contracts/DataLocations.sol\":207:252  mapping(address => MyStruct) public myStructs */\n    tag_3:\n      tag_5\n      0x04\n      dup1\n      calldatasize\n      sub\n      dup2\n      add\n      swap1\n      tag_6\n      swap2\n      swap1\n      tag_7\n      jump\t// in\n    tag_6:\n      tag_8\n      jump\t// in\n    tag_5:\n      mload(0x40)\n      tag_9\n      swap3\n      swap2\n      swap1\n      tag_10\n      jump\t// in\n    tag_9:\n      mload(0x40)\n      dup1\n      swap2\n      sub\n      swap1\n      return\n        /* \"contracts/DataLocations.sol\":259:420  function examples(uint[] memory y, string calldata s) external returns (uint[] memory) {... */\n    tag_4:\n      tag_11\n      0x04\n      dup1\n      calldatasize\n      sub\n      dup2\n      add\n      swap1\n      tag_12\n      swap2\n      swap1\n      tag_13\n      jump\t// in\n    tag_12:\n      tag_14\n      jump\t// in\n    tag_11:\n      mload(0x40)\n      tag_15\n      swap2\n      swap1\n      tag_16\n      jump\t// in\n    tag_15:\n      mload(0x40)\n      dup1\n      swap2\n      sub\n      swap1\n      return\n        /* \"contracts/DataLocations.sol\":207:252  mapping(address => MyStruct) public myStructs */\n    tag_8:\n      mstore(0x20, 0x00)\n      dup1\n      0x00\n      mstore\n      keccak256(0x00, 0x40)\n      0x00\n      swap2\n      pop\n      swap1\n      pop\n      dup1\n      0x00\n      add\n      sload\n      swap1\n      dup1\n      0x01\n      add\n      dup1\n      sload\n      tag_17\n      swap1\n      tag_18\n      jump\t// in\n    tag_17:\n      dup1\n      0x1f\n      add\n      0x20\n      dup1\n      swap2\n      div\n      mul\n      0x20\n      add\n      mload(0x40)\n      swap1\n      dup2\n      add\n      0x40\n      mstore\n      dup1\n      swap3\n      swap2\n      swap1\n      dup2\n      dup2\n      mstore\n      0x20\n      add\n      dup3\n      dup1\n      sload\n      tag_19\n      swap1\n      tag_18\n      jump\t// in\n    tag_19:\n      dup1\n      iszero\n      tag_20\n      jumpi\n      dup1\n      0x1f\n      lt\n      tag_21\n      jumpi\n      0x0100\n      dup1\n      dup4\n      sload\n      div\n      mul\n      dup4\n      mstore\n      swap2\n      0x20\n      add\n      swap2\n      jump(tag_20)\n    tag_21:\n      dup3\n      add\n      swap2\n      swap1\n      0x00\n      mstore\n      keccak256(0x00, 0x20)\n      swap1\n    tag_22:\n      dup2\n      sload\n      dup2\n      mstore\n      swap1\n      0x01\n      add\n      swap1\n      0x20\n      add\n      dup1\n      dup4\n      gt\n      tag_22\n      jumpi\n      dup3\n      swap1\n      sub\n      0x1f\n      and\n      dup3\n      add\n      swap2\n    tag_20:\n      pop\n      pop\n      pop\n      pop\n      pop\n      swap1\n      pop\n      dup3\n      jump\t// out\n        /* \"contracts/DataLocations.sol\":259:420  function examples(uint[] memory y, string calldata s) external returns (uint[] memory) {... */\n    tag_14:\n        /* \"contracts/DataLocations.sol\":331:344  uint[] memory */\n      0x60\n        /* \"contracts/DataLocations.sol\":380:413  MyStruct({foo: 123, text: \"bar\"}) */\n      mload(0x40)\n      dup1\n      0x40\n      add\n      0x40\n      mstore\n      dup1\n        /* \"contracts/DataLocations.sol\":395:398  123 */\n      0x7b\n        /* \"contracts/DataLocations.sol\":380:413  MyStruct({foo: 123, text: \"bar\"}) */\n      dup2\n      mstore\n      0x20\n      add\n      mload(0x40)\n      dup1\n      0x40\n      add\n      0x40\n      mstore\n      dup1\n      0x03\n      dup2\n      mstore\n      0x20\n      add\n      0x6261720000000000000000000000000000000000000000000000000000000000\n      dup2\n      mstore\n      pop\n      dup2\n      mstore\n      pop\n        /* \"contracts/DataLocations.sol\":356:365  myStructs */\n      0x00\n        /* \"contracts/DataLocations.sol\":356:377  myStructs[msg.sender] */\n      dup1\n        /* \"contracts/DataLocations.sol\":366:376  msg.sender */\n      caller\n        /* \"contracts/DataLocations.sol\":356:377  myStructs[msg.sender] */\n      0xffffffffffffffffffffffffffffffffffffffff\n      and\n      0xffffffffffffffffffffffffffffffffffffffff\n      and\n      dup2\n      mstore\n      0x20\n      add\n      swap1\n      dup2\n      mstore\n      0x20\n      add\n      0x00\n      keccak256\n        /* \"contracts/DataLocations.sol\":356:413  myStructs[msg.sender] = MyStruct({foo: 123, text: \"bar\"}) */\n      0x00\n      dup3\n      add\n      mload\n      dup2\n      0x00\n      add\n      sstore\n      0x20\n      dup3\n      add\n      mload\n      dup2\n      0x01\n      add\n      swap1\n      dup1\n      mload\n      swap1\n      0x20\n      add\n      swap1\n      tag_24\n      swap3\n      swap2\n      swap1\n      tag_25\n      jump\t// in\n    tag_24:\n      pop\n      swap1\n      pop\n      pop\n        /* \"contracts/DataLocations.sol\":259:420  function examples(uint[] memory y, string calldata s) external returns (uint[] memory) {... */\n      swap4\n      swap3\n      pop\n      pop\n      pop\n      jump\t// out\n    tag_25:\n      dup3\n      dup1\n      sload\n      tag_26\n      swap1\n      tag_18\n      jump\t// in\n    tag_26:\n      swap1\n      0x00\n      mstore\n      keccak256(0x00, 0x20)\n      swap1\n      0x1f\n      add\n      0x20\n      swap1\n      div\n      dup2\n      add\n      swap3\n      dup3\n      tag_28\n      jumpi\n      0x00\n      dup6\n      sstore\n      jump(tag_27)\n    tag_28:\n      dup3\n      0x1f\n      lt\n      tag_29\n      jumpi\n      dup1\n      mload\n      not(0xff)\n      and\n      dup4\n      dup1\n      add\n      or\n      dup6\n      sstore\n      jump(tag_27)\n    tag_29:\n      dup3\n      dup1\n      add\n      0x01\n      add\n      dup6\n      sstore\n      dup3\n      iszero\n      tag_27\n      jumpi\n      swap2\n      dup3\n      add\n    tag_30:\n      dup3\n      dup2\n      gt\n      iszero\n      tag_31\n      jumpi\n      dup3\n      mload\n      dup3\n      sstore\n      swap2\n      0x20\n      add\n      swap2\n      swap1\n      0x01\n      add\n      swap1\n      jump(tag_30)\n    tag_31:\n    tag_27:\n      pop\n      swap1\n      pop\n      tag_32\n      swap2\n      swap1\n      tag_33\n      jump\t// in\n    tag_32:\n      pop\n      swap1\n      jump\t// out\n    tag_33:\n    tag_34:\n      dup1\n      dup3\n      gt\n      iszero\n      tag_35\n      jumpi\n      0x00\n      dup2\n      0x00\n      swap1\n      sstore\n      pop\n      0x01\n      add\n      jump(tag_34)\n    tag_35:\n      pop\n      swap1\n      jump\t// out\n        /* \"#utility.yul\":24:746   */\n    tag_37:\n        /* \"#utility.yul\":120:125   */\n      0x00\n        /* \"#utility.yul\":145:226   */\n      tag_39\n        /* \"#utility.yul\":161:225   */\n      tag_40\n        /* \"#utility.yul\":218:224   */\n      dup5\n        /* \"#utility.yul\":161:225   */\n      tag_41\n      jump\t// in\n    tag_40:\n        /* \"#utility.yul\":145:226   */\n      tag_42\n      jump\t// in\n    tag_39:\n        /* \"#utility.yul\":136:226   */\n      swap1\n      pop\n        /* \"#utility.yul\":246:251   */\n      dup1\n        /* \"#utility.yul\":275:281   */\n      dup4\n        /* \"#utility.yul\":268:273   */\n      dup3\n        /* \"#utility.yul\":261:282   */\n      mstore\n        /* \"#utility.yul\":309:313   */\n      0x20\n        /* \"#utility.yul\":302:307   */\n      dup3\n        /* \"#utility.yul\":298:314   */\n      add\n        /* \"#utility.yul\":291:314   */\n      swap1\n      pop\n        /* \"#utility.yul\":335:341   */\n      dup3\n        /* \"#utility.yul\":385:388   */\n      dup6\n        /* \"#utility.yul\":377:381   */\n      0x20\n        /* \"#utility.yul\":369:375   */\n      dup7\n        /* \"#utility.yul\":365:382   */\n      mul\n        /* \"#utility.yul\":360:363   */\n      dup3\n        /* \"#utility.yul\":356:383   */\n      add\n        /* \"#utility.yul\":353:389   */\n      gt\n        /* \"#utility.yul\":350:493   */\n      iszero\n      tag_43\n      jumpi\n        /* \"#utility.yul\":404:483   */\n      tag_44\n      tag_45\n      jump\t// in\n    tag_44:\n        /* \"#utility.yul\":350:493   */\n    tag_43:\n        /* \"#utility.yul\":517:518   */\n      0x00\n        /* \"#utility.yul\":502:740   */\n    tag_46:\n        /* \"#utility.yul\":527:533   */\n      dup6\n        /* \"#utility.yul\":524:525   */\n      dup2\n        /* \"#utility.yul\":521:534   */\n      lt\n        /* \"#utility.yul\":502:740   */\n      iszero\n      tag_48\n      jumpi\n        /* \"#utility.yul\":595:598   */\n      dup2\n        /* \"#utility.yul\":624:661   */\n      tag_49\n        /* \"#utility.yul\":657:660   */\n      dup9\n        /* \"#utility.yul\":645:655   */\n      dup3\n        /* \"#utility.yul\":624:661   */\n      tag_50\n      jump\t// in\n    tag_49:\n        /* \"#utility.yul\":619:622   */\n      dup5\n        /* \"#utility.yul\":612:662   */\n      mstore\n        /* \"#utility.yul\":691:695   */\n      0x20\n        /* \"#utility.yul\":686:689   */\n      dup5\n        /* \"#utility.yul\":682:696   */\n      add\n        /* \"#utility.yul\":675:696   */\n      swap4\n      pop\n        /* \"#utility.yul\":725:729   */\n      0x20\n        /* \"#utility.yul\":720:723   */\n      dup4\n        /* \"#utility.yul\":716:730   */\n      add\n        /* \"#utility.yul\":709:730   */\n      swap3\n      pop\n        /* \"#utility.yul\":562:740   */\n      pop\n        /* \"#utility.yul\":549:550   */\n      0x01\n        /* \"#utility.yul\":546:547   */\n      dup2\n        /* \"#utility.yul\":542:551   */\n      add\n        /* \"#utility.yul\":537:551   */\n      swap1\n      pop\n        /* \"#utility.yul\":502:740   */\n      jump(tag_46)\n    tag_48:\n        /* \"#utility.yul\":506:520   */\n      pop\n        /* \"#utility.yul\":126:746   */\n      pop\n      pop\n        /* \"#utility.yul\":24:746   */\n      swap4\n      swap3\n      pop\n      pop\n      pop\n      jump\t// out\n        /* \"#utility.yul\":752:891   */\n    tag_51:\n        /* \"#utility.yul\":798:803   */\n      0x00\n        /* \"#utility.yul\":836:842   */\n      dup2\n        /* \"#utility.yul\":823:843   */\n      calldataload\n        /* \"#utility.yul\":814:843   */\n      swap1\n      pop\n        /* \"#utility.yul\":852:885   */\n      tag_53\n        /* \"#utility.yul\":879:884   */\n      dup2\n        /* \"#utility.yul\":852:885   */\n      tag_54\n      jump\t// in\n    tag_53:\n        /* \"#utility.yul\":752:891   */\n      swap3\n      swap2\n      pop\n      pop\n      jump\t// out\n        /* \"#utility.yul\":914:1284   */\n    tag_55:\n        /* \"#utility.yul\":985:990   */\n      0x00\n        /* \"#utility.yul\":1034:1037   */\n      dup3\n        /* \"#utility.yul\":1027:1031   */\n      0x1f\n        /* \"#utility.yul\":1019:1025   */\n      dup4\n        /* \"#utility.yul\":1015:1032   */\n      add\n        /* \"#utility.yul\":1011:1038   */\n      slt\n        /* \"#utility.yul\":1001:1123   */\n      tag_57\n      jumpi\n        /* \"#utility.yul\":1042:1121   */\n      tag_58\n      tag_59\n      jump\t// in\n    tag_58:\n        /* \"#utility.yul\":1001:1123   */\n    tag_57:\n        /* \"#utility.yul\":1159:1165   */\n      dup2\n        /* \"#utility.yul\":1146:1166   */\n      calldataload\n        /* \"#utility.yul\":1184:1278   */\n      tag_60\n        /* \"#utility.yul\":1274:1277   */\n      dup5\n        /* \"#utility.yul\":1266:1272   */\n      dup3\n        /* \"#utility.yul\":1259:1263   */\n      0x20\n        /* \"#utility.yul\":1251:1257   */\n      dup7\n        /* \"#utility.yul\":1247:1264   */\n      add\n        /* \"#utility.yul\":1184:1278   */\n      tag_37\n      jump\t// in\n    tag_60:\n        /* \"#utility.yul\":1175:1278   */\n      swap2\n      pop\n        /* \"#utility.yul\":991:1284   */\n      pop\n        /* \"#utility.yul\":914:1284   */\n      swap3\n      swap2\n      pop\n      pop\n      jump\t// out\n        /* \"#utility.yul\":1304:1857   */\n    tag_61:\n        /* \"#utility.yul\":1362:1370   */\n      0x00\n        /* \"#utility.yul\":1372:1378   */\n      dup1\n        /* \"#utility.yul\":1422:1425   */\n      dup4\n        /* \"#utility.yul\":1415:1419   */\n      0x1f\n        /* \"#utility.yul\":1407:1413   */\n      dup5\n        /* \"#utility.yul\":1403:1420   */\n      add\n        /* \"#utility.yul\":1399:1426   */\n      slt\n        /* \"#utility.yul\":1389:1511   */\n      tag_63\n      jumpi\n        /* \"#utility.yul\":1430:1509   */\n      tag_64\n      tag_59\n      jump\t// in\n    tag_64:\n        /* \"#utility.yul\":1389:1511   */\n    tag_63:\n        /* \"#utility.yul\":1543:1549   */\n      dup3\n        /* \"#utility.yul\":1530:1550   */\n      calldataload\n        /* \"#utility.yul\":1520:1550   */\n      swap1\n      pop\n        /* \"#utility.yul\":1573:1591   */\n      0xffffffffffffffff\n        /* \"#utility.yul\":1565:1571   */\n      dup2\n        /* \"#utility.yul\":1562:1592   */\n      gt\n        /* \"#utility.yul\":1559:1676   */\n      iszero\n      tag_65\n      jumpi\n        /* \"#utility.yul\":1595:1674   */\n      tag_66\n      tag_67\n      jump\t// in\n    tag_66:\n        /* \"#utility.yul\":1559:1676   */\n    tag_65:\n        /* \"#utility.yul\":1709:1713   */\n      0x20\n        /* \"#utility.yul\":1701:1707   */\n      dup4\n        /* \"#utility.yul\":1697:1714   */\n      add\n        /* \"#utility.yul\":1685:1714   */\n      swap2\n      pop\n        /* \"#utility.yul\":1763:1766   */\n      dup4\n        /* \"#utility.yul\":1755:1759   */\n      0x01\n        /* \"#utility.yul\":1747:1753   */\n      dup3\n        /* \"#utility.yul\":1743:1760   */\n      mul\n        /* \"#utility.yul\":1733:1741   */\n      dup4\n        /* \"#utility.yul\":1729:1761   */\n      add\n        /* \"#utility.yul\":1726:1767   */\n      gt\n        /* \"#utility.yul\":1723:1851   */\n      iszero\n      tag_68\n      jumpi\n        /* \"#utility.yul\":1770:1849   */\n      tag_69\n      tag_45\n      jump\t// in\n    tag_69:\n        /* \"#utility.yul\":1723:1851   */\n    tag_68:\n        /* \"#utility.yul\":1304:1857   */\n      swap3\n      pop\n      swap3\n      swap1\n      pop\n      jump\t// out\n        /* \"#utility.yul\":1863:2002   */\n    tag_50:\n        /* \"#utility.yul\":1909:1914   */\n      0x00\n        /* \"#utility.yul\":1947:1953   */\n      dup2\n        /* \"#utility.yul\":1934:1954   */\n      calldataload\n        /* \"#utility.yul\":1925:1954   */\n      swap1\n      pop\n        /* \"#utility.yul\":1963:1996   */\n      tag_71\n        /* \"#utility.yul\":1990:1995   */\n      dup2\n        /* \"#utility.yul\":1963:1996   */\n      tag_72\n      jump\t// in\n    tag_71:\n        /* \"#utility.yul\":1863:2002   */\n      swap3\n      swap2\n      pop\n      pop\n      jump\t// out\n        /* \"#utility.yul\":2008:2337   */\n    tag_7:\n        /* \"#utility.yul\":2067:2073   */\n      0x00\n        /* \"#utility.yul\":2116:2118   */\n      0x20\n        /* \"#utility.yul\":2104:2113   */\n      dup3\n        /* \"#utility.yul\":2095:2102   */\n      dup5\n        /* \"#utility.yul\":2091:2114   */\n      sub\n        /* \"#utility.yul\":2087:2119   */\n      slt\n        /* \"#utility.yul\":2084:2203   */\n      iszero\n      tag_74\n      jumpi\n        /* \"#utility.yul\":2122:2201   */\n      tag_75\n      tag_76\n      jump\t// in\n    tag_75:\n        /* \"#utility.yul\":2084:2203   */\n    tag_74:\n        /* \"#utility.yul\":2242:2243   */\n      0x00\n        /* \"#utility.yul\":2267:2320   */\n      tag_77\n        /* \"#utility.yul\":2312:2319   */\n      dup5\n        /* \"#utility.yul\":2303:2309   */\n      dup3\n        /* \"#utility.yul\":2292:2301   */\n      dup6\n        /* \"#utility.yul\":2288:2310   */\n      add\n        /* \"#utility.yul\":2267:2320   */\n      tag_51\n      jump\t// in\n    tag_77:\n        /* \"#utility.yul\":2257:2320   */\n      swap2\n      pop\n        /* \"#utility.yul\":2213:2330   */\n      pop\n        /* \"#utility.yul\":2008:2337   */\n      swap3\n      swap2\n      pop\n      pop\n      jump\t// out\n        /* \"#utility.yul\":2343:3227   */\n    tag_13:\n        /* \"#utility.yul\":2448:2454   */\n      0x00\n        /* \"#utility.yul\":2456:2462   */\n      dup1\n        /* \"#utility.yul\":2464:2470   */\n      0x00\n        /* \"#utility.yul\":2513:2515   */\n      0x40\n        /* \"#utility.yul\":2501:2510   */\n      dup5\n        /* \"#utility.yul\":2492:2499   */\n      dup7\n        /* \"#utility.yul\":2488:2511   */\n      sub\n        /* \"#utility.yul\":2484:2516   */\n      slt\n        /* \"#utility.yul\":2481:2600   */\n      iszero\n      tag_79\n      jumpi\n        /* \"#utility.yul\":2519:2598   */\n      tag_80\n      tag_76\n      jump\t// in\n    tag_80:\n        /* \"#utility.yul\":2481:2600   */\n    tag_79:\n        /* \"#utility.yul\":2667:2668   */\n      0x00\n        /* \"#utility.yul\":2656:2665   */\n      dup5\n        /* \"#utility.yul\":2652:2669   */\n      add\n        /* \"#utility.yul\":2639:2670   */\n      calldataload\n        /* \"#utility.yul\":2697:2715   */\n      0xffffffffffffffff\n        /* \"#utility.yul\":2689:2695   */\n      dup2\n        /* \"#utility.yul\":2686:2716   */\n      gt\n        /* \"#utility.yul\":2683:2800   */\n      iszero\n      tag_81\n      jumpi\n        /* \"#utility.yul\":2719:2798   */\n      tag_82\n      tag_83\n      jump\t// in\n    tag_82:\n        /* \"#utility.yul\":2683:2800   */\n    tag_81:\n        /* \"#utility.yul\":2824:2902   */\n      tag_84\n        /* \"#utility.yul\":2894:2901   */\n      dup7\n        /* \"#utility.yul\":2885:2891   */\n      dup3\n        /* \"#utility.yul\":2874:2883   */\n      dup8\n        /* \"#utility.yul\":2870:2892   */\n      add\n        /* \"#utility.yul\":2824:2902   */\n      tag_55\n      jump\t// in\n    tag_84:\n        /* \"#utility.yul\":2814:2902   */\n      swap4\n      pop\n        /* \"#utility.yul\":2610:2912   */\n      pop\n        /* \"#utility.yul\":2979:2981   */\n      0x20\n        /* \"#utility.yul\":2968:2977   */\n      dup5\n        /* \"#utility.yul\":2964:2982   */\n      add\n        /* \"#utility.yul\":2951:2983   */\n      calldataload\n        /* \"#utility.yul\":3010:3028   */\n      0xffffffffffffffff\n        /* \"#utility.yul\":3002:3008   */\n      dup2\n        /* \"#utility.yul\":2999:3029   */\n      gt\n        /* \"#utility.yul\":2996:3113   */\n      iszero\n      tag_85\n      jumpi\n        /* \"#utility.yul\":3032:3111   */\n      tag_86\n      tag_83\n      jump\t// in\n    tag_86:\n        /* \"#utility.yul\":2996:3113   */\n    tag_85:\n        /* \"#utility.yul\":3145:3210   */\n      tag_87\n        /* \"#utility.yul\":3202:3209   */\n      dup7\n        /* \"#utility.yul\":3193:3199   */\n      dup3\n        /* \"#utility.yul\":3182:3191   */\n      dup8\n        /* \"#utility.yul\":3178:3200   */\n      add\n        /* \"#utility.yul\":3145:3210   */\n      tag_61\n      jump\t// in\n    tag_87:\n        /* \"#utility.yul\":3127:3210   */\n      swap3\n      pop\n      swap3\n      pop\n        /* \"#utility.yul\":2922:3220   */\n      pop\n        /* \"#utility.yul\":2343:3227   */\n      swap3\n      pop\n      swap3\n      pop\n      swap3\n      jump\t// out\n        /* \"#utility.yul\":3233:3412   */\n    tag_88:\n        /* \"#utility.yul\":3302:3312   */\n      0x00\n        /* \"#utility.yul\":3323:3369   */\n      tag_90\n        /* \"#utility.yul\":3365:3368   */\n      dup4\n        /* \"#utility.yul\":3357:3363   */\n      dup4\n        /* \"#utility.yul\":3323:3369   */\n      tag_91\n      jump\t// in\n    tag_90:\n        /* \"#utility.yul\":3401:3405   */\n      0x20\n        /* \"#utility.yul\":3396:3399   */\n      dup4\n        /* \"#utility.yul\":3392:3406   */\n      add\n        /* \"#utility.yul\":3378:3406   */\n      swap1\n      pop\n        /* \"#utility.yul\":3233:3412   */\n      swap3\n      swap2\n      pop\n      pop\n      jump\t// out\n        /* \"#utility.yul\":3448:4180   */\n    tag_92:\n        /* \"#utility.yul\":3567:3570   */\n      0x00\n        /* \"#utility.yul\":3596:3650   */\n      tag_94\n        /* \"#utility.yul\":3644:3649   */\n      dup3\n        /* \"#utility.yul\":3596:3650   */\n      tag_95\n      jump\t// in\n    tag_94:\n        /* \"#utility.yul\":3666:3752   */\n      tag_96\n        /* \"#utility.yul\":3745:3751   */\n      dup2\n        /* \"#utility.yul\":3740:3743   */\n      dup6\n        /* \"#utility.yul\":3666:3752   */\n      tag_97\n      jump\t// in\n    tag_96:\n        /* \"#utility.yul\":3659:3752   */\n      swap4\n      pop\n        /* \"#utility.yul\":3776:3832   */\n      tag_98\n        /* \"#utility.yul\":3826:3831   */\n      dup4\n        /* \"#utility.yul\":3776:3832   */\n      tag_99\n      jump\t// in\n    tag_98:\n        /* \"#utility.yul\":3855:3862   */\n      dup1\n        /* \"#utility.yul\":3886:3887   */\n      0x00\n        /* \"#utility.yul\":3871:4155   */\n    tag_100:\n        /* \"#utility.yul\":3896:3902   */\n      dup4\n        /* \"#utility.yul\":3893:3894   */\n      dup2\n        /* \"#utility.yul\":3890:3903   */\n      lt\n        /* \"#utility.yul\":3871:4155   */\n      iszero\n      tag_102\n      jumpi\n        /* \"#utility.yul\":3972:3978   */\n      dup2\n        /* \"#utility.yul\":3966:3979   */\n      mload\n        /* \"#utility.yul\":3999:4062   */\n      tag_103\n        /* \"#utility.yul\":4058:4061   */\n      dup9\n        /* \"#utility.yul\":4043:4056   */\n      dup3\n        /* \"#utility.yul\":3999:4062   */\n      tag_88\n      jump\t// in\n    tag_103:\n        /* \"#utility.yul\":3992:4062   */\n      swap8\n      pop\n        /* \"#utility.yul\":4085:4145   */\n      tag_104\n        /* \"#utility.yul\":4138:4144   */\n      dup4\n        /* \"#utility.yul\":4085:4145   */\n      tag_105\n      jump\t// in\n    tag_104:\n        /* \"#utility.yul\":4075:4145   */\n      swap3\n      pop\n        /* \"#utility.yul\":3931:4155   */\n      pop\n        /* \"#utility.yul\":3918:3919   */\n      0x01\n        /* \"#utility.yul\":3915:3916   */\n      dup2\n        /* \"#utility.yul\":3911:3920   */\n      add\n        /* \"#utility.yul\":3906:3920   */\n      swap1\n      pop\n        /* \"#utility.yul\":3871:4155   */\n      jump(tag_100)\n    tag_102:\n        /* \"#utility.yul\":3875:3889   */\n      pop\n        /* \"#utility.yul\":4171:4174   */\n      dup6\n        /* \"#utility.yul\":4164:4174   */\n      swap4\n      pop\n        /* \"#utility.yul\":3572:4180   */\n      pop\n      pop\n      pop\n        /* \"#utility.yul\":3448:4180   */\n      swap3\n      swap2\n      pop\n      pop\n      jump\t// out\n        /* \"#utility.yul\":4186:4550   */\n    tag_106:\n        /* \"#utility.yul\":4274:4277   */\n      0x00\n        /* \"#utility.yul\":4302:4341   */\n      tag_108\n        /* \"#utility.yul\":4335:4340   */\n      dup3\n        /* \"#utility.yul\":4302:4341   */\n      tag_109\n      jump\t// in\n    tag_108:\n        /* \"#utility.yul\":4357:4428   */\n      tag_110\n        /* \"#utility.yul\":4421:4427   */\n      dup2\n        /* \"#utility.yul\":4416:4419   */\n      dup6\n        /* \"#utility.yul\":4357:4428   */\n      tag_111\n      jump\t// in\n    tag_110:\n        /* \"#utility.yul\":4350:4428   */\n      swap4\n      pop\n        /* \"#utility.yul\":4437:4489   */\n      tag_112\n        /* \"#utility.yul\":4482:4488   */\n      dup2\n        /* \"#utility.yul\":4477:4480   */\n      dup6\n        /* \"#utility.yul\":4470:4474   */\n      0x20\n        /* \"#utility.yul\":4463:4468   */\n      dup7\n        /* \"#utility.yul\":4459:4475   */\n      add\n        /* \"#utility.yul\":4437:4489   */\n      tag_113\n      jump\t// in\n    tag_112:\n        /* \"#utility.yul\":4514:4543   */\n      tag_114\n        /* \"#utility.yul\":4536:4542   */\n      dup2\n        /* \"#utility.yul\":4514:4543   */\n      tag_115\n      jump\t// in\n    tag_114:\n        /* \"#utility.yul\":4509:4512   */\n      dup5\n        /* \"#utility.yul\":4505:4544   */\n      add\n        /* \"#utility.yul\":4498:4544   */\n      swap2\n      pop\n        /* \"#utility.yul\":4278:4550   */\n      pop\n        /* \"#utility.yul\":4186:4550   */\n      swap3\n      swap2\n      pop\n      pop\n      jump\t// out\n        /* \"#utility.yul\":4556:4664   */\n    tag_91:\n        /* \"#utility.yul\":4633:4657   */\n      tag_117\n        /* \"#utility.yul\":4651:4656   */\n      dup2\n        /* \"#utility.yul\":4633:4657   */\n      tag_118\n      jump\t// in\n    tag_117:\n        /* \"#utility.yul\":4628:4631   */\n      dup3\n        /* \"#utility.yul\":4621:4658   */\n      mstore\n        /* \"#utility.yul\":4556:4664   */\n      pop\n      pop\n      jump\t// out\n        /* \"#utility.yul\":4670:4788   */\n    tag_119:\n        /* \"#utility.yul\":4757:4781   */\n      tag_121\n        /* \"#utility.yul\":4775:4780   */\n      dup2\n        /* \"#utility.yul\":4757:4781   */\n      tag_118\n      jump\t// in\n    tag_121:\n        /* \"#utility.yul\":4752:4755   */\n      dup3\n        /* \"#utility.yul\":4745:4782   */\n      mstore\n        /* \"#utility.yul\":4670:4788   */\n      pop\n      pop\n      jump\t// out\n        /* \"#utility.yul\":4794:5167   */\n    tag_16:\n        /* \"#utility.yul\":4937:4941   */\n      0x00\n        /* \"#utility.yul\":4975:4977   */\n      0x20\n        /* \"#utility.yul\":4964:4973   */\n      dup3\n        /* \"#utility.yul\":4960:4978   */\n      add\n        /* \"#utility.yul\":4952:4978   */\n      swap1\n      pop\n        /* \"#utility.yul\":5024:5033   */\n      dup2\n        /* \"#utility.yul\":5018:5022   */\n      dup2\n        /* \"#utility.yul\":5014:5034   */\n      sub\n        /* \"#utility.yul\":5010:5011   */\n      0x00\n        /* \"#utility.yul\":4999:5008   */\n      dup4\n        /* \"#utility.yul\":4995:5012   */\n      add\n        /* \"#utility.yul\":4988:5035   */\n      mstore\n        /* \"#utility.yul\":5052:5160   */\n      tag_123\n        /* \"#utility.yul\":5155:5159   */\n      dup2\n        /* \"#utility.yul\":5146:5152   */\n      dup5\n        /* \"#utility.yul\":5052:5160   */\n      tag_92\n      jump\t// in\n    tag_123:\n        /* \"#utility.yul\":5044:5160   */\n      swap1\n      pop\n        /* \"#utility.yul\":4794:5167   */\n      swap3\n      swap2\n      pop\n      pop\n      jump\t// out\n        /* \"#utility.yul\":5173:5596   */\n    tag_10:\n        /* \"#utility.yul\":5314:5318   */\n      0x00\n        /* \"#utility.yul\":5352:5354   */\n      0x40\n        /* \"#utility.yul\":5341:5350   */\n      dup3\n        /* \"#utility.yul\":5337:5355   */\n      add\n        /* \"#utility.yul\":5329:5355   */\n      swap1\n      pop\n        /* \"#utility.yul\":5365:5436   */\n      tag_125\n        /* \"#utility.yul\":5433:5434   */\n      0x00\n        /* \"#utility.yul\":5422:5431   */\n      dup4\n        /* \"#utility.yul\":5418:5435   */\n      add\n        /* \"#utility.yul\":5409:5415   */\n      dup6\n        /* \"#utility.yul\":5365:5436   */\n      tag_119\n      jump\t// in\n    tag_125:\n        /* \"#utility.yul\":5483:5492   */\n      dup2\n        /* \"#utility.yul\":5477:5481   */\n      dup2\n        /* \"#utility.yul\":5473:5493   */\n      sub\n        /* \"#utility.yul\":5468:5470   */\n      0x20\n        /* \"#utility.yul\":5457:5466   */\n      dup4\n        /* \"#utility.yul\":5453:5471   */\n      add\n        /* \"#utility.yul\":5446:5494   */\n      mstore\n        /* \"#utility.yul\":5511:5589   */\n      tag_126\n        /* \"#utility.yul\":5584:5588   */\n      dup2\n        /* \"#utility.yul\":5575:5581   */\n      dup5\n        /* \"#utility.yul\":5511:5589   */\n      tag_106\n      jump\t// in\n    tag_126:\n        /* \"#utility.yul\":5503:5589   */\n      swap1\n      pop\n        /* \"#utility.yul\":5173:5596   */\n      swap4\n      swap3\n      pop\n      pop\n      pop\n      jump\t// out\n        /* \"#utility.yul\":5602:5731   */\n    tag_42:\n        /* \"#utility.yul\":5636:5642   */\n      0x00\n        /* \"#utility.yul\":5663:5683   */\n      tag_128\n      tag_129\n      jump\t// in\n    tag_128:\n        /* \"#utility.yul\":5653:5683   */\n      swap1\n      pop\n        /* \"#utility.yul\":5692:5725   */\n      tag_130\n        /* \"#utility.yul\":5720:5724   */\n      dup3\n        /* \"#utility.yul\":5712:5718   */\n      dup3\n        /* \"#utility.yul\":5692:5725   */\n      tag_131\n      jump\t// in\n    tag_130:\n        /* \"#utility.yul\":5602:5731   */\n      swap2\n      swap1\n      pop\n      jump\t// out\n        /* \"#utility.yul\":5737:5812   */\n    tag_129:\n        /* \"#utility.yul\":5770:5776   */\n      0x00\n        /* \"#utility.yul\":5803:5805   */\n      0x40\n        /* \"#utility.yul\":5797:5806   */\n      mload\n        /* \"#utility.yul\":5787:5806   */\n      swap1\n      pop\n        /* \"#utility.yul\":5737:5812   */\n      swap1\n      jump\t// out\n        /* \"#utility.yul\":5818:6129   */\n    tag_41:\n        /* \"#utility.yul\":5895:5899   */\n      0x00\n        /* \"#utility.yul\":5985:6003   */\n      0xffffffffffffffff\n        /* \"#utility.yul\":5977:5983   */\n      dup3\n        /* \"#utility.yul\":5974:6004   */\n      gt\n        /* \"#utility.yul\":5971:6027   */\n      iszero\n      tag_134\n      jumpi\n        /* \"#utility.yul\":6007:6025   */\n      tag_135\n      tag_136\n      jump\t// in\n    tag_135:\n        /* \"#utility.yul\":5971:6027   */\n    tag_134:\n        /* \"#utility.yul\":6057:6061   */\n      0x20\n        /* \"#utility.yul\":6049:6055   */\n      dup3\n        /* \"#utility.yul\":6045:6062   */\n      mul\n        /* \"#utility.yul\":6037:6062   */\n      swap1\n      pop\n        /* \"#utility.yul\":6117:6121   */\n      0x20\n        /* \"#utility.yul\":6111:6115   */\n      dup2\n        /* \"#utility.yul\":6107:6122   */\n      add\n        /* \"#utility.yul\":6099:6122   */\n      swap1\n      pop\n        /* \"#utility.yul\":5818:6129   */\n      swap2\n      swap1\n      pop\n      jump\t// out\n        /* \"#utility.yul\":6135:6267   */\n    tag_99:\n        /* \"#utility.yul\":6202:6206   */\n      0x00\n        /* \"#utility.yul\":6225:6228   */\n      dup2\n        /* \"#utility.yul\":6217:6228   */\n      swap1\n      pop\n        /* \"#utility.yul\":6255:6259   */\n      0x20\n        /* \"#utility.yul\":6250:6253   */\n      dup3\n        /* \"#utility.yul\":6246:6260   */\n      add\n        /* \"#utility.yul\":6238:6260   */\n      swap1\n      pop\n        /* \"#utility.yul\":6135:6267   */\n      swap2\n      swap1\n      pop\n      jump\t// out\n        /* \"#utility.yul\":6273:6387   */\n    tag_95:\n        /* \"#utility.yul\":6340:6346   */\n      0x00\n        /* \"#utility.yul\":6374:6379   */\n      dup2\n        /* \"#utility.yul\":6368:6380   */\n      mload\n        /* \"#utility.yul\":6358:6380   */\n      swap1\n      pop\n        /* \"#utility.yul\":6273:6387   */\n      swap2\n      swap1\n      pop\n      jump\t// out\n        /* \"#utility.yul\":6393:6492   */\n    tag_109:\n        /* \"#utility.yul\":6445:6451   */\n      0x00\n        /* \"#utility.yul\":6479:6484   */\n      dup2\n        /* \"#utility.yul\":6473:6485   */\n      mload\n        /* \"#utility.yul\":6463:6485   */\n      swap1\n      pop\n        /* \"#utility.yul\":6393:6492   */\n      swap2\n      swap1\n      pop\n      jump\t// out\n        /* \"#utility.yul\":6498:6611   */\n    tag_105:\n        /* \"#utility.yul\":6568:6572   */\n      0x00\n        /* \"#utility.yul\":6600:6604   */\n      0x20\n        /* \"#utility.yul\":6595:6598   */\n      dup3\n        /* \"#utility.yul\":6591:6605   */\n      add\n        /* \"#utility.yul\":6583:6605   */\n      swap1\n      pop\n        /* \"#utility.yul\":6498:6611   */\n      swap2\n      swap1\n      pop\n      jump\t// out\n        /* \"#utility.yul\":6617:6801   */\n    tag_97:\n        /* \"#utility.yul\":6716:6727   */\n      0x00\n        /* \"#utility.yul\":6750:6756   */\n      dup3\n        /* \"#utility.yul\":6745:6748   */\n      dup3\n        /* \"#utility.yul\":6738:6757   */\n      mstore\n        /* \"#utility.yul\":6790:6794   */\n      0x20\n        /* \"#utility.yul\":6785:6788   */\n      dup3\n        /* \"#utility.yul\":6781:6795   */\n      add\n        /* \"#utility.yul\":6766:6795   */\n      swap1\n      pop\n        /* \"#utility.yul\":6617:6801   */\n      swap3\n      swap2\n      pop\n      pop\n      jump\t// out\n        /* \"#utility.yul\":6807:6976   */\n    tag_111:\n        /* \"#utility.yul\":6891:6902   */\n      0x00\n        /* \"#utility.yul\":6925:6931   */\n      dup3\n        /* \"#utility.yul\":6920:6923   */\n      dup3\n        /* \"#utility.yul\":6913:6932   */\n      mstore\n        /* \"#utility.yul\":6965:6969   */\n      0x20\n        /* \"#utility.yul\":6960:6963   */\n      dup3\n        /* \"#utility.yul\":6956:6970   */\n      add\n        /* \"#utility.yul\":6941:6970   */\n      swap1\n      pop\n        /* \"#utility.yul\":6807:6976   */\n      swap3\n      swap2\n      pop\n      pop\n      jump\t// out\n        /* \"#utility.yul\":6982:7078   */\n    tag_143:\n        /* \"#utility.yul\":7019:7026   */\n      0x00\n        /* \"#utility.yul\":7048:7072   */\n      tag_145\n        /* \"#utility.yul\":7066:7071   */\n      dup3\n        /* \"#utility.yul\":7048:7072   */\n      tag_146\n      jump\t// in\n    tag_145:\n        /* \"#utility.yul\":7037:7072   */\n      swap1\n      pop\n        /* \"#utility.yul\":6982:7078   */\n      swap2\n      swap1\n      pop\n      jump\t// out\n        /* \"#utility.yul\":7084:7210   */\n    tag_146:\n        /* \"#utility.yul\":7121:7128   */\n      0x00\n        /* \"#utility.yul\":7161:7203   */\n      0xffffffffffffffffffffffffffffffffffffffff\n        /* \"#utility.yul\":7154:7159   */\n      dup3\n        /* \"#utility.yul\":7150:7204   */\n      and\n        /* \"#utility.yul\":7139:7204   */\n      swap1\n      pop\n        /* \"#utility.yul\":7084:7210   */\n      swap2\n      swap1\n      pop\n      jump\t// out\n        /* \"#utility.yul\":7216:7293   */\n    tag_118:\n        /* \"#utility.yul\":7253:7260   */\n      0x00\n        /* \"#utility.yul\":7282:7287   */\n      dup2\n        /* \"#utility.yul\":7271:7287   */\n      swap1\n      pop\n        /* \"#utility.yul\":7216:7293   */\n      swap2\n      swap1\n      pop\n      jump\t// out\n        /* \"#utility.yul\":7299:7606   */\n    tag_113:\n        /* \"#utility.yul\":7367:7368   */\n      0x00\n        /* \"#utility.yul\":7377:7490   */\n    tag_150:\n        /* \"#utility.yul\":7391:7397   */\n      dup4\n        /* \"#utility.yul\":7388:7389   */\n      dup2\n        /* \"#utility.yul\":7385:7398   */\n      lt\n        /* \"#utility.yul\":7377:7490   */\n      iszero\n      tag_152\n      jumpi\n        /* \"#utility.yul\":7476:7477   */\n      dup1\n        /* \"#utility.yul\":7471:7474   */\n      dup3\n        /* \"#utility.yul\":7467:7478   */\n      add\n        /* \"#utility.yul\":7461:7479   */\n      mload\n        /* \"#utility.yul\":7457:7458   */\n      dup2\n        /* \"#utility.yul\":7452:7455   */\n      dup5\n        /* \"#utility.yul\":7448:7459   */\n      add\n        /* \"#utility.yul\":7441:7480   */\n      mstore\n        /* \"#utility.yul\":7413:7415   */\n      0x20\n        /* \"#utility.yul\":7410:7411   */\n      dup2\n        /* \"#utility.yul\":7406:7416   */\n      add\n        /* \"#utility.yul\":7401:7416   */\n      swap1\n      pop\n        /* \"#utility.yul\":7377:7490   */\n      jump(tag_150)\n    tag_152:\n        /* \"#utility.yul\":7508:7514   */\n      dup4\n        /* \"#utility.yul\":7505:7506   */\n      dup2\n        /* \"#utility.yul\":7502:7515   */\n      gt\n        /* \"#utility.yul\":7499:7600   */\n      iszero\n      tag_153\n      jumpi\n        /* \"#utility.yul\":7588:7589   */\n      0x00\n        /* \"#utility.yul\":7579:7585   */\n      dup5\n        /* \"#utility.yul\":7574:7577   */\n      dup5\n        /* \"#utility.yul\":7570:7586   */\n      add\n        /* \"#utility.yul\":7563:7590   */\n      mstore\n        /* \"#utility.yul\":7499:7600   */\n    tag_153:\n        /* \"#utility.yul\":7348:7606   */\n      pop\n        /* \"#utility.yul\":7299:7606   */\n      pop\n      pop\n      pop\n      jump\t// out\n        /* \"#utility.yul\":7612:7932   */\n    tag_18:\n        /* \"#utility.yul\":7656:7662   */\n      0x00\n        /* \"#utility.yul\":7693:7694   */\n      0x02\n        /* \"#utility.yul\":7687:7691   */\n      dup3\n        /* \"#utility.yul\":7683:7695   */\n      div\n        /* \"#utility.yul\":7673:7695   */\n      swap1\n      pop\n        /* \"#utility.yul\":7740:7741   */\n      0x01\n        /* \"#utility.yul\":7734:7738   */\n      dup3\n        /* \"#utility.yul\":7730:7742   */\n      and\n        /* \"#utility.yul\":7761:7779   */\n      dup1\n        /* \"#utility.yul\":7751:7832   */\n      tag_155\n      jumpi\n        /* \"#utility.yul\":7817:7821   */\n      0x7f\n        /* \"#utility.yul\":7809:7815   */\n      dup3\n        /* \"#utility.yul\":7805:7822   */\n      and\n        /* \"#utility.yul\":7795:7822   */\n      swap2\n      pop\n        /* \"#utility.yul\":7751:7832   */\n    tag_155:\n        /* \"#utility.yul\":7879:7881   */\n      0x20\n        /* \"#utility.yul\":7871:7877   */\n      dup3\n        /* \"#utility.yul\":7868:7882   */\n      lt\n        /* \"#utility.yul\":7848:7866   */\n      dup2\n        /* \"#utility.yul\":7845:7883   */\n      eq\n        /* \"#utility.yul\":7842:7926   */\n      iszero\n      tag_156\n      jumpi\n        /* \"#utility.yul\":7898:7916   */\n      tag_157\n      tag_158\n      jump\t// in\n    tag_157:\n        /* \"#utility.yul\":7842:7926   */\n    tag_156:\n        /* \"#utility.yul\":7663:7932   */\n      pop\n        /* \"#utility.yul\":7612:7932   */\n      swap2\n      swap1\n      pop\n      jump\t// out\n        /* \"#utility.yul\":7938:8219   */\n    tag_131:\n        /* \"#utility.yul\":8021:8048   */\n      tag_160\n        /* \"#utility.yul\":8043:8047   */\n      dup3\n        /* \"#utility.yul\":8021:8048   */\n      tag_115\n      jump\t// in\n    tag_160:\n        /* \"#utility.yul\":8013:8019   */\n      dup2\n        /* \"#utility.yul\":8009:8049   */\n      add\n        /* \"#utility.yul\":8151:8157   */\n      dup2\n        /* \"#utility.yul\":8139:8149   */\n      dup2\n        /* \"#utility.yul\":8136:8158   */\n      lt\n        /* \"#utility.yul\":8115:8133   */\n      0xffffffffffffffff\n        /* \"#utility.yul\":8103:8113   */\n      dup3\n        /* \"#utility.yul\":8100:8134   */\n      gt\n        /* \"#utility.yul\":8097:8159   */\n      or\n        /* \"#utility.yul\":8094:8182   */\n      iszero\n      tag_161\n      jumpi\n        /* \"#utility.yul\":8162:8180   */\n      tag_162\n      tag_136\n      jump\t// in\n    tag_162:\n        /* \"#utility.yul\":8094:8182   */\n    tag_161:\n        /* \"#utility.yul\":8202:8212   */\n      dup1\n        /* \"#utility.yul\":8198:8200   */\n      0x40\n        /* \"#utility.yul\":8191:8213   */\n      mstore\n        /* \"#utility.yul\":7981:8219   */\n      pop\n        /* \"#utility.yul\":7938:8219   */\n      pop\n      pop\n      jump\t// out\n        /* \"#utility.yul\":8225:8405   */\n    tag_158:\n        /* \"#utility.yul\":8273:8350   */\n      0x4e487b7100000000000000000000000000000000000000000000000000000000\n        /* \"#utility.yul\":8270:8271   */\n      0x00\n        /* \"#utility.yul\":8263:8351   */\n      mstore\n        /* \"#utility.yul\":8370:8374   */\n      0x22\n        /* \"#utility.yul\":8367:8368   */\n      0x04\n        /* \"#utility.yul\":8360:8375   */\n      mstore\n        /* \"#utility.yul\":8394:8398   */\n      0x24\n        /* \"#utility.yul\":8391:8392   */\n      0x00\n        /* \"#utility.yul\":8384:8399   */\n      revert\n        /* \"#utility.yul\":8411:8591   */\n    tag_136:\n        /* \"#utility.yul\":8459:8536   */\n      0x4e487b7100000000000000000000000000000000000000000000000000000000\n        /* \"#utility.yul\":8456:8457   */\n      0x00\n        /* \"#utility.yul\":8449:8537   */\n      mstore\n        /* \"#utility.yul\":8556:8560   */\n      0x41\n        /* \"#utility.yul\":8553:8554   */\n      0x04\n        /* \"#utility.yul\":8546:8561   */\n      mstore\n        /* \"#utility.yul\":8580:8584   */\n      0x24\n        /* \"#utility.yul\":8577:8578   */\n      0x00\n        /* \"#utility.yul\":8570:8585   */\n      revert\n        /* \"#utility.yul\":8597:8714   */\n    tag_67:\n        /* \"#utility.yul\":8706:8707   */\n      0x00\n        /* \"#utility.yul\":8703:8704   */\n      dup1\n        /* \"#utility.yul\":8696:8708   */\n      revert\n        /* \"#utility.yul\":8720:8837   */\n    tag_59:\n        /* \"#utility.yul\":8829:8830   */\n      0x00\n        /* \"#utility.yul\":8826:8827   */\n      dup1\n        /* \"#utility.yul\":8819:8831   */\n      revert\n        /* \"#utility.yul\":8843:8960   */\n    tag_45:\n        /* \"#utility.yul\":8952:8953   */\n      0x00\n        /* \"#utility.yul\":8949:8950   */\n      dup1\n        /* \"#utility.yul\":8942:8954   */\n      revert\n        /* \"#utility.yul\":8966:9083   */\n    tag_83:\n        /* \"#utility.yul\":9075:9076   */\n      0x00\n        /* \"#utility.yul\":9072:9073   */\n      dup1\n        /* \"#utility.yul\":9065:9077   */\n      revert\n        /* \"#utility.yul\":9089:9206   */\n    tag_76:\n        /* \"#utility.yul\":9198:9199   */\n      0x00\n        /* \"#utility.yul\":9195:9196   */\n      dup1\n        /* \"#utility.yul\":9188:9200   */\n      revert\n        /* \"#utility.yul\":9212:9314   */\n    tag_115:\n        /* \"#utility.yul\":9253:9259   */\n      0x00\n        /* \"#utility.yul\":9304:9306   */\n      0x1f\n        /* \"#utility.yul\":9300:9307   */\n      not\n        /* \"#utility.yul\":9295:9297   */\n      0x1f\n        /* \"#utility.yul\":9288:9293   */\n      dup4\n        /* \"#utility.yul\":9284:9298   */\n      add\n        /* \"#utility.yul\":9280:9308   */\n      and\n        /* \"#utility.yul\":9270:9308   */\n      swap1\n      pop\n        /* \"#utility.yul\":9212:9314   */\n      swap2\n      swap1\n      pop\n      jump\t// out\n        /* \"#utility.yul\":9320:9442   */\n    tag_54:\n        /* \"#utility.yul\":9393:9417   */\n      tag_172\n        /* \"#utility.yul\":9411:9416   */\n      dup2\n        /* \"#utility.yul\":9393:9417   */\n      tag_143\n      jump\t// in\n    tag_172:\n        /* \"#utility.yul\":9386:9391   */\n      dup2\n        /* \"#utility.yul\":9383:9418   */\n      eq\n        /* \"#utility.yul\":9373:9436   */\n      tag_173\n      jumpi\n        /* \"#utility.yul\":9432:9433   */\n      0x00\n        /* \"#utility.yul\":9429:9430   */\n      dup1\n        /* \"#utility.yul\":9422:9434   */\n      revert\n        /* \"#utility.yul\":9373:9436   */\n    tag_173:\n        /* \"#utility.yul\":9320:9442   */\n      pop\n      jump\t// out\n        /* \"#utility.yul\":9448:9570   */\n    tag_72:\n        /* \"#utility.yul\":9521:9545   */\n      tag_175\n        /* \"#utility.yul\":9539:9544   */\n      dup2\n        /* \"#utility.yul\":9521:9545   */\n      tag_118\n      jump\t// in\n    tag_175:\n        /* \"#utility.yul\":9514:9519   */\n      dup2\n        /* \"#utility.yul\":9511:9546   */\n      eq\n        /* \"#utility.yul\":9501:9564   */\n      tag_176\n      jumpi\n        /* \"#utility.yul\":9560:9561   */\n      0x00\n        /* \"#utility.yul\":9557:9558   */\n      dup1\n        /* \"#utility.yul\":9550:9562   */\n      revert\n        /* \"#utility.yul\":9501:9564   */\n    tag_176:\n        /* \"#utility.yul\":9448:9570   */\n      pop\n      jump\t// out\n\n    auxdata: 0xa2646970667358221220a6ecce17fe150763e81d0a0f5f2961d8366a255b72cadf15bee16bd0297d5c2764736f6c63430008070033\n}\n",
				"bytecode": {
					"linkReferences": {},
					"object": "608060405234801561001057600080fd5b506107f1806100206000396000f3fe608060405234801561001057600080fd5b50600436106100365760003560e01c8063b43c5d331461003b578063fc277a951461006c575b600080fd5b610055600480360381019061005091906103c5565b61009c565b60405161006392919061055d565b60405180910390f35b610086600480360381019061008191906103f2565b610148565b604051610093919061053b565b60405180910390f35b60006020528060005260406000206000915090508060000154908060010180546100c5906106a2565b80601f01602080910402602001604051908101604052809291908181526020018280546100f1906106a2565b801561013e5780601f106101135761010080835404028352916020019161013e565b820191906000526020600020905b81548152906001019060200180831161012157829003601f168201915b5050505050905082565b60606040518060400160405280607b81526020016040518060400160405280600381526020017f62617200000000000000000000000000000000000000000000000000000000008152508152506000803373ffffffffffffffffffffffffffffffffffffffff1673ffffffffffffffffffffffffffffffffffffffff1681526020019081526020016000206000820151816000015560208201518160010190805190602001906101f9929190610204565b509050509392505050565b828054610210906106a2565b90600052602060002090601f0160209004810192826102325760008555610279565b82601f1061024b57805160ff1916838001178555610279565b82800160010185558215610279579182015b8281111561027857825182559160200191906001019061025d565b5b509050610286919061028a565b5090565b5b808211156102a357600081600090555060010161028b565b5090565b60006102ba6102b5846105b2565b61058d565b905080838252602082019050828560208602820111156102dd576102dc61076d565b5b60005b8581101561030d57816102f388826103b0565b8452602084019350602083019250506001810190506102e0565b5050509392505050565b6000813590506103268161078d565b92915050565b600082601f83011261034157610340610768565b5b81356103518482602086016102a7565b91505092915050565b60008083601f8401126103705761036f610768565b5b8235905067ffffffffffffffff81111561038d5761038c610763565b5b6020830191508360018202830111156103a9576103a861076d565b5b9250929050565b6000813590506103bf816107a4565b92915050565b6000602082840312156103db576103da610777565b5b60006103e984828501610317565b91505092915050565b60008060006040848603121561040b5761040a610777565b5b600084013567ffffffffffffffff81111561042957610428610772565b5b6104358682870161032c565b935050602084013567ffffffffffffffff81111561045657610455610772565b5b6104628682870161035a565b92509250509250925092565b600061047a838361051d565b60208301905092915050565b6000610491826105ee565b61049b8185610611565b93506104a6836105de565b8060005b838110156104d75781516104be888261046e565b97506104c983610604565b9250506001810190506104aa565b5085935050505092915050565b60006104ef826105f9565b6104f98185610622565b935061050981856020860161066f565b6105128161077c565b840191505092915050565b61052681610665565b82525050565b61053581610665565b82525050565b600060208201905081810360008301526105558184610486565b905092915050565b6000604082019050610572600083018561052c565b818103602083015261058481846104e4565b90509392505050565b60006105976105a8565b90506105a382826106d4565b919050565b6000604051905090565b600067ffffffffffffffff8211156105cd576105cc610734565b5b602082029050602081019050919050565b6000819050602082019050919050565b600081519050919050565b600081519050919050565b6000602082019050919050565b600082825260208201905092915050565b600082825260208201905092915050565b600061063e82610645565b9050919050565b600073ffffffffffffffffffffffffffffffffffffffff82169050919050565b6000819050919050565b60005b8381101561068d578082015181840152602081019050610672565b8381111561069c576000848401525b50505050565b600060028204905060018216806106ba57607f821691505b602082108114156106ce576106cd610705565b5b50919050565b6106dd8261077c565b810181811067ffffffffffffffff821117156106fc576106fb610734565b5b80604052505050565b7f4e487b7100000000000000000000000000000000000000000000000000000000600052602260045260246000fd5b7f4e487b7100000000000000000000000000000000000000000000000000000000600052604160045260246000fd5b600080fd5b600080fd5b600080fd5b600080fd5b600080fd5b6000601f19601f8301169050919050565b61079681610633565b81146107a157600080fd5b50565b6107ad81610665565b81146107b857600080fd5b5056fea2646970667358221220a6ecce17fe150763e81d0a0f5f2961d8366a255b72cadf15bee16bd0297d5c2764736f6c63430008070033",
					"opcodes": "PUSH1 0x80 PUSH1 0x40 MSTORE CALLVALUE DUP1 ISZERO PUSH2 0x10 JUMPI PUSH1 0x0 DUP1 REVERT JUMPDEST POP PUSH2 0x7F1 DUP1 PUSH2 0x20 PUSH1 0x0 CODECOPY PUSH1 0x0 RETURN INVALID PUSH1 0x80 PUSH1 0x40 MSTORE CALLVALUE DUP1 ISZERO PUSH2 0x10 JUMPI PUSH1 0x0 DUP1 REVERT JUMPDEST POP PUSH1 0x4 CALLDATASIZE LT PUSH2 0x36 JUMPI PUSH1 0x0 CALLDATALOAD PUSH1 0xE0 SHR DUP1 PUSH4 0xB43C5D33 EQ PUSH2 0x3B JUMPI DUP1 PUSH4 0xFC277A95 EQ PUSH2 0x6C JUMPI JUMPDEST PUSH1 0x0 DUP1 REVERT JUMPDEST PUSH2 0x55 PUSH1 0x4 DUP1 CALLDATASIZE SUB DUP2 ADD SWAP1 PUSH2 0x50 SWAP2 SWAP1 PUSH2 0x3C5 JUMP JUMPDEST PUSH2 0x9C JUMP JUMPDEST PUSH1 0x40 MLOAD PUSH2 0x63 SWAP3 SWAP2 SWAP1 PUSH2 0x55D JUMP JUMPDEST PUSH1 0x40 MLOAD DUP1 SWAP2 SUB SWAP1 RETURN JUMPDEST PUSH2 0x86 PUSH1 0x4 DUP1 CALLDATASIZE SUB DUP2 ADD SWAP1 PUSH2 0x81 SWAP2 SWAP1 PUSH2 0x3F2 JUMP JUMPDEST PUSH2 0x148 JUMP JUMPDEST PUSH1 0x40 MLOAD PUSH2 0x93 SWAP2 SWAP1 PUSH2 0x53B JUMP JUMPDEST PUSH1 0x40 MLOAD DUP1 SWAP2 SUB SWAP1 RETURN JUMPDEST PUSH1 0x0 PUSH1 0x20 MSTORE DUP1 PUSH1 0x0 MSTORE PUSH1 0x40 PUSH1 0x0 KECCAK256 PUSH1 0x0 SWAP2 POP SWAP1 POP DUP1 PUSH1 0x0 ADD SLOAD SWAP1 DUP1 PUSH1 0x1 ADD DUP1 SLOAD PUSH2 0xC5 SWAP1 PUSH2 0x6A2 JUMP JUMPDEST DUP1 PUSH1 0x1F ADD PUSH1 0x20 DUP1 SWAP2 DIV MUL PUSH1 0x20 ADD PUSH1 0x40 MLOAD SWAP1 DUP2 ADD PUSH1 0x40 MSTORE DUP1 SWAP3 SWAP2 SWAP1 DUP2 DUP2 MSTORE PUSH1 0x20 ADD DUP3 DUP1 SLOAD PUSH2 0xF1 SWAP1 PUSH2 0x6A2 JUMP JUMPDEST DUP1 ISZERO PUSH2 0x13E JUMPI DUP1 PUSH1 0x1F LT PUSH2 0x113 JUMPI PUSH2 0x100 DUP1 DUP4 SLOAD DIV MUL DUP4 MSTORE SWAP2 PUSH1 0x20 ADD SWAP2 PUSH2 0x13E JUMP JUMPDEST DUP3 ADD SWAP2 SWAP1 PUSH1 0x0 MSTORE PUSH1 0x20 PUSH1 0x0 KECCAK256 SWAP1 JUMPDEST DUP2 SLOAD DUP2 MSTORE SWAP1 PUSH1 0x1 ADD SWAP1 PUSH1 0x20 ADD DUP1 DUP4 GT PUSH2 0x121 JUMPI DUP3 SWAP1 SUB PUSH1 0x1F AND DUP3 ADD SWAP2 JUMPDEST POP POP POP POP POP SWAP1 POP DUP3 JUMP JUMPDEST PUSH1 0x60 PUSH1 0x40 MLOAD DUP1 PUSH1 0x40 ADD PUSH1 0x40 MSTORE DUP1 PUSH1 0x7B DUP2 MSTORE PUSH1 0x20 ADD PUSH1 0x40 MLOAD DUP1 PUSH1 0x40 ADD PUSH1 0x40 MSTORE DUP1 PUSH1 0x3 DUP2 MSTORE PUSH1 0x20 ADD PUSH32 0x6261720000000000000000000000000000000000000000000000000000000000 DUP2 MSTORE POP DUP2 MSTORE POP PUSH1 0x0 DUP1 CALLER PUSH20 0xFFFFFFFFFFFFFFFFFFFFFFFFFFFFFFFFFFFFFFFF AND PUSH20 0xFFFFFFFFFFFFFFFFFFFFFFFFFFFFFFFFFFFFFFFF AND DUP2 MSTORE PUSH1 0x20 ADD SWAP1 DUP2 MSTORE PUSH1 0x20 ADD PUSH1 0x0 KECCAK256 PUSH1 0x0 DUP3 ADD MLOAD DUP2 PUSH1 0x0 ADD SSTORE PUSH1 0x20 DUP3 ADD MLOAD DUP2 PUSH1 0x1 ADD SWAP1 DUP1 MLOAD SWAP1 PUSH1 0x20 ADD SWAP1 PUSH2 0x1F9 SWAP3 SWAP2 SWAP1 PUSH2 0x204 JUMP JUMPDEST POP SWAP1 POP POP SWAP4 SWAP3 POP POP POP JUMP JUMPDEST DUP3 DUP1 SLOAD PUSH2 0x210 SWAP1 PUSH2 0x6A2 JUMP JUMPDEST SWAP1 PUSH1 0x0 MSTORE PUSH1 0x20 PUSH1 0x0 KECCAK256 SWAP1 PUSH1 0x1F ADD PUSH1 0x20 SWAP1 DIV DUP2 ADD SWAP3 DUP3 PUSH2 0x232 JUMPI PUSH1 0x0 DUP6 SSTORE PUSH2 0x279 JUMP JUMPDEST DUP3 PUSH1 0x1F LT PUSH2 0x24B JUMPI DUP1 MLOAD PUSH1 0xFF NOT AND DUP4 DUP1 ADD OR DUP6 SSTORE PUSH2 0x279 JUMP JUMPDEST DUP3 DUP1 ADD PUSH1 0x1 ADD DUP6 SSTORE DUP3 ISZERO PUSH2 0x279 JUMPI SWAP2 DUP3 ADD JUMPDEST DUP3 DUP2 GT ISZERO PUSH2 0x278 JUMPI DUP3 MLOAD DUP3 SSTORE SWAP2 PUSH1 0x20 ADD SWAP2 SWAP1 PUSH1 0x1 ADD SWAP1 PUSH2 0x25D JUMP JUMPDEST JUMPDEST POP SWAP1 POP PUSH2 0x286 SWAP2 SWAP1 PUSH2 0x28A JUMP JUMPDEST POP SWAP1 JUMP JUMPDEST JUMPDEST DUP1 DUP3 GT ISZERO PUSH2 0x2A3 JUMPI PUSH1 0x0 DUP2 PUSH1 0x0 SWAP1 SSTORE POP PUSH1 0x1 ADD PUSH2 0x28B JUMP JUMPDEST POP SWAP1 JUMP JUMPDEST PUSH1 0x0 PUSH2 0x2BA PUSH2 0x2B5 DUP5 PUSH2 0x5B2 JUMP JUMPDEST PUSH2 0x58D JUMP JUMPDEST SWAP1 POP DUP1 DUP4 DUP3 MSTORE PUSH1 0x20 DUP3 ADD SWAP1 POP DUP3 DUP6 PUSH1 0x20 DUP7 MUL DUP3 ADD GT ISZERO PUSH2 0x2DD JUMPI PUSH2 0x2DC PUSH2 0x76D JUMP JUMPDEST JUMPDEST PUSH1 0x0 JUMPDEST DUP6 DUP2 LT ISZERO PUSH2 0x30D JUMPI DUP2 PUSH2 0x2F3 DUP9 DUP3 PUSH2 0x3B0 JUMP JUMPDEST DUP5 MSTORE PUSH1 0x20 DUP5 ADD SWAP4 POP PUSH1 0x20 DUP4 ADD SWAP3 POP POP PUSH1 0x1 DUP2 ADD SWAP1 POP PUSH2 0x2E0 JUMP JUMPDEST POP POP POP SWAP4 SWAP3 POP POP POP JUMP JUMPDEST PUSH1 0x0 DUP2 CALLDATALOAD SWAP1 POP PUSH2 0x326 DUP2 PUSH2 0x78D JUMP JUMPDEST SWAP3 SWAP2 POP POP JUMP JUMPDEST PUSH1 0x0 DUP3 PUSH1 0x1F DUP4 ADD SLT PUSH2 0x341 JUMPI PUSH2 0x340 PUSH2 0x768 JUMP JUMPDEST JUMPDEST DUP2 CALLDATALOAD PUSH2 0x351 DUP5 DUP3 PUSH1 0x20 DUP7 ADD PUSH2 0x2A7 JUMP JUMPDEST SWAP2 POP POP SWAP3 SWAP2 POP POP JUMP JUMPDEST PUSH1 0x0 DUP1 DUP4 PUSH1 0x1F DUP5 ADD SLT PUSH2 0x370 JUMPI PUSH2 0x36F PUSH2 0x768 JUMP JUMPDEST JUMPDEST DUP3 CALLDATALOAD SWAP1 POP PUSH8 0xFFFFFFFFFFFFFFFF DUP2 GT ISZERO PUSH2 0x38D JUMPI PUSH2 0x38C PUSH2 0x763 JUMP JUMPDEST JUMPDEST PUSH1 0x20 DUP4 ADD SWAP2 POP DUP4 PUSH1 0x1 DUP3 MUL DUP4 ADD GT ISZERO PUSH2 0x3A9 JUMPI PUSH2 0x3A8 PUSH2 0x76D JUMP JUMPDEST JUMPDEST SWAP3 POP SWAP3 SWAP1 POP JUMP JUMPDEST PUSH1 0x0 DUP2 CALLDATALOAD SWAP1 POP PUSH2 0x3BF DUP2 PUSH2 0x7A4 JUMP JUMPDEST SWAP3 SWAP2 POP POP JUMP JUMPDEST PUSH1 0x0 PUSH1 0x20 DUP3 DUP5 SUB SLT ISZERO PUSH2 0x3DB JUMPI PUSH2 0x3DA PUSH2 0x777 JUMP JUMPDEST JUMPDEST PUSH1 0x0 PUSH2 0x3E9 DUP5 DUP3 DUP6 ADD PUSH2 0x317 JUMP JUMPDEST SWAP2 POP POP SWAP3 SWAP2 POP POP JUMP JUMPDEST PUSH1 0x0 DUP1 PUSH1 0x0 PUSH1 0x40 DUP5 DUP7 SUB SLT ISZERO PUSH2 0x40B JUMPI PUSH2 0x40A PUSH2 0x777 JUMP JUMPDEST JUMPDEST PUSH1 0x0 DUP5 ADD CALLDATALOAD PUSH8 0xFFFFFFFFFFFFFFFF DUP2 GT ISZERO PUSH2 0x429 JUMPI PUSH2 0x428 PUSH2 0x772 JUMP JUMPDEST JUMPDEST PUSH2 0x435 DUP7 DUP3 DUP8 ADD PUSH2 0x32C JUMP JUMPDEST SWAP4 POP POP PUSH1 0x20 DUP5 ADD CALLDATALOAD PUSH8 0xFFFFFFFFFFFFFFFF DUP2 GT ISZERO PUSH2 0x456 JUMPI PUSH2 0x455 PUSH2 0x772 JUMP JUMPDEST JUMPDEST PUSH2 0x462 DUP7 DUP3 DUP8 ADD PUSH2 0x35A JUMP JUMPDEST SWAP3 POP SWAP3 POP POP SWAP3 POP SWAP3 POP SWAP3 JUMP JUMPDEST PUSH1 0x0 PUSH2 0x47A DUP4 DUP4 PUSH2 0x51D JUMP JUMPDEST PUSH1 0x20 DUP4 ADD SWAP1 POP SWAP3 SWAP2 POP POP JUMP JUMPDEST PUSH1 0x0 PUSH2 0x491 DUP3 PUSH2 0x5EE JUMP JUMPDEST PUSH2 0x49B DUP2 DUP6 PUSH2 0x611 JUMP JUMPDEST SWAP4 POP PUSH2 0x4A6 DUP4 PUSH2 0x5DE JUMP JUMPDEST DUP1 PUSH1 0x0 JUMPDEST DUP4 DUP2 LT ISZERO PUSH2 0x4D7 JUMPI DUP2 MLOAD PUSH2 0x4BE DUP9 DUP3 PUSH2 0x46E JUMP JUMPDEST SWAP8 POP PUSH2 0x4C9 DUP4 PUSH2 0x604 JUMP JUMPDEST SWAP3 POP POP PUSH1 0x1 DUP2 ADD SWAP1 POP PUSH2 0x4AA JUMP JUMPDEST POP DUP6 SWAP4 POP POP POP POP SWAP3 SWAP2 POP POP JUMP JUMPDEST PUSH1 0x0 PUSH2 0x4EF DUP3 PUSH2 0x5F9 JUMP JUMPDEST PUSH2 0x4F9 DUP2 DUP6 PUSH2 0x622 JUMP JUMPDEST SWAP4 POP PUSH2 0x509 DUP2 DUP6 PUSH1 0x20 DUP7 ADD PUSH2 0x66F JUMP JUMPDEST PUSH2 0x512 DUP2 PUSH2 0x77C JUMP JUMPDEST DUP5 ADD SWAP2 POP POP SWAP3 SWAP2 POP POP JUMP JUMPDEST PUSH2 0x526 DUP2 PUSH2 0x665 JUMP JUMPDEST DUP3 MSTORE POP POP JUMP JUMPDEST PUSH2 0x535 DUP2 PUSH2 0x665 JUMP JUMPDEST DUP3 MSTORE POP POP JUMP JUMPDEST PUSH1 0x0 PUSH1 0x20 DUP3 ADD SWAP1 POP DUP2 DUP2 SUB PUSH1 0x0 DUP4 ADD MSTORE PUSH2 0x555 DUP2 DUP5 PUSH2 0x486 JUMP JUMPDEST SWAP1 POP SWAP3 SWAP2 POP POP JUMP JUMPDEST PUSH1 0x0 PUSH1 0x40 DUP3 ADD SWAP1 POP PUSH2 0x572 PUSH1 0x0 DUP4 ADD DUP6 PUSH2 0x52C JUMP JUMPDEST DUP2 DUP2 SUB PUSH1 0x20 DUP4 ADD MSTORE PUSH2 0x584 DUP2 DUP5 PUSH2 0x4E4 JUMP JUMPDEST SWAP1 POP SWAP4 SWAP3 POP POP POP JUMP JUMPDEST PUSH1 0x0 PUSH2 0x597 PUSH2 0x5A8 JUMP JUMPDEST SWAP1 POP PUSH2 0x5A3 DUP3 DUP3 PUSH2 0x6D4 JUMP JUMPDEST SWAP2 SWAP1 POP JUMP JUMPDEST PUSH1 0x0 PUSH1 0x40 MLOAD SWAP1 POP SWAP1 JUMP JUMPDEST PUSH1 0x0 PUSH8 0xFFFFFFFFFFFFFFFF DUP3 GT ISZERO PUSH2 0x5CD JUMPI PUSH2 0x5CC PUSH2 0x734 JUMP JUMPDEST JUMPDEST PUSH1 0x20 DUP3 MUL SWAP1 POP PUSH1 0x20 DUP2 ADD SWAP1 POP SWAP2 SWAP1 POP JUMP JUMPDEST PUSH1 0x0 DUP2 SWAP1 POP PUSH1 0x20 DUP3 ADD SWAP1 POP SWAP2 SWAP1 POP JUMP JUMPDEST PUSH1 0x0 DUP2 MLOAD SWAP1 POP SWAP2 SWAP1 POP JUMP JUMPDEST PUSH1 0x0 DUP2 MLOAD SWAP1 POP SWAP2 SWAP1 POP JUMP JUMPDEST PUSH1 0x0 PUSH1 0x20 DUP3 ADD SWAP1 POP SWAP2 SWAP1 POP JUMP JUMPDEST PUSH1 0x0 DUP3 DUP3 MSTORE PUSH1 0x20 DUP3 ADD SWAP1 POP SWAP3 SWAP2 POP POP JUMP JUMPDEST PUSH1 0x0 DUP3 DUP3 MSTORE PUSH1 0x20 DUP3 ADD SWAP1 POP SWAP3 SWAP2 POP POP JUMP JUMPDEST PUSH1 0x0 PUSH2 0x63E DUP3 PUSH2 0x645 JUMP JUMPDEST SWAP1 POP SWAP2 SWAP1 POP JUMP JUMPDEST PUSH1 0x0 PUSH20 0xFFFFFFFFFFFFFFFFFFFFFFFFFFFFFFFFFFFFFFFF DUP3 AND SWAP1 POP SWAP2 SWAP1 POP JUMP JUMPDEST PUSH1 0x0 DUP2 SWAP1 POP SWAP2 SWAP1 POP JUMP JUMPDEST PUSH1 0x0 JUMPDEST DUP4 DUP2 LT ISZERO PUSH2 0x68D JUMPI DUP1 DUP3 ADD MLOAD DUP2 DUP5 ADD MSTORE PUSH1 0x20 DUP2 ADD SWAP1 POP PUSH2 0x672 JUMP JUMPDEST DUP4 DUP2 GT ISZERO PUSH2 0x69C JUMPI PUSH1 0x0 DUP5 DUP5 ADD MSTORE JUMPDEST POP POP POP POP JUMP JUMPDEST PUSH1 0x0 PUSH1 0x2 DUP3 DIV SWAP1 POP PUSH1 0x1 DUP3 AND DUP1 PUSH2 0x6BA JUMPI PUSH1 0x7F DUP3 AND SWAP2 POP JUMPDEST PUSH1 0x20 DUP3 LT DUP2 EQ ISZERO PUSH2 0x6CE JUMPI PUSH2 0x6CD PUSH2 0x705 JUMP JUMPDEST JUMPDEST POP SWAP2 SWAP1 POP JUMP JUMPDEST PUSH2 0x6DD DUP3 PUSH2 0x77C JUMP JUMPDEST DUP2 ADD DUP2 DUP2 LT PUSH8 0xFFFFFFFFFFFFFFFF DUP3 GT OR ISZERO PUSH2 0x6FC JUMPI PUSH2 0x6FB PUSH2 0x734 JUMP JUMPDEST JUMPDEST DUP1 PUSH1 0x40 MSTORE POP POP POP JUMP JUMPDEST PUSH32 0x4E487B7100000000000000000000000000000000000000000000000000000000 PUSH1 0x0 MSTORE PUSH1 0x22 PUSH1 0x4 MSTORE PUSH1 0x24 PUSH1 0x0 REVERT JUMPDEST PUSH32 0x4E487B7100000000000000000000000000000000000000000000000000000000 PUSH1 0x0 MSTORE PUSH1 0x41 PUSH1 0x4 MSTORE PUSH1 0x24 PUSH1 0x0 REVERT JUMPDEST PUSH1 0x0 DUP1 REVERT JUMPDEST PUSH1 0x0 DUP1 REVERT JUMPDEST PUSH1 0x0 DUP1 REVERT JUMPDEST PUSH1 0x0 DUP1 REVERT JUMPDEST PUSH1 0x0 DUP1 REVERT JUMPDEST PUSH1 0x0 PUSH1 0x1F NOT PUSH1 0x1F DUP4 ADD AND SWAP1 POP SWAP2 SWAP1 POP JUMP JUMPDEST PUSH2 0x796 DUP2 PUSH2 0x633 JUMP JUMPDEST DUP2 EQ PUSH2 0x7A1 JUMPI PUSH1 0x0 DUP1 REVERT JUMPDEST POP JUMP JUMPDEST PUSH2 0x7AD DUP2 PUSH2 0x665 JUMP JUMPDEST DUP2 EQ PUSH2 0x7B8 JUMPI PUSH1 0x0 DUP1 REVERT JUMPDEST POP JUMP INVALID LOG2 PUSH5 0x6970667358 0x22 SLT KECCAK256 0xA6 0xEC 0xCE OR INVALID ISZERO SMOD PUSH4 0xE81D0A0F 0x5F 0x29 PUSH2 0xD836 PUSH11 0x255B72CADF15BEE16BD029 PUSH30 0x5C2764736F6C634300080700330000000000000000000000000000000000 "
				},
				"gasEstimates": {
					"creation": {
						"codeDepositCost": "406600",
						"executionCost": "443",
						"totalCost": "407043"
					},
					"external": {
						"examples(uint256[],string)": "infinite",
						"myStructs(address)": "infinite"
					}
				},
				"methodIdentifiers": {
					"examples(uint256[],string)": "fc277a95",
					"myStructs(address)": "b43c5d33"
				}
			},
			"storageLayout": {
				"storage": [
					{
						"astId": 11,
						"contract": "contracts/DataLocations.sol:DataLocations",
						"label": "myStructs",
						"offset": 0,
						"slot": "0",
						"type": "t_mapping(t_address,t_struct(MyStruct)6_storage)"
					}
				],
				"types": {
					"t_address": {
						"encoding": "inplace",
						"label": "address",
						"numberOfBytes": "20"
					},
					"t_mapping(t_address,t_struct(MyStruct)6_storage)": {
						"encoding": "mapping",
						"key": "t_address",
						"label": "mapping(address => struct DataLocations.MyStruct)",
						"numberOfBytes": "32",
						"value": "t_struct(MyStruct)6_storage"
					},
					"t_string_storage": {
						"encoding": "bytes",
						"label": "string",
						"numberOfBytes": "32"
					},
					"t_struct(MyStruct)6_storage": {
						"encoding": "inplace",
						"label": "struct DataLocations.MyStruct",
						"members": [
							{
								"astId": 3,
								"contract": "contracts/DataLocations.sol:DataLocations",
								"label": "foo",
								"offset": 0,
								"slot": "0",
								"type": "t_uint256"
							},
							{
								"astId": 5,
								"contract": "contracts/DataLocations.sol:DataLocations",
								"label": "text",
								"offset": 0,
								"slot": "1",
								"type": "t_string_storage"
							}
						],
						"numberOfBytes": "64"
					},
					"t_uint256": {
						"encoding": "inplace",
						"label": "uint256",
						"numberOfBytes": "32"
					}
				}
			},
			"userdoc": {
				"kind": "user",
				"methods": {},
				"version": 1
			}
		}
	}
}