{
	"contracts/DelegateCall.sol": {
		"TestDelegateCall": {
			"abi": [
				{
					"inputs": [],
					"name": "num",
					"outputs": [
						{
							"internalType": "uint256",
							"name": "",
							"type": "uint256"
						}
					],
					"stateMutability": "view",
					"type": "function"
				},
				{
					"inputs": [],
					"name": "sender",
					"outputs": [
						{
							"internalType": "address",
							"name": "",
							"type": "address"
						}
					],
					"stateMutability": "view",
					"type": "function"
				},
				{
					"inputs": [
						{
							"internalType": "uint256",
							"name": "_num",
							"type": "uint256"
						}
					],
					"name": "setVars",
					"outputs": [],
					"stateMutability": "payable",
					"type": "function"
				},
				{
					"inputs": [],
					"name": "somethingElse",
					"outputs": [
						{
							"internalType": "uint256",
							"name": "",
							"type": "uint256"
						}
					],
					"stateMutability": "view",
					"type": "function"
				},
				{
					"inputs": [],
					"name": "test",
					"outputs": [
						{
							"internalType": "bytes",
							"name": "",
							"type": "bytes"
						}
					],
					"stateMutability": "view",
					"type": "function"
				},
				{
					"inputs": [],
					"name": "value",
					"outputs": [
						{
							"internalType": "uint256",
							"name": "",
							"type": "uint256"
						}
					],
					"stateMutability": "view",
					"type": "function"
				}
			],
			"devdoc": {
				"kind": "dev",
				"methods": {},
				"version": 1
			},
			"evm": {
				"assembly": "    /* \"contracts/DelegateCall.sol\":742:1164  contract TestDelegateCall {... */\n  mstore(0x40, 0x80)\n  callvalue\n  dup1\n  iszero\n  tag_1\n  jumpi\n  0x00\n  dup1\n  revert\ntag_1:\n  pop\n  dataSize(sub_0)\n  dup1\n  dataOffset(sub_0)\n  0x00\n  codecopy\n  0x00\n  return\nstop\n\nsub_0: assembly {\n        /* \"contracts/DelegateCall.sol\":742:1164  contract TestDelegateCall {... */\n      mstore(0x40, 0x80)\n      jumpi(tag_1, lt(calldatasize, 0x04))\n      shr(0xe0, calldataload(0x00))\n      dup1\n      0x3fa4f245\n      eq\n      tag_2\n      jumpi\n      dup1\n      0x4e70b1dc\n      eq\n      tag_3\n      jumpi\n      dup1\n      0x6466414b\n      eq\n      tag_4\n      jumpi\n      dup1\n      0x67e404ce\n      eq\n      tag_5\n      jumpi\n      dup1\n      0xedcceda3\n      eq\n      tag_6\n      jumpi\n      dup1\n      0xf8a8fd6d\n      eq\n      tag_7\n      jumpi\n    tag_1:\n      0x00\n      dup1\n      revert\n        /* \"contracts/DelegateCall.sol\":919:936  uint public value */\n    tag_2:\n      callvalue\n      dup1\n      iszero\n      tag_8\n      jumpi\n      0x00\n      dup1\n      revert\n    tag_8:\n      pop\n      tag_9\n      tag_10\n      jump\t// in\n    tag_9:\n      mload(0x40)\n      tag_11\n      swap2\n      swap1\n      tag_12\n      jump\t// in\n    tag_11:\n      mload(0x40)\n      dup1\n      swap2\n      sub\n      swap1\n      return\n        /* \"contracts/DelegateCall.sol\":871:886  uint public num */\n    tag_3:\n      callvalue\n      dup1\n      iszero\n      tag_13\n      jumpi\n      0x00\n      dup1\n      revert\n    tag_13:\n      pop\n      tag_14\n      tag_15\n      jump\t// in\n    tag_14:\n      mload(0x40)\n      tag_16\n      swap2\n      swap1\n      tag_12\n      jump\t// in\n    tag_16:\n      mload(0x40)\n      dup1\n      swap2\n      sub\n      swap1\n      return\n        /* \"contracts/DelegateCall.sol\":1030:1162  function setVars(uint _num) external payable {... */\n    tag_4:\n      tag_17\n      0x04\n      dup1\n      calldatasize\n      sub\n      dup2\n      add\n      swap1\n      tag_18\n      swap2\n      swap1\n      tag_19\n      jump\t// in\n    tag_18:\n      tag_20\n      jump\t// in\n    tag_17:\n      stop\n        /* \"contracts/DelegateCall.sol\":892:913  address public sender */\n    tag_5:\n      callvalue\n      dup1\n      iszero\n      tag_21\n      jumpi\n      0x00\n      dup1\n      revert\n    tag_21:\n      pop\n      tag_22\n      tag_23\n      jump\t// in\n    tag_22:\n      mload(0x40)\n      tag_24\n      swap2\n      swap1\n      tag_25\n      jump\t// in\n    tag_24:\n      mload(0x40)\n      dup1\n      swap2\n      sub\n      swap1\n      return\n        /* \"contracts/DelegateCall.sol\":998:1023  uint public somethingElse */\n    tag_6:\n      callvalue\n      dup1\n      iszero\n      tag_26\n      jumpi\n      0x00\n      dup1\n      revert\n    tag_26:\n      pop\n      tag_27\n      tag_28\n      jump\t// in\n    tag_27:\n      mload(0x40)\n      tag_29\n      swap2\n      swap1\n      tag_12\n      jump\t// in\n    tag_29:\n      mload(0x40)\n      dup1\n      swap2\n      sub\n      swap1\n      return\n        /* \"contracts/DelegateCall.sol\":848:865  bytes public test */\n    tag_7:\n      callvalue\n      dup1\n      iszero\n      tag_30\n      jumpi\n      0x00\n      dup1\n      revert\n    tag_30:\n      pop\n      tag_31\n      tag_32\n      jump\t// in\n    tag_31:\n      mload(0x40)\n      tag_33\n      swap2\n      swap1\n      tag_34\n      jump\t// in\n    tag_33:\n      mload(0x40)\n      dup1\n      swap2\n      sub\n      swap1\n      return\n        /* \"contracts/DelegateCall.sol\":919:936  uint public value */\n    tag_10:\n      sload(0x03)\n      dup2\n      jump\t// out\n        /* \"contracts/DelegateCall.sol\":871:886  uint public num */\n    tag_15:\n      sload(0x01)\n      dup2\n      jump\t// out\n        /* \"contracts/DelegateCall.sol\":1030:1162  function setVars(uint _num) external payable {... */\n    tag_20:\n        /* \"contracts/DelegateCall.sol\":1095:1099  _num */\n      dup1\n        /* \"contracts/DelegateCall.sol\":1091:1092  4 */\n      0x04\n        /* \"contracts/DelegateCall.sol\":1091:1099  4 * _num */\n      tag_36\n      swap2\n      swap1\n      tag_37\n      jump\t// in\n    tag_36:\n        /* \"contracts/DelegateCall.sol\":1085:1088  num */\n      0x01\n        /* \"contracts/DelegateCall.sol\":1085:1099  num = 4 * _num */\n      dup2\n      swap1\n      sstore\n      pop\n        /* \"contracts/DelegateCall.sol\":1118:1128  msg.sender */\n      caller\n        /* \"contracts/DelegateCall.sol\":1109:1115  sender */\n      0x02\n      0x00\n        /* \"contracts/DelegateCall.sol\":1109:1128  sender = msg.sender */\n      0x0100\n      exp\n      dup2\n      sload\n      dup2\n      0xffffffffffffffffffffffffffffffffffffffff\n      mul\n      not\n      and\n      swap1\n      dup4\n      0xffffffffffffffffffffffffffffffffffffffff\n      and\n      mul\n      or\n      swap1\n      sstore\n      pop\n        /* \"contracts/DelegateCall.sol\":1146:1155  msg.value */\n      callvalue\n        /* \"contracts/DelegateCall.sol\":1138:1143  value */\n      0x03\n        /* \"contracts/DelegateCall.sol\":1138:1155  value = msg.value */\n      dup2\n      swap1\n      sstore\n      pop\n        /* \"contracts/DelegateCall.sol\":1030:1162  function setVars(uint _num) external payable {... */\n      pop\n      jump\t// out\n        /* \"contracts/DelegateCall.sol\":892:913  address public sender */\n    tag_23:\n      0x02\n      0x00\n      swap1\n      sload\n      swap1\n      0x0100\n      exp\n      swap1\n      div\n      0xffffffffffffffffffffffffffffffffffffffff\n      and\n      dup2\n      jump\t// out\n        /* \"contracts/DelegateCall.sol\":998:1023  uint public somethingElse */\n    tag_28:\n      sload(0x04)\n      dup2\n      jump\t// out\n        /* \"contracts/DelegateCall.sol\":848:865  bytes public test */\n    tag_32:\n      0x00\n      dup1\n      sload\n      tag_38\n      swap1\n      tag_39\n      jump\t// in\n    tag_38:\n      dup1\n      0x1f\n      add\n      0x20\n      dup1\n      swap2\n      div\n      mul\n      0x20\n      add\n      mload(0x40)\n      swap1\n      dup2\n      add\n      0x40\n      mstore\n      dup1\n      swap3\n      swap2\n      swap1\n      dup2\n      dup2\n      mstore\n      0x20\n      add\n      dup3\n      dup1\n      sload\n      tag_40\n      swap1\n      tag_39\n      jump\t// in\n    tag_40:\n      dup1\n      iszero\n      tag_41\n      jumpi\n      dup1\n      0x1f\n      lt\n      tag_42\n      jumpi\n      0x0100\n      dup1\n      dup4\n      sload\n      div\n      mul\n      dup4\n      mstore\n      swap2\n      0x20\n      add\n      swap2\n      jump(tag_41)\n    tag_42:\n      dup3\n      add\n      swap2\n      swap1\n      0x00\n      mstore\n      keccak256(0x00, 0x20)\n      swap1\n    tag_43:\n      dup2\n      sload\n      dup2\n      mstore\n      swap1\n      0x01\n      add\n      swap1\n      0x20\n      add\n      dup1\n      dup4\n      gt\n      tag_43\n      jumpi\n      dup3\n      swap1\n      sub\n      0x1f\n      and\n      dup3\n      add\n      swap2\n    tag_41:\n      pop\n      pop\n      pop\n      pop\n      pop\n      dup2\n      jump\t// out\n        /* \"#utility.yul\":7:146   */\n    tag_45:\n        /* \"#utility.yul\":53:58   */\n      0x00\n        /* \"#utility.yul\":91:97   */\n      dup2\n        /* \"#utility.yul\":78:98   */\n      calldataload\n        /* \"#utility.yul\":69:98   */\n      swap1\n      pop\n        /* \"#utility.yul\":107:140   */\n      tag_47\n        /* \"#utility.yul\":134:139   */\n      dup2\n        /* \"#utility.yul\":107:140   */\n      tag_48\n      jump\t// in\n    tag_47:\n        /* \"#utility.yul\":7:146   */\n      swap3\n      swap2\n      pop\n      pop\n      jump\t// out\n        /* \"#utility.yul\":152:481   */\n    tag_19:\n        /* \"#utility.yul\":211:217   */\n      0x00\n        /* \"#utility.yul\":260:262   */\n      0x20\n        /* \"#utility.yul\":248:257   */\n      dup3\n        /* \"#utility.yul\":239:246   */\n      dup5\n        /* \"#utility.yul\":235:258   */\n      sub\n        /* \"#utility.yul\":231:263   */\n      slt\n        /* \"#utility.yul\":228:347   */\n      iszero\n      tag_50\n      jumpi\n        /* \"#utility.yul\":266:345   */\n      tag_51\n      tag_52\n      jump\t// in\n    tag_51:\n        /* \"#utility.yul\":228:347   */\n    tag_50:\n        /* \"#utility.yul\":386:387   */\n      0x00\n        /* \"#utility.yul\":411:464   */\n      tag_53\n        /* \"#utility.yul\":456:463   */\n      dup5\n        /* \"#utility.yul\":447:453   */\n      dup3\n        /* \"#utility.yul\":436:445   */\n      dup6\n        /* \"#utility.yul\":432:454   */\n      add\n        /* \"#utility.yul\":411:464   */\n      tag_45\n      jump\t// in\n    tag_53:\n        /* \"#utility.yul\":401:464   */\n      swap2\n      pop\n        /* \"#utility.yul\":357:474   */\n      pop\n        /* \"#utility.yul\":152:481   */\n      swap3\n      swap2\n      pop\n      pop\n      jump\t// out\n        /* \"#utility.yul\":487:605   */\n    tag_54:\n        /* \"#utility.yul\":574:598   */\n      tag_56\n        /* \"#utility.yul\":592:597   */\n      dup2\n        /* \"#utility.yul\":574:598   */\n      tag_57\n      jump\t// in\n    tag_56:\n        /* \"#utility.yul\":569:572   */\n      dup3\n        /* \"#utility.yul\":562:599   */\n      mstore\n        /* \"#utility.yul\":487:605   */\n      pop\n      pop\n      jump\t// out\n        /* \"#utility.yul\":611:971   */\n    tag_58:\n        /* \"#utility.yul\":697:700   */\n      0x00\n        /* \"#utility.yul\":725:763   */\n      tag_60\n        /* \"#utility.yul\":757:762   */\n      dup3\n        /* \"#utility.yul\":725:763   */\n      tag_61\n      jump\t// in\n    tag_60:\n        /* \"#utility.yul\":779:849   */\n      tag_62\n        /* \"#utility.yul\":842:848   */\n      dup2\n        /* \"#utility.yul\":837:840   */\n      dup6\n        /* \"#utility.yul\":779:849   */\n      tag_63\n      jump\t// in\n    tag_62:\n        /* \"#utility.yul\":772:849   */\n      swap4\n      pop\n        /* \"#utility.yul\":858:910   */\n      tag_64\n        /* \"#utility.yul\":903:909   */\n      dup2\n        /* \"#utility.yul\":898:901   */\n      dup6\n        /* \"#utility.yul\":891:895   */\n      0x20\n        /* \"#utility.yul\":884:889   */\n      dup7\n        /* \"#utility.yul\":880:896   */\n      add\n        /* \"#utility.yul\":858:910   */\n      tag_65\n      jump\t// in\n    tag_64:\n        /* \"#utility.yul\":935:964   */\n      tag_66\n        /* \"#utility.yul\":957:963   */\n      dup2\n        /* \"#utility.yul\":935:964   */\n      tag_67\n      jump\t// in\n    tag_66:\n        /* \"#utility.yul\":930:933   */\n      dup5\n        /* \"#utility.yul\":926:965   */\n      add\n        /* \"#utility.yul\":919:965   */\n      swap2\n      pop\n        /* \"#utility.yul\":701:971   */\n      pop\n        /* \"#utility.yul\":611:971   */\n      swap3\n      swap2\n      pop\n      pop\n      jump\t// out\n        /* \"#utility.yul\":977:1095   */\n    tag_68:\n        /* \"#utility.yul\":1064:1088   */\n      tag_70\n        /* \"#utility.yul\":1082:1087   */\n      dup2\n        /* \"#utility.yul\":1064:1088   */\n      tag_71\n      jump\t// in\n    tag_70:\n        /* \"#utility.yul\":1059:1062   */\n      dup3\n        /* \"#utility.yul\":1052:1089   */\n      mstore\n        /* \"#utility.yul\":977:1095   */\n      pop\n      pop\n      jump\t// out\n        /* \"#utility.yul\":1101:1323   */\n    tag_25:\n        /* \"#utility.yul\":1194:1198   */\n      0x00\n        /* \"#utility.yul\":1232:1234   */\n      0x20\n        /* \"#utility.yul\":1221:1230   */\n      dup3\n        /* \"#utility.yul\":1217:1235   */\n      add\n        /* \"#utility.yul\":1209:1235   */\n      swap1\n      pop\n        /* \"#utility.yul\":1245:1316   */\n      tag_73\n        /* \"#utility.yul\":1313:1314   */\n      0x00\n        /* \"#utility.yul\":1302:1311   */\n      dup4\n        /* \"#utility.yul\":1298:1315   */\n      add\n        /* \"#utility.yul\":1289:1295   */\n      dup5\n        /* \"#utility.yul\":1245:1316   */\n      tag_54\n      jump\t// in\n    tag_73:\n        /* \"#utility.yul\":1101:1323   */\n      swap3\n      swap2\n      pop\n      pop\n      jump\t// out\n        /* \"#utility.yul\":1329:1638   */\n    tag_34:\n        /* \"#utility.yul\":1440:1444   */\n      0x00\n        /* \"#utility.yul\":1478:1480   */\n      0x20\n        /* \"#utility.yul\":1467:1476   */\n      dup3\n        /* \"#utility.yul\":1463:1481   */\n      add\n        /* \"#utility.yul\":1455:1481   */\n      swap1\n      pop\n        /* \"#utility.yul\":1527:1536   */\n      dup2\n        /* \"#utility.yul\":1521:1525   */\n      dup2\n        /* \"#utility.yul\":1517:1537   */\n      sub\n        /* \"#utility.yul\":1513:1514   */\n      0x00\n        /* \"#utility.yul\":1502:1511   */\n      dup4\n        /* \"#utility.yul\":1498:1515   */\n      add\n        /* \"#utility.yul\":1491:1538   */\n      mstore\n        /* \"#utility.yul\":1555:1631   */\n      tag_75\n        /* \"#utility.yul\":1626:1630   */\n      dup2\n        /* \"#utility.yul\":1617:1623   */\n      dup5\n        /* \"#utility.yul\":1555:1631   */\n      tag_58\n      jump\t// in\n    tag_75:\n        /* \"#utility.yul\":1547:1631   */\n      swap1\n      pop\n        /* \"#utility.yul\":1329:1638   */\n      swap3\n      swap2\n      pop\n      pop\n      jump\t// out\n        /* \"#utility.yul\":1644:1866   */\n    tag_12:\n        /* \"#utility.yul\":1737:1741   */\n      0x00\n        /* \"#utility.yul\":1775:1777   */\n      0x20\n        /* \"#utility.yul\":1764:1773   */\n      dup3\n        /* \"#utility.yul\":1760:1778   */\n      add\n        /* \"#utility.yul\":1752:1778   */\n      swap1\n      pop\n        /* \"#utility.yul\":1788:1859   */\n      tag_77\n        /* \"#utility.yul\":1856:1857   */\n      0x00\n        /* \"#utility.yul\":1845:1854   */\n      dup4\n        /* \"#utility.yul\":1841:1858   */\n      add\n        /* \"#utility.yul\":1832:1838   */\n      dup5\n        /* \"#utility.yul\":1788:1859   */\n      tag_68\n      jump\t// in\n    tag_77:\n        /* \"#utility.yul\":1644:1866   */\n      swap3\n      swap2\n      pop\n      pop\n      jump\t// out\n        /* \"#utility.yul\":1953:2051   */\n    tag_61:\n        /* \"#utility.yul\":2004:2010   */\n      0x00\n        /* \"#utility.yul\":2038:2043   */\n      dup2\n        /* \"#utility.yul\":2032:2044   */\n      mload\n        /* \"#utility.yul\":2022:2044   */\n      swap1\n      pop\n        /* \"#utility.yul\":1953:2051   */\n      swap2\n      swap1\n      pop\n      jump\t// out\n        /* \"#utility.yul\":2057:2225   */\n    tag_63:\n        /* \"#utility.yul\":2140:2151   */\n      0x00\n        /* \"#utility.yul\":2174:2180   */\n      dup3\n        /* \"#utility.yul\":2169:2172   */\n      dup3\n        /* \"#utility.yul\":2162:2181   */\n      mstore\n        /* \"#utility.yul\":2214:2218   */\n      0x20\n        /* \"#utility.yul\":2209:2212   */\n      dup3\n        /* \"#utility.yul\":2205:2219   */\n      add\n        /* \"#utility.yul\":2190:2219   */\n      swap1\n      pop\n        /* \"#utility.yul\":2057:2225   */\n      swap3\n      swap2\n      pop\n      pop\n      jump\t// out\n        /* \"#utility.yul\":2231:2579   */\n    tag_37:\n        /* \"#utility.yul\":2271:2278   */\n      0x00\n        /* \"#utility.yul\":2294:2314   */\n      tag_83\n        /* \"#utility.yul\":2312:2313   */\n      dup3\n        /* \"#utility.yul\":2294:2314   */\n      tag_71\n      jump\t// in\n    tag_83:\n        /* \"#utility.yul\":2289:2314   */\n      swap2\n      pop\n        /* \"#utility.yul\":2328:2348   */\n      tag_84\n        /* \"#utility.yul\":2346:2347   */\n      dup4\n        /* \"#utility.yul\":2328:2348   */\n      tag_71\n      jump\t// in\n    tag_84:\n        /* \"#utility.yul\":2323:2348   */\n      swap3\n      pop\n        /* \"#utility.yul\":2516:2517   */\n      dup2\n        /* \"#utility.yul\":2448:2514   */\n      0xffffffffffffffffffffffffffffffffffffffffffffffffffffffffffffffff\n        /* \"#utility.yul\":2444:2518   */\n      div\n        /* \"#utility.yul\":2441:2442   */\n      dup4\n        /* \"#utility.yul\":2438:2519   */\n      gt\n        /* \"#utility.yul\":2433:2434   */\n      dup3\n        /* \"#utility.yul\":2426:2435   */\n      iszero\n        /* \"#utility.yul\":2419:2436   */\n      iszero\n        /* \"#utility.yul\":2415:2520   */\n      and\n        /* \"#utility.yul\":2412:2543   */\n      iszero\n      tag_85\n      jumpi\n        /* \"#utility.yul\":2523:2541   */\n      tag_86\n      tag_87\n      jump\t// in\n    tag_86:\n        /* \"#utility.yul\":2412:2543   */\n    tag_85:\n        /* \"#utility.yul\":2571:2572   */\n      dup3\n        /* \"#utility.yul\":2568:2569   */\n      dup3\n        /* \"#utility.yul\":2564:2573   */\n      mul\n        /* \"#utility.yul\":2553:2573   */\n      swap1\n      pop\n        /* \"#utility.yul\":2231:2579   */\n      swap3\n      swap2\n      pop\n      pop\n      jump\t// out\n        /* \"#utility.yul\":2585:2681   */\n    tag_57:\n        /* \"#utility.yul\":2622:2629   */\n      0x00\n        /* \"#utility.yul\":2651:2675   */\n      tag_89\n        /* \"#utility.yul\":2669:2674   */\n      dup3\n        /* \"#utility.yul\":2651:2675   */\n      tag_90\n      jump\t// in\n    tag_89:\n        /* \"#utility.yul\":2640:2675   */\n      swap1\n      pop\n        /* \"#utility.yul\":2585:2681   */\n      swap2\n      swap1\n      pop\n      jump\t// out\n        /* \"#utility.yul\":2687:2813   */\n    tag_90:\n        /* \"#utility.yul\":2724:2731   */\n      0x00\n        /* \"#utility.yul\":2764:2806   */\n      0xffffffffffffffffffffffffffffffffffffffff\n        /* \"#utility.yul\":2757:2762   */\n      dup3\n        /* \"#utility.yul\":2753:2807   */\n      and\n        /* \"#utility.yul\":2742:2807   */\n      swap1\n      pop\n        /* \"#utility.yul\":2687:2813   */\n      swap2\n      swap1\n      pop\n      jump\t// out\n        /* \"#utility.yul\":2819:2896   */\n    tag_71:\n        /* \"#utility.yul\":2856:2863   */\n      0x00\n        /* \"#utility.yul\":2885:2890   */\n      dup2\n        /* \"#utility.yul\":2874:2890   */\n      swap1\n      pop\n        /* \"#utility.yul\":2819:2896   */\n      swap2\n      swap1\n      pop\n      jump\t// out\n        /* \"#utility.yul\":2902:3209   */\n    tag_65:\n        /* \"#utility.yul\":2970:2971   */\n      0x00\n        /* \"#utility.yul\":2980:3093   */\n    tag_94:\n        /* \"#utility.yul\":2994:3000   */\n      dup4\n        /* \"#utility.yul\":2991:2992   */\n      dup2\n        /* \"#utility.yul\":2988:3001   */\n      lt\n        /* \"#utility.yul\":2980:3093   */\n      iszero\n      tag_96\n      jumpi\n        /* \"#utility.yul\":3079:3080   */\n      dup1\n        /* \"#utility.yul\":3074:3077   */\n      dup3\n        /* \"#utility.yul\":3070:3081   */\n      add\n        /* \"#utility.yul\":3064:3082   */\n      mload\n        /* \"#utility.yul\":3060:3061   */\n      dup2\n        /* \"#utility.yul\":3055:3058   */\n      dup5\n        /* \"#utility.yul\":3051:3062   */\n      add\n        /* \"#utility.yul\":3044:3083   */\n      mstore\n        /* \"#utility.yul\":3016:3018   */\n      0x20\n        /* \"#utility.yul\":3013:3014   */\n      dup2\n        /* \"#utility.yul\":3009:3019   */\n      add\n        /* \"#utility.yul\":3004:3019   */\n      swap1\n      pop\n        /* \"#utility.yul\":2980:3093   */\n      jump(tag_94)\n    tag_96:\n        /* \"#utility.yul\":3111:3117   */\n      dup4\n        /* \"#utility.yul\":3108:3109   */\n      dup2\n        /* \"#utility.yul\":3105:3118   */\n      gt\n        /* \"#utility.yul\":3102:3203   */\n      iszero\n      tag_97\n      jumpi\n        /* \"#utility.yul\":3191:3192   */\n      0x00\n        /* \"#utility.yul\":3182:3188   */\n      dup5\n        /* \"#utility.yul\":3177:3180   */\n      dup5\n        /* \"#utility.yul\":3173:3189   */\n      add\n        /* \"#utility.yul\":3166:3193   */\n      mstore\n        /* \"#utility.yul\":3102:3203   */\n    tag_97:\n        /* \"#utility.yul\":2951:3209   */\n      pop\n        /* \"#utility.yul\":2902:3209   */\n      pop\n      pop\n      pop\n      jump\t// out\n        /* \"#utility.yul\":3215:3535   */\n    tag_39:\n        /* \"#utility.yul\":3259:3265   */\n      0x00\n        /* \"#utility.yul\":3296:3297   */\n      0x02\n        /* \"#utility.yul\":3290:3294   */\n      dup3\n        /* \"#utility.yul\":3286:3298   */\n      div\n        /* \"#utility.yul\":3276:3298   */\n      swap1\n      pop\n        /* \"#utility.yul\":3343:3344   */\n      0x01\n        /* \"#utility.yul\":3337:3341   */\n      dup3\n        /* \"#utility.yul\":3333:3345   */\n      and\n        /* \"#utility.yul\":3364:3382   */\n      dup1\n        /* \"#utility.yul\":3354:3435   */\n      tag_99\n      jumpi\n        /* \"#utility.yul\":3420:3424   */\n      0x7f\n        /* \"#utility.yul\":3412:3418   */\n      dup3\n        /* \"#utility.yul\":3408:3425   */\n      and\n        /* \"#utility.yul\":3398:3425   */\n      swap2\n      pop\n        /* \"#utility.yul\":3354:3435   */\n    tag_99:\n        /* \"#utility.yul\":3482:3484   */\n      0x20\n        /* \"#utility.yul\":3474:3480   */\n      dup3\n        /* \"#utility.yul\":3471:3485   */\n      lt\n        /* \"#utility.yul\":3451:3469   */\n      dup2\n        /* \"#utility.yul\":3448:3486   */\n      eq\n        /* \"#utility.yul\":3445:3529   */\n      iszero\n      tag_100\n      jumpi\n        /* \"#utility.yul\":3501:3519   */\n      tag_101\n      tag_102\n      jump\t// in\n    tag_101:\n        /* \"#utility.yul\":3445:3529   */\n    tag_100:\n        /* \"#utility.yul\":3266:3535   */\n      pop\n        /* \"#utility.yul\":3215:3535   */\n      swap2\n      swap1\n      pop\n      jump\t// out\n        /* \"#utility.yul\":3541:3721   */\n    tag_87:\n        /* \"#utility.yul\":3589:3666   */\n      0x4e487b7100000000000000000000000000000000000000000000000000000000\n        /* \"#utility.yul\":3586:3587   */\n      0x00\n        /* \"#utility.yul\":3579:3667   */\n      mstore\n        /* \"#utility.yul\":3686:3690   */\n      0x11\n        /* \"#utility.yul\":3683:3684   */\n      0x04\n        /* \"#utility.yul\":3676:3691   */\n      mstore\n        /* \"#utility.yul\":3710:3714   */\n      0x24\n        /* \"#utility.yul\":3707:3708   */\n      0x00\n        /* \"#utility.yul\":3700:3715   */\n      revert\n        /* \"#utility.yul\":3727:3907   */\n    tag_102:\n        /* \"#utility.yul\":3775:3852   */\n      0x4e487b7100000000000000000000000000000000000000000000000000000000\n        /* \"#utility.yul\":3772:3773   */\n      0x00\n        /* \"#utility.yul\":3765:3853   */\n      mstore\n        /* \"#utility.yul\":3872:3876   */\n      0x22\n        /* \"#utility.yul\":3869:3870   */\n      0x04\n        /* \"#utility.yul\":3862:3877   */\n      mstore\n        /* \"#utility.yul\":3896:3900   */\n      0x24\n        /* \"#utility.yul\":3893:3894   */\n      0x00\n        /* \"#utility.yul\":3886:3901   */\n      revert\n        /* \"#utility.yul\":4036:4153   */\n    tag_52:\n        /* \"#utility.yul\":4145:4146   */\n      0x00\n        /* \"#utility.yul\":4142:4143   */\n      dup1\n        /* \"#utility.yul\":4135:4147   */\n      revert\n        /* \"#utility.yul\":4159:4261   */\n    tag_67:\n        /* \"#utility.yul\":4200:4206   */\n      0x00\n        /* \"#utility.yul\":4251:4253   */\n      0x1f\n        /* \"#utility.yul\":4247:4254   */\n      not\n        /* \"#utility.yul\":4242:4244   */\n      0x1f\n        /* \"#utility.yul\":4235:4240   */\n      dup4\n        /* \"#utility.yul\":4231:4245   */\n      add\n        /* \"#utility.yul\":4227:4255   */\n      and\n        /* \"#utility.yul\":4217:4255   */\n      swap1\n      pop\n        /* \"#utility.yul\":4159:4261   */\n      swap2\n      swap1\n      pop\n      jump\t// out\n        /* \"#utility.yul\":4267:4389   */\n    tag_48:\n        /* \"#utility.yul\":4340:4364   */\n      tag_110\n        /* \"#utility.yul\":4358:4363   */\n      dup2\n        /* \"#utility.yul\":4340:4364   */\n      tag_71\n      jump\t// in\n    tag_110:\n        /* \"#utility.yul\":4333:4338   */\n      dup2\n        /* \"#utility.yul\":4330:4365   */\n      eq\n        /* \"#utility.yul\":4320:4383   */\n      tag_111\n      jumpi\n        /* \"#utility.yul\":4379:4380   */\n      0x00\n        /* \"#utility.yul\":4376:4377   */\n      dup1\n        /* \"#utility.yul\":4369:4381   */\n      revert\n        /* \"#utility.yul\":4320:4383   */\n    tag_111:\n        /* \"#utility.yul\":4267:4389   */\n      pop\n      jump\t// out\n\n    auxdata: 0xa2646970667358221220ff46612fed9df270d5b24249469830214290c454febb2c99fb2bf310ab6ddab364736f6c63430008070033\n}\n",
				"bytecode": {
					"linkReferences": {},
					"object": "608060405234801561001057600080fd5b5061053a806100206000396000f3fe6080604052600436106100555760003560e01c80633fa4f2451461005a5780634e70b1dc146100855780636466414b146100b057806367e404ce146100cc578063edcceda3146100f7578063f8a8fd6d14610122575b600080fd5b34801561006657600080fd5b5061006f61014d565b60405161007c9190610347565b60405180910390f35b34801561009157600080fd5b5061009a610153565b6040516100a79190610347565b60405180910390f35b6100ca60048036038101906100c59190610286565b610159565b005b3480156100d857600080fd5b506100e16101b7565b6040516100ee919061030a565b60405180910390f35b34801561010357600080fd5b5061010c6101dd565b6040516101199190610347565b60405180910390f35b34801561012e57600080fd5b506101376101e3565b6040516101449190610325565b60405180910390f35b60035481565b60015481565b806004610166919061037e565b60018190555033600260006101000a81548173ffffffffffffffffffffffffffffffffffffffff021916908373ffffffffffffffffffffffffffffffffffffffff1602179055503460038190555050565b600260009054906101000a900473ffffffffffffffffffffffffffffffffffffffff1681565b60045481565b600080546101f090610447565b80601f016020809104026020016040519081016040528092919081815260200182805461021c90610447565b80156102695780601f1061023e57610100808354040283529160200191610269565b820191906000526020600020905b81548152906001019060200180831161024c57829003601f168201915b505050505081565b600081359050610280816104ed565b92915050565b60006020828403121561029c5761029b6104d7565b5b60006102aa84828501610271565b91505092915050565b6102bc816103d8565b82525050565b60006102cd82610362565b6102d7818561036d565b93506102e7818560208601610414565b6102f0816104dc565b840191505092915050565b6103048161040a565b82525050565b600060208201905061031f60008301846102b3565b92915050565b6000602082019050818103600083015261033f81846102c2565b905092915050565b600060208201905061035c60008301846102fb565b92915050565b600081519050919050565b600082825260208201905092915050565b60006103898261040a565b91506103948361040a565b9250817fffffffffffffffffffffffffffffffffffffffffffffffffffffffffffffffff04831182151516156103cd576103cc610479565b5b828202905092915050565b60006103e3826103ea565b9050919050565b600073ffffffffffffffffffffffffffffffffffffffff82169050919050565b6000819050919050565b60005b83811015610432578082015181840152602081019050610417565b83811115610441576000848401525b50505050565b6000600282049050600182168061045f57607f821691505b60208210811415610473576104726104a8565b5b50919050565b7f4e487b7100000000000000000000000000000000000000000000000000000000600052601160045260246000fd5b7f4e487b7100000000000000000000000000000000000000000000000000000000600052602260045260246000fd5b600080fd5b6000601f19601f8301169050919050565b6104f68161040a565b811461050157600080fd5b5056fea2646970667358221220ff46612fed9df270d5b24249469830214290c454febb2c99fb2bf310ab6ddab364736f6c63430008070033",
					"opcodes": "PUSH1 0x80 PUSH1 0x40 MSTORE CALLVALUE DUP1 ISZERO PUSH2 0x10 JUMPI PUSH1 0x0 DUP1 REVERT JUMPDEST POP PUSH2 0x53A DUP1 PUSH2 0x20 PUSH1 0x0 CODECOPY PUSH1 0x0 RETURN INVALID PUSH1 0x80 PUSH1 0x40 MSTORE PUSH1 0x4 CALLDATASIZE LT PUSH2 0x55 JUMPI PUSH1 0x0 CALLDATALOAD PUSH1 0xE0 SHR DUP1 PUSH4 0x3FA4F245 EQ PUSH2 0x5A JUMPI DUP1 PUSH4 0x4E70B1DC EQ PUSH2 0x85 JUMPI DUP1 PUSH4 0x6466414B EQ PUSH2 0xB0 JUMPI DUP1 PUSH4 0x67E404CE EQ PUSH2 0xCC JUMPI DUP1 PUSH4 0xEDCCEDA3 EQ PUSH2 0xF7 JUMPI DUP1 PUSH4 0xF8A8FD6D EQ PUSH2 0x122 JUMPI JUMPDEST PUSH1 0x0 DUP1 REVERT JUMPDEST CALLVALUE DUP1 ISZERO PUSH2 0x66 JUMPI PUSH1 0x0 DUP1 REVERT JUMPDEST POP PUSH2 0x6F PUSH2 0x14D JUMP JUMPDEST PUSH1 0x40 MLOAD PUSH2 0x7C SWAP2 SWAP1 PUSH2 0x347 JUMP JUMPDEST PUSH1 0x40 MLOAD DUP1 SWAP2 SUB SWAP1 RETURN JUMPDEST CALLVALUE DUP1 ISZERO PUSH2 0x91 JUMPI PUSH1 0x0 DUP1 REVERT JUMPDEST POP PUSH2 0x9A PUSH2 0x153 JUMP JUMPDEST PUSH1 0x40 MLOAD PUSH2 0xA7 SWAP2 SWAP1 PUSH2 0x347 JUMP JUMPDEST PUSH1 0x40 MLOAD DUP1 SWAP2 SUB SWAP1 RETURN JUMPDEST PUSH2 0xCA PUSH1 0x4 DUP1 CALLDATASIZE SUB DUP2 ADD SWAP1 PUSH2 0xC5 SWAP2 SWAP1 PUSH2 0x286 JUMP JUMPDEST PUSH2 0x159 JUMP JUMPDEST STOP JUMPDEST CALLVALUE DUP1 ISZERO PUSH2 0xD8 JUMPI PUSH1 0x0 DUP1 REVERT JUMPDEST POP PUSH2 0xE1 PUSH2 0x1B7 JUMP JUMPDEST PUSH1 0x40 MLOAD PUSH2 0xEE SWAP2 SWAP1 PUSH2 0x30A JUMP JUMPDEST PUSH1 0x40 MLOAD DUP1 SWAP2 SUB SWAP1 RETURN JUMPDEST CALLVALUE DUP1 ISZERO PUSH2 0x103 JUMPI PUSH1 0x0 DUP1 REVERT JUMPDEST POP PUSH2 0x10C PUSH2 0x1DD JUMP JUMPDEST PUSH1 0x40 MLOAD PUSH2 0x119 SWAP2 SWAP1 PUSH2 0x347 JUMP JUMPDEST PUSH1 0x40 MLOAD DUP1 SWAP2 SUB SWAP1 RETURN JUMPDEST CALLVALUE DUP1 ISZERO PUSH2 0x12E JUMPI PUSH1 0x0 DUP1 REVERT JUMPDEST POP PUSH2 0x137 PUSH2 0x1E3 JUMP JUMPDEST PUSH1 0x40 MLOAD PUSH2 0x144 SWAP2 SWAP1 PUSH2 0x325 JUMP JUMPDEST PUSH1 0x40 MLOAD DUP1 SWAP2 SUB SWAP1 RETURN JUMPDEST PUSH1 0x3 SLOAD DUP2 JUMP JUMPDEST PUSH1 0x1 SLOAD DUP2 JUMP JUMPDEST DUP1 PUSH1 0x4 PUSH2 0x166 SWAP2 SWAP1 PUSH2 0x37E JUMP JUMPDEST PUSH1 0x1 DUP2 SWAP1 SSTORE POP CALLER PUSH1 0x2 PUSH1 0x0 PUSH2 0x100 EXP DUP2 SLOAD DUP2 PUSH20 0xFFFFFFFFFFFFFFFFFFFFFFFFFFFFFFFFFFFFFFFF MUL NOT AND SWAP1 DUP4 PUSH20 0xFFFFFFFFFFFFFFFFFFFFFFFFFFFFFFFFFFFFFFFF AND MUL OR SWAP1 SSTORE POP CALLVALUE PUSH1 0x3 DUP2 SWAP1 SSTORE POP POP JUMP JUMPDEST PUSH1 0x2 PUSH1 0x0 SWAP1 SLOAD SWAP1 PUSH2 0x100 EXP SWAP1 DIV PUSH20 0xFFFFFFFFFFFFFFFFFFFFFFFFFFFFFFFFFFFFFFFF AND DUP2 JUMP JUMPDEST PUSH1 0x4 SLOAD DUP2 JUMP JUMPDEST PUSH1 0x0 DUP1 SLOAD PUSH2 0x1F0 SWAP1 PUSH2 0x447 JUMP JUMPDEST DUP1 PUSH1 0x1F ADD PUSH1 0x20 DUP1 SWAP2 DIV MUL PUSH1 0x20 ADD PUSH1 0x40 MLOAD SWAP1 DUP2 ADD PUSH1 0x40 MSTORE DUP1 SWAP3 SWAP2 SWAP1 DUP2 DUP2 MSTORE PUSH1 0x20 ADD DUP3 DUP1 SLOAD PUSH2 0x21C SWAP1 PUSH2 0x447 JUMP JUMPDEST DUP1 ISZERO PUSH2 0x269 JUMPI DUP1 PUSH1 0x1F LT PUSH2 0x23E JUMPI PUSH2 0x100 DUP1 DUP4 SLOAD DIV MUL DUP4 MSTORE SWAP2 PUSH1 0x20 ADD SWAP2 PUSH2 0x269 JUMP JUMPDEST DUP3 ADD SWAP2 SWAP1 PUSH1 0x0 MSTORE PUSH1 0x20 PUSH1 0x0 KECCAK256 SWAP1 JUMPDEST DUP2 SLOAD DUP2 MSTORE SWAP1 PUSH1 0x1 ADD SWAP1 PUSH1 0x20 ADD DUP1 DUP4 GT PUSH2 0x24C JUMPI DUP3 SWAP1 SUB PUSH1 0x1F AND DUP3 ADD SWAP2 JUMPDEST POP POP POP POP POP DUP2 JUMP JUMPDEST PUSH1 0x0 DUP2 CALLDATALOAD SWAP1 POP PUSH2 0x280 DUP2 PUSH2 0x4ED JUMP JUMPDEST SWAP3 SWAP2 POP POP JUMP JUMPDEST PUSH1 0x0 PUSH1 0x20 DUP3 DUP5 SUB SLT ISZERO PUSH2 0x29C JUMPI PUSH2 0x29B PUSH2 0x4D7 JUMP JUMPDEST JUMPDEST PUSH1 0x0 PUSH2 0x2AA DUP5 DUP3 DUP6 ADD PUSH2 0x271 JUMP JUMPDEST SWAP2 POP POP SWAP3 SWAP2 POP POP JUMP JUMPDEST PUSH2 0x2BC DUP2 PUSH2 0x3D8 JUMP JUMPDEST DUP3 MSTORE POP POP JUMP JUMPDEST PUSH1 0x0 PUSH2 0x2CD DUP3 PUSH2 0x362 JUMP JUMPDEST PUSH2 0x2D7 DUP2 DUP6 PUSH2 0x36D JUMP JUMPDEST SWAP4 POP PUSH2 0x2E7 DUP2 DUP6 PUSH1 0x20 DUP7 ADD PUSH2 0x414 JUMP JUMPDEST PUSH2 0x2F0 DUP2 PUSH2 0x4DC JUMP JUMPDEST DUP5 ADD SWAP2 POP POP SWAP3 SWAP2 POP POP JUMP JUMPDEST PUSH2 0x304 DUP2 PUSH2 0x40A JUMP JUMPDEST DUP3 MSTORE POP POP JUMP JUMPDEST PUSH1 0x0 PUSH1 0x20 DUP3 ADD SWAP1 POP PUSH2 0x31F PUSH1 0x0 DUP4 ADD DUP5 PUSH2 0x2B3 JUMP JUMPDEST SWAP3 SWAP2 POP POP JUMP JUMPDEST PUSH1 0x0 PUSH1 0x20 DUP3 ADD SWAP1 POP DUP2 DUP2 SUB PUSH1 0x0 DUP4 ADD MSTORE PUSH2 0x33F DUP2 DUP5 PUSH2 0x2C2 JUMP JUMPDEST SWAP1 POP SWAP3 SWAP2 POP POP JUMP JUMPDEST PUSH1 0x0 PUSH1 0x20 DUP3 ADD SWAP1 POP PUSH2 0x35C PUSH1 0x0 DUP4 ADD DUP5 PUSH2 0x2FB JUMP JUMPDEST SWAP3 SWAP2 POP POP JUMP JUMPDEST PUSH1 0x0 DUP2 MLOAD SWAP1 POP SWAP2 SWAP1 POP JUMP JUMPDEST PUSH1 0x0 DUP3 DUP3 MSTORE PUSH1 0x20 DUP3 ADD SWAP1 POP SWAP3 SWAP2 POP POP JUMP JUMPDEST PUSH1 0x0 PUSH2 0x389 DUP3 PUSH2 0x40A JUMP JUMPDEST SWAP2 POP PUSH2 0x394 DUP4 PUSH2 0x40A JUMP JUMPDEST SWAP3 POP DUP2 PUSH32 0xFFFFFFFFFFFFFFFFFFFFFFFFFFFFFFFFFFFFFFFFFFFFFFFFFFFFFFFFFFFFFFFF DIV DUP4 GT DUP3 ISZERO ISZERO AND ISZERO PUSH2 0x3CD JUMPI PUSH2 0x3CC PUSH2 0x479 JUMP JUMPDEST JUMPDEST DUP3 DUP3 MUL SWAP1 POP SWAP3 SWAP2 POP POP JUMP JUMPDEST PUSH1 0x0 PUSH2 0x3E3 DUP3 PUSH2 0x3EA JUMP JUMPDEST SWAP1 POP SWAP2 SWAP1 POP JUMP JUMPDEST PUSH1 0x0 PUSH20 0xFFFFFFFFFFFFFFFFFFFFFFFFFFFFFFFFFFFFFFFF DUP3 AND SWAP1 POP SWAP2 SWAP1 POP JUMP JUMPDEST PUSH1 0x0 DUP2 SWAP1 POP SWAP2 SWAP1 POP JUMP JUMPDEST PUSH1 0x0 JUMPDEST DUP4 DUP2 LT ISZERO PUSH2 0x432 JUMPI DUP1 DUP3 ADD MLOAD DUP2 DUP5 ADD MSTORE PUSH1 0x20 DUP2 ADD SWAP1 POP PUSH2 0x417 JUMP JUMPDEST DUP4 DUP2 GT ISZERO PUSH2 0x441 JUMPI PUSH1 0x0 DUP5 DUP5 ADD MSTORE JUMPDEST POP POP POP POP JUMP JUMPDEST PUSH1 0x0 PUSH1 0x2 DUP3 DIV SWAP1 POP PUSH1 0x1 DUP3 AND DUP1 PUSH2 0x45F JUMPI PUSH1 0x7F DUP3 AND SWAP2 POP JUMPDEST PUSH1 0x20 DUP3 LT DUP2 EQ ISZERO PUSH2 0x473 JUMPI PUSH2 0x472 PUSH2 0x4A8 JUMP JUMPDEST JUMPDEST POP SWAP2 SWAP1 POP JUMP JUMPDEST PUSH32 0x4E487B7100000000000000000000000000000000000000000000000000000000 PUSH1 0x0 MSTORE PUSH1 0x11 PUSH1 0x4 MSTORE PUSH1 0x24 PUSH1 0x0 REVERT JUMPDEST PUSH32 0x4E487B7100000000000000000000000000000000000000000000000000000000 PUSH1 0x0 MSTORE PUSH1 0x22 PUSH1 0x4 MSTORE PUSH1 0x24 PUSH1 0x0 REVERT JUMPDEST PUSH1 0x0 DUP1 REVERT JUMPDEST PUSH1 0x0 PUSH1 0x1F NOT PUSH1 0x1F DUP4 ADD AND SWAP1 POP SWAP2 SWAP1 POP JUMP JUMPDEST PUSH2 0x4F6 DUP2 PUSH2 0x40A JUMP JUMPDEST DUP2 EQ PUSH2 0x501 JUMPI PUSH1 0x0 DUP1 REVERT JUMPDEST POP JUMP INVALID LOG2 PUSH5 0x6970667358 0x22 SLT KECCAK256 SELFDESTRUCT CHAINID PUSH2 0x2FED SWAP14 CALLCODE PUSH17 0xD5B24249469830214290C454FEBB2C99FB 0x2B RETURN LT 0xAB PUSH14 0xDAB364736F6C6343000807003300 "
				},
				"gasEstimates": {
					"creation": {
						"codeDepositCost": "267600",
						"executionCost": "306",
						"totalCost": "267906"
					},
					"external": {
						"num()": "2429",
						"sender()": "2558",
						"setVars(uint256)": "infinite",
						"somethingElse()": "2495",
						"test()": "infinite",
						"value()": "2407"
					}
				},
				"methodIdentifiers": {
					"num()": "4e70b1dc",
					"sender()": "67e404ce",
					"setVars(uint256)": "6466414b",
					"somethingElse()": "edcceda3",
					"test()": "f8a8fd6d",
					"value()": "3fa4f245"
				}
			},
			"storageLayout": {
				"storage": [
					{
						"astId": 3,
						"contract": "contracts/DelegateCall.sol:TestDelegateCall",
						"label": "test",
						"offset": 0,
						"slot": "0",
						"type": "t_bytes_storage"
					},
					{
						"astId": 5,
						"contract": "contracts/DelegateCall.sol:TestDelegateCall",
						"label": "num",
						"offset": 0,
						"slot": "1",
						"type": "t_uint256"
					},
					{
						"astId": 7,
						"contract": "contracts/DelegateCall.sol:TestDelegateCall",
						"label": "sender",
						"offset": 0,
						"slot": "2",
						"type": "t_address"
					},
					{
						"astId": 9,
						"contract": "contracts/DelegateCall.sol:TestDelegateCall",
						"label": "value",
						"offset": 0,
						"slot": "3",
						"type": "t_uint256"
					},
					{
						"astId": 11,
						"contract": "contracts/DelegateCall.sol:TestDelegateCall",
						"label": "somethingElse",
						"offset": 0,
						"slot": "4",
						"type": "t_uint256"
					}
				],
				"types": {
					"t_address": {
						"encoding": "inplace",
						"label": "address",
						"numberOfBytes": "20"
					},
					"t_bytes_storage": {
						"encoding": "bytes",
						"label": "bytes",
						"numberOfBytes": "32"
					},
					"t_uint256": {
						"encoding": "inplace",
						"label": "uint256",
						"numberOfBytes": "32"
					}
				}
			},
			"userdoc": {
				"kind": "user",
				"methods": {},
				"version": 1
			}
		}
	}
}