{
	"contracts/DelegateCall.sol": {
		"DelegateCall": {
			"abi": [
				{
					"inputs": [],
					"name": "num",
					"outputs": [
						{
							"internalType": "uint256",
							"name": "",
							"type": "uint256"
						}
					],
					"stateMutability": "view",
					"type": "function"
				},
				{
					"inputs": [],
					"name": "sender",
					"outputs": [
						{
							"internalType": "address",
							"name": "",
							"type": "address"
						}
					],
					"stateMutability": "view",
					"type": "function"
				},
				{
					"inputs": [
						{
							"internalType": "address",
							"name": "_test",
							"type": "address"
						},
						{
							"internalType": "uint256",
							"name": "_num",
							"type": "uint256"
						}
					],
					"name": "setVars",
					"outputs": [],
					"stateMutability": "payable",
					"type": "function"
				},
				{
					"inputs": [],
					"name": "value",
					"outputs": [
						{
							"internalType": "uint256",
							"name": "",
							"type": "uint256"
						}
					],
					"stateMutability": "view",
					"type": "function"
				}
			],
			"devdoc": {
				"kind": "dev",
				"methods": {},
				"version": 1
			},
			"evm": {
				"assembly": "    /* \"contracts/DelegateCall.sol\":1166:1912  contract DelegateCall {... */\n  mstore(0x40, 0x80)\n  callvalue\n  dup1\n  iszero\n  tag_1\n  jumpi\n  0x00\n  dup1\n  revert\ntag_1:\n  pop\n  dataSize(sub_0)\n  dup1\n  dataOffset(sub_0)\n  0x00\n  codecopy\n  0x00\n  return\nstop\n\nsub_0: assembly {\n        /* \"contracts/DelegateCall.sol\":1166:1912  contract DelegateCall {... */\n      mstore(0x40, 0x80)\n      jumpi(tag_1, lt(calldatasize, 0x04))\n      shr(0xe0, calldataload(0x00))\n      dup1\n      0x3fa4f245\n      eq\n      tag_2\n      jumpi\n      dup1\n      0x4e70b1dc\n      eq\n      tag_3\n      jumpi\n      dup1\n      0x67e404ce\n      eq\n      tag_4\n      jumpi\n      dup1\n      0xd1e0f308\n      eq\n      tag_5\n      jumpi\n    tag_1:\n      0x00\n      dup1\n      revert\n        /* \"contracts/DelegateCall.sol\":1316:1333  uint public value */\n    tag_2:\n      callvalue\n      dup1\n      iszero\n      tag_6\n      jumpi\n      0x00\n      dup1\n      revert\n    tag_6:\n      pop\n      tag_7\n      tag_8\n      jump\t// in\n    tag_7:\n      mload(0x40)\n      tag_9\n      swap2\n      swap1\n      tag_10\n      jump\t// in\n    tag_9:\n      mload(0x40)\n      dup1\n      swap2\n      sub\n      swap1\n      return\n        /* \"contracts/DelegateCall.sol\":1268:1283  uint public num */\n    tag_3:\n      callvalue\n      dup1\n      iszero\n      tag_11\n      jumpi\n      0x00\n      dup1\n      revert\n    tag_11:\n      pop\n      tag_12\n      tag_13\n      jump\t// in\n    tag_12:\n      mload(0x40)\n      tag_14\n      swap2\n      swap1\n      tag_10\n      jump\t// in\n    tag_14:\n      mload(0x40)\n      dup1\n      swap2\n      sub\n      swap1\n      return\n        /* \"contracts/DelegateCall.sol\":1289:1310  address public sender */\n    tag_4:\n      callvalue\n      dup1\n      iszero\n      tag_15\n      jumpi\n      0x00\n      dup1\n      revert\n    tag_15:\n      pop\n      tag_16\n      tag_17\n      jump\t// in\n    tag_16:\n      mload(0x40)\n      tag_18\n      swap2\n      swap1\n      tag_19\n      jump\t// in\n    tag_18:\n      mload(0x40)\n      dup1\n      swap2\n      sub\n      swap1\n      return\n        /* \"contracts/DelegateCall.sol\":1340:1910  function setVars(address _test, uint _num) external payable {... */\n    tag_5:\n      tag_20\n      0x04\n      dup1\n      calldatasize\n      sub\n      dup2\n      add\n      swap1\n      tag_21\n      swap2\n      swap1\n      tag_22\n      jump\t// in\n    tag_21:\n      tag_23\n      jump\t// in\n    tag_20:\n      stop\n        /* \"contracts/DelegateCall.sol\":1316:1333  uint public value */\n    tag_8:\n      sload(0x02)\n      dup2\n      jump\t// out\n        /* \"contracts/DelegateCall.sol\":1268:1283  uint public num */\n    tag_13:\n      sload(0x00)\n      dup2\n      jump\t// out\n        /* \"contracts/DelegateCall.sol\":1289:1310  address public sender */\n    tag_17:\n      0x01\n      0x00\n      swap1\n      sload\n      swap1\n      0x0100\n      exp\n      swap1\n      div\n      0xffffffffffffffffffffffffffffffffffffffff\n      and\n      dup2\n      jump\t// out\n        /* \"contracts/DelegateCall.sol\":1340:1910  function setVars(address _test, uint _num) external payable {... */\n    tag_23:\n        /* \"contracts/DelegateCall.sol\":1601:1613  bool success */\n      0x00\n        /* \"contracts/DelegateCall.sol\":1615:1632  bytes memory data */\n      dup1\n        /* \"contracts/DelegateCall.sol\":1636:1641  _test */\n      dup4\n        /* \"contracts/DelegateCall.sol\":1636:1654  _test.delegatecall */\n      0xffffffffffffffffffffffffffffffffffffffff\n      and\n        /* \"contracts/DelegateCall.sol\":1804:1837  TestDelegateCall.setVars.selector */\n      shl(0xe0, 0x6466414b)\n        /* \"contracts/DelegateCall.sol\":1839:1843  _num */\n      dup5\n        /* \"contracts/DelegateCall.sol\":1781:1844  abi.encodeWithSelector(TestDelegateCall.setVars.selector, _num) */\n      add(0x24, mload(0x40))\n      tag_25\n      swap2\n      swap1\n      tag_10\n      jump\t// in\n    tag_25:\n      mload(0x40)\n      0x20\n      dup2\n      dup4\n      sub\n      sub\n      dup2\n      mstore\n      swap1\n      0x40\n      mstore\n      swap1\n      not(0xffffffffffffffffffffffffffffffffffffffffffffffffffffffff)\n      and\n      0x20\n      dup3\n      add\n      dup1\n      mload\n      0xffffffffffffffffffffffffffffffffffffffffffffffffffffffff\n      dup4\n      dup2\n      dup4\n      and\n      or\n      dup4\n      mstore\n      pop\n      pop\n      pop\n      pop\n        /* \"contracts/DelegateCall.sol\":1636:1854  _test.delegatecall(... */\n      mload(0x40)\n      tag_26\n      swap2\n      swap1\n      tag_27\n      jump\t// in\n    tag_26:\n      0x00\n      mload(0x40)\n      dup1\n      dup4\n      sub\n      dup2\n      dup6\n      gas\n      delegatecall\n      swap2\n      pop\n      pop\n      returndatasize\n      dup1\n      0x00\n      dup2\n      eq\n      tag_30\n      jumpi\n      mload(0x40)\n      swap2\n      pop\n      and(add(returndatasize, 0x3f), not(0x1f))\n      dup3\n      add\n      0x40\n      mstore\n      returndatasize\n      dup3\n      mstore\n      returndatasize\n      0x00\n      0x20\n      dup5\n      add\n      returndatacopy\n      jump(tag_29)\n    tag_30:\n      0x60\n      swap2\n      pop\n    tag_29:\n      pop\n        /* \"contracts/DelegateCall.sol\":1600:1854  (bool success, bytes memory data) = _test.delegatecall(... */\n      swap2\n      pop\n      swap2\n      pop\n        /* \"contracts/DelegateCall.sol\":1872:1879  success */\n      dup2\n        /* \"contracts/DelegateCall.sol\":1864:1903  require(success, \"delegatecall failed\") */\n      tag_31\n      jumpi\n      mload(0x40)\n      0x08c379a000000000000000000000000000000000000000000000000000000000\n      dup2\n      mstore\n      0x04\n      add\n      tag_32\n      swap1\n      tag_33\n      jump\t// in\n    tag_32:\n      mload(0x40)\n      dup1\n      swap2\n      sub\n      swap1\n      revert\n    tag_31:\n        /* \"contracts/DelegateCall.sol\":1400:1910  {... */\n      pop\n      pop\n        /* \"contracts/DelegateCall.sol\":1340:1910  function setVars(address _test, uint _num) external payable {... */\n      pop\n      pop\n      jump\t// out\n        /* \"#utility.yul\":7:146   */\n    tag_35:\n        /* \"#utility.yul\":53:58   */\n      0x00\n        /* \"#utility.yul\":91:97   */\n      dup2\n        /* \"#utility.yul\":78:98   */\n      calldataload\n        /* \"#utility.yul\":69:98   */\n      swap1\n      pop\n        /* \"#utility.yul\":107:140   */\n      tag_37\n        /* \"#utility.yul\":134:139   */\n      dup2\n        /* \"#utility.yul\":107:140   */\n      tag_38\n      jump\t// in\n    tag_37:\n        /* \"#utility.yul\":7:146   */\n      swap3\n      swap2\n      pop\n      pop\n      jump\t// out\n        /* \"#utility.yul\":152:291   */\n    tag_39:\n        /* \"#utility.yul\":198:203   */\n      0x00\n        /* \"#utility.yul\":236:242   */\n      dup2\n        /* \"#utility.yul\":223:243   */\n      calldataload\n        /* \"#utility.yul\":214:243   */\n      swap1\n      pop\n        /* \"#utility.yul\":252:285   */\n      tag_41\n        /* \"#utility.yul\":279:284   */\n      dup2\n        /* \"#utility.yul\":252:285   */\n      tag_42\n      jump\t// in\n    tag_41:\n        /* \"#utility.yul\":152:291   */\n      swap3\n      swap2\n      pop\n      pop\n      jump\t// out\n        /* \"#utility.yul\":297:771   */\n    tag_22:\n        /* \"#utility.yul\":365:371   */\n      0x00\n        /* \"#utility.yul\":373:379   */\n      dup1\n        /* \"#utility.yul\":422:424   */\n      0x40\n        /* \"#utility.yul\":410:419   */\n      dup4\n        /* \"#utility.yul\":401:408   */\n      dup6\n        /* \"#utility.yul\":397:420   */\n      sub\n        /* \"#utility.yul\":393:425   */\n      slt\n        /* \"#utility.yul\":390:509   */\n      iszero\n      tag_44\n      jumpi\n        /* \"#utility.yul\":428:507   */\n      tag_45\n      tag_46\n      jump\t// in\n    tag_45:\n        /* \"#utility.yul\":390:509   */\n    tag_44:\n        /* \"#utility.yul\":548:549   */\n      0x00\n        /* \"#utility.yul\":573:626   */\n      tag_47\n        /* \"#utility.yul\":618:625   */\n      dup6\n        /* \"#utility.yul\":609:615   */\n      dup3\n        /* \"#utility.yul\":598:607   */\n      dup7\n        /* \"#utility.yul\":594:616   */\n      add\n        /* \"#utility.yul\":573:626   */\n      tag_35\n      jump\t// in\n    tag_47:\n        /* \"#utility.yul\":563:626   */\n      swap3\n      pop\n        /* \"#utility.yul\":519:636   */\n      pop\n        /* \"#utility.yul\":675:677   */\n      0x20\n        /* \"#utility.yul\":701:754   */\n      tag_48\n        /* \"#utility.yul\":746:753   */\n      dup6\n        /* \"#utility.yul\":737:743   */\n      dup3\n        /* \"#utility.yul\":726:735   */\n      dup7\n        /* \"#utility.yul\":722:744   */\n      add\n        /* \"#utility.yul\":701:754   */\n      tag_39\n      jump\t// in\n    tag_48:\n        /* \"#utility.yul\":691:754   */\n      swap2\n      pop\n        /* \"#utility.yul\":646:764   */\n      pop\n        /* \"#utility.yul\":297:771   */\n      swap3\n      pop\n      swap3\n      swap1\n      pop\n      jump\t// out\n        /* \"#utility.yul\":777:895   */\n    tag_49:\n        /* \"#utility.yul\":864:888   */\n      tag_51\n        /* \"#utility.yul\":882:887   */\n      dup2\n        /* \"#utility.yul\":864:888   */\n      tag_52\n      jump\t// in\n    tag_51:\n        /* \"#utility.yul\":859:862   */\n      dup3\n        /* \"#utility.yul\":852:889   */\n      mstore\n        /* \"#utility.yul\":777:895   */\n      pop\n      pop\n      jump\t// out\n        /* \"#utility.yul\":901:1274   */\n    tag_53:\n        /* \"#utility.yul\":1005:1008   */\n      0x00\n        /* \"#utility.yul\":1033:1071   */\n      tag_55\n        /* \"#utility.yul\":1065:1070   */\n      dup3\n        /* \"#utility.yul\":1033:1071   */\n      tag_56\n      jump\t// in\n    tag_55:\n        /* \"#utility.yul\":1087:1175   */\n      tag_57\n        /* \"#utility.yul\":1168:1174   */\n      dup2\n        /* \"#utility.yul\":1163:1166   */\n      dup6\n        /* \"#utility.yul\":1087:1175   */\n      tag_58\n      jump\t// in\n    tag_57:\n        /* \"#utility.yul\":1080:1175   */\n      swap4\n      pop\n        /* \"#utility.yul\":1184:1236   */\n      tag_59\n        /* \"#utility.yul\":1229:1235   */\n      dup2\n        /* \"#utility.yul\":1224:1227   */\n      dup6\n        /* \"#utility.yul\":1217:1221   */\n      0x20\n        /* \"#utility.yul\":1210:1215   */\n      dup7\n        /* \"#utility.yul\":1206:1222   */\n      add\n        /* \"#utility.yul\":1184:1236   */\n      tag_60\n      jump\t// in\n    tag_59:\n        /* \"#utility.yul\":1261:1267   */\n      dup1\n        /* \"#utility.yul\":1256:1259   */\n      dup5\n        /* \"#utility.yul\":1252:1268   */\n      add\n        /* \"#utility.yul\":1245:1268   */\n      swap2\n      pop\n        /* \"#utility.yul\":1009:1274   */\n      pop\n        /* \"#utility.yul\":901:1274   */\n      swap3\n      swap2\n      pop\n      pop\n      jump\t// out\n        /* \"#utility.yul\":1280:1646   */\n    tag_61:\n        /* \"#utility.yul\":1422:1425   */\n      0x00\n        /* \"#utility.yul\":1443:1510   */\n      tag_63\n        /* \"#utility.yul\":1507:1509   */\n      0x13\n        /* \"#utility.yul\":1502:1505   */\n      dup4\n        /* \"#utility.yul\":1443:1510   */\n      tag_64\n      jump\t// in\n    tag_63:\n        /* \"#utility.yul\":1436:1510   */\n      swap2\n      pop\n        /* \"#utility.yul\":1519:1612   */\n      tag_65\n        /* \"#utility.yul\":1608:1611   */\n      dup3\n        /* \"#utility.yul\":1519:1612   */\n      tag_66\n      jump\t// in\n    tag_65:\n        /* \"#utility.yul\":1637:1639   */\n      0x20\n        /* \"#utility.yul\":1632:1635   */\n      dup3\n        /* \"#utility.yul\":1628:1640   */\n      add\n        /* \"#utility.yul\":1621:1640   */\n      swap1\n      pop\n        /* \"#utility.yul\":1280:1646   */\n      swap2\n      swap1\n      pop\n      jump\t// out\n        /* \"#utility.yul\":1652:1770   */\n    tag_67:\n        /* \"#utility.yul\":1739:1763   */\n      tag_69\n        /* \"#utility.yul\":1757:1762   */\n      dup2\n        /* \"#utility.yul\":1739:1763   */\n      tag_70\n      jump\t// in\n    tag_69:\n        /* \"#utility.yul\":1734:1737   */\n      dup3\n        /* \"#utility.yul\":1727:1764   */\n      mstore\n        /* \"#utility.yul\":1652:1770   */\n      pop\n      pop\n      jump\t// out\n        /* \"#utility.yul\":1776:2047   */\n    tag_27:\n        /* \"#utility.yul\":1906:1909   */\n      0x00\n        /* \"#utility.yul\":1928:2021   */\n      tag_72\n        /* \"#utility.yul\":2017:2020   */\n      dup3\n        /* \"#utility.yul\":2008:2014   */\n      dup5\n        /* \"#utility.yul\":1928:2021   */\n      tag_53\n      jump\t// in\n    tag_72:\n        /* \"#utility.yul\":1921:2021   */\n      swap2\n      pop\n        /* \"#utility.yul\":2038:2041   */\n      dup2\n        /* \"#utility.yul\":2031:2041   */\n      swap1\n      pop\n        /* \"#utility.yul\":1776:2047   */\n      swap3\n      swap2\n      pop\n      pop\n      jump\t// out\n        /* \"#utility.yul\":2053:2275   */\n    tag_19:\n        /* \"#utility.yul\":2146:2150   */\n      0x00\n        /* \"#utility.yul\":2184:2186   */\n      0x20\n        /* \"#utility.yul\":2173:2182   */\n      dup3\n        /* \"#utility.yul\":2169:2187   */\n      add\n        /* \"#utility.yul\":2161:2187   */\n      swap1\n      pop\n        /* \"#utility.yul\":2197:2268   */\n      tag_74\n        /* \"#utility.yul\":2265:2266   */\n      0x00\n        /* \"#utility.yul\":2254:2263   */\n      dup4\n        /* \"#utility.yul\":2250:2267   */\n      add\n        /* \"#utility.yul\":2241:2247   */\n      dup5\n        /* \"#utility.yul\":2197:2268   */\n      tag_49\n      jump\t// in\n    tag_74:\n        /* \"#utility.yul\":2053:2275   */\n      swap3\n      swap2\n      pop\n      pop\n      jump\t// out\n        /* \"#utility.yul\":2281:2700   */\n    tag_33:\n        /* \"#utility.yul\":2447:2451   */\n      0x00\n        /* \"#utility.yul\":2485:2487   */\n      0x20\n        /* \"#utility.yul\":2474:2483   */\n      dup3\n        /* \"#utility.yul\":2470:2488   */\n      add\n        /* \"#utility.yul\":2462:2488   */\n      swap1\n      pop\n        /* \"#utility.yul\":2534:2543   */\n      dup2\n        /* \"#utility.yul\":2528:2532   */\n      dup2\n        /* \"#utility.yul\":2524:2544   */\n      sub\n        /* \"#utility.yul\":2520:2521   */\n      0x00\n        /* \"#utility.yul\":2509:2518   */\n      dup4\n        /* \"#utility.yul\":2505:2522   */\n      add\n        /* \"#utility.yul\":2498:2545   */\n      mstore\n        /* \"#utility.yul\":2562:2693   */\n      tag_76\n        /* \"#utility.yul\":2688:2692   */\n      dup2\n        /* \"#utility.yul\":2562:2693   */\n      tag_61\n      jump\t// in\n    tag_76:\n        /* \"#utility.yul\":2554:2693   */\n      swap1\n      pop\n        /* \"#utility.yul\":2281:2700   */\n      swap2\n      swap1\n      pop\n      jump\t// out\n        /* \"#utility.yul\":2706:2928   */\n    tag_10:\n        /* \"#utility.yul\":2799:2803   */\n      0x00\n        /* \"#utility.yul\":2837:2839   */\n      0x20\n        /* \"#utility.yul\":2826:2835   */\n      dup3\n        /* \"#utility.yul\":2822:2840   */\n      add\n        /* \"#utility.yul\":2814:2840   */\n      swap1\n      pop\n        /* \"#utility.yul\":2850:2921   */\n      tag_78\n        /* \"#utility.yul\":2918:2919   */\n      0x00\n        /* \"#utility.yul\":2907:2916   */\n      dup4\n        /* \"#utility.yul\":2903:2920   */\n      add\n        /* \"#utility.yul\":2894:2900   */\n      dup5\n        /* \"#utility.yul\":2850:2921   */\n      tag_67\n      jump\t// in\n    tag_78:\n        /* \"#utility.yul\":2706:2928   */\n      swap3\n      swap2\n      pop\n      pop\n      jump\t// out\n        /* \"#utility.yul\":3015:3113   */\n    tag_56:\n        /* \"#utility.yul\":3066:3072   */\n      0x00\n        /* \"#utility.yul\":3100:3105   */\n      dup2\n        /* \"#utility.yul\":3094:3106   */\n      mload\n        /* \"#utility.yul\":3084:3106   */\n      swap1\n      pop\n        /* \"#utility.yul\":3015:3113   */\n      swap2\n      swap1\n      pop\n      jump\t// out\n        /* \"#utility.yul\":3119:3266   */\n    tag_58:\n        /* \"#utility.yul\":3220:3231   */\n      0x00\n        /* \"#utility.yul\":3257:3260   */\n      dup2\n        /* \"#utility.yul\":3242:3260   */\n      swap1\n      pop\n        /* \"#utility.yul\":3119:3266   */\n      swap3\n      swap2\n      pop\n      pop\n      jump\t// out\n        /* \"#utility.yul\":3272:3441   */\n    tag_64:\n        /* \"#utility.yul\":3356:3367   */\n      0x00\n        /* \"#utility.yul\":3390:3396   */\n      dup3\n        /* \"#utility.yul\":3385:3388   */\n      dup3\n        /* \"#utility.yul\":3378:3397   */\n      mstore\n        /* \"#utility.yul\":3430:3434   */\n      0x20\n        /* \"#utility.yul\":3425:3428   */\n      dup3\n        /* \"#utility.yul\":3421:3435   */\n      add\n        /* \"#utility.yul\":3406:3435   */\n      swap1\n      pop\n        /* \"#utility.yul\":3272:3441   */\n      swap3\n      swap2\n      pop\n      pop\n      jump\t// out\n        /* \"#utility.yul\":3447:3543   */\n    tag_52:\n        /* \"#utility.yul\":3484:3491   */\n      0x00\n        /* \"#utility.yul\":3513:3537   */\n      tag_85\n        /* \"#utility.yul\":3531:3536   */\n      dup3\n        /* \"#utility.yul\":3513:3537   */\n      tag_86\n      jump\t// in\n    tag_85:\n        /* \"#utility.yul\":3502:3537   */\n      swap1\n      pop\n        /* \"#utility.yul\":3447:3543   */\n      swap2\n      swap1\n      pop\n      jump\t// out\n        /* \"#utility.yul\":3549:3675   */\n    tag_86:\n        /* \"#utility.yul\":3586:3593   */\n      0x00\n        /* \"#utility.yul\":3626:3668   */\n      0xffffffffffffffffffffffffffffffffffffffff\n        /* \"#utility.yul\":3619:3624   */\n      dup3\n        /* \"#utility.yul\":3615:3669   */\n      and\n        /* \"#utility.yul\":3604:3669   */\n      swap1\n      pop\n        /* \"#utility.yul\":3549:3675   */\n      swap2\n      swap1\n      pop\n      jump\t// out\n        /* \"#utility.yul\":3681:3758   */\n    tag_70:\n        /* \"#utility.yul\":3718:3725   */\n      0x00\n        /* \"#utility.yul\":3747:3752   */\n      dup2\n        /* \"#utility.yul\":3736:3752   */\n      swap1\n      pop\n        /* \"#utility.yul\":3681:3758   */\n      swap2\n      swap1\n      pop\n      jump\t// out\n        /* \"#utility.yul\":3764:4071   */\n    tag_60:\n        /* \"#utility.yul\":3832:3833   */\n      0x00\n        /* \"#utility.yul\":3842:3955   */\n    tag_90:\n        /* \"#utility.yul\":3856:3862   */\n      dup4\n        /* \"#utility.yul\":3853:3854   */\n      dup2\n        /* \"#utility.yul\":3850:3863   */\n      lt\n        /* \"#utility.yul\":3842:3955   */\n      iszero\n      tag_92\n      jumpi\n        /* \"#utility.yul\":3941:3942   */\n      dup1\n        /* \"#utility.yul\":3936:3939   */\n      dup3\n        /* \"#utility.yul\":3932:3943   */\n      add\n        /* \"#utility.yul\":3926:3944   */\n      mload\n        /* \"#utility.yul\":3922:3923   */\n      dup2\n        /* \"#utility.yul\":3917:3920   */\n      dup5\n        /* \"#utility.yul\":3913:3924   */\n      add\n        /* \"#utility.yul\":3906:3945   */\n      mstore\n        /* \"#utility.yul\":3878:3880   */\n      0x20\n        /* \"#utility.yul\":3875:3876   */\n      dup2\n        /* \"#utility.yul\":3871:3881   */\n      add\n        /* \"#utility.yul\":3866:3881   */\n      swap1\n      pop\n        /* \"#utility.yul\":3842:3955   */\n      jump(tag_90)\n    tag_92:\n        /* \"#utility.yul\":3973:3979   */\n      dup4\n        /* \"#utility.yul\":3970:3971   */\n      dup2\n        /* \"#utility.yul\":3967:3980   */\n      gt\n        /* \"#utility.yul\":3964:4065   */\n      iszero\n      tag_93\n      jumpi\n        /* \"#utility.yul\":4053:4054   */\n      0x00\n        /* \"#utility.yul\":4044:4050   */\n      dup5\n        /* \"#utility.yul\":4039:4042   */\n      dup5\n        /* \"#utility.yul\":4035:4051   */\n      add\n        /* \"#utility.yul\":4028:4055   */\n      mstore\n        /* \"#utility.yul\":3964:4065   */\n    tag_93:\n        /* \"#utility.yul\":3813:4071   */\n      pop\n        /* \"#utility.yul\":3764:4071   */\n      pop\n      pop\n      pop\n      jump\t// out\n        /* \"#utility.yul\":4200:4317   */\n    tag_46:\n        /* \"#utility.yul\":4309:4310   */\n      0x00\n        /* \"#utility.yul\":4306:4307   */\n      dup1\n        /* \"#utility.yul\":4299:4311   */\n      revert\n        /* \"#utility.yul\":4323:4492   */\n    tag_66:\n        /* \"#utility.yul\":4463:4484   */\n      0x64656c656761746563616c6c206661696c656400000000000000000000000000\n        /* \"#utility.yul\":4459:4460   */\n      0x00\n        /* \"#utility.yul\":4451:4457   */\n      dup3\n        /* \"#utility.yul\":4447:4461   */\n      add\n        /* \"#utility.yul\":4440:4485   */\n      mstore\n        /* \"#utility.yul\":4323:4492   */\n      pop\n      jump\t// out\n        /* \"#utility.yul\":4498:4620   */\n    tag_38:\n        /* \"#utility.yul\":4571:4595   */\n      tag_99\n        /* \"#utility.yul\":4589:4594   */\n      dup2\n        /* \"#utility.yul\":4571:4595   */\n      tag_52\n      jump\t// in\n    tag_99:\n        /* \"#utility.yul\":4564:4569   */\n      dup2\n        /* \"#utility.yul\":4561:4596   */\n      eq\n        /* \"#utility.yul\":4551:4614   */\n      tag_100\n      jumpi\n        /* \"#utility.yul\":4610:4611   */\n      0x00\n        /* \"#utility.yul\":4607:4608   */\n      dup1\n        /* \"#utility.yul\":4600:4612   */\n      revert\n        /* \"#utility.yul\":4551:4614   */\n    tag_100:\n        /* \"#utility.yul\":4498:4620   */\n      pop\n      jump\t// out\n        /* \"#utility.yul\":4626:4748   */\n    tag_42:\n        /* \"#utility.yul\":4699:4723   */\n      tag_102\n        /* \"#utility.yul\":4717:4722   */\n      dup2\n        /* \"#utility.yul\":4699:4723   */\n      tag_70\n      jump\t// in\n    tag_102:\n        /* \"#utility.yul\":4692:4697   */\n      dup2\n        /* \"#utility.yul\":4689:4724   */\n      eq\n        /* \"#utility.yul\":4679:4742   */\n      tag_103\n      jumpi\n        /* \"#utility.yul\":4738:4739   */\n      0x00\n        /* \"#utility.yul\":4735:4736   */\n      dup1\n        /* \"#utility.yul\":4728:4740   */\n      revert\n        /* \"#utility.yul\":4679:4742   */\n    tag_103:\n        /* \"#utility.yul\":4626:4748   */\n      pop\n      jump\t// out\n\n    auxdata: 0xa26469706673582212201e478b8e3683ac82a74df8f89d419f0e3d2c8a7e8eb32f6ef0c096e6e5a5582b64736f6c63430008070033\n}\n",
				"bytecode": {
					"linkReferences": {},
					"object": "608060405234801561001057600080fd5b506104ac806100206000396000f3fe60806040526004361061003f5760003560e01c80633fa4f245146100445780634e70b1dc1461006f57806367e404ce1461009a578063d1e0f308146100c5575b600080fd5b34801561005057600080fd5b506100596100e1565b6040516100669190610369565b60405180910390f35b34801561007b57600080fd5b506100846100e7565b6040516100919190610369565b60405180910390f35b3480156100a657600080fd5b506100af6100ed565b6040516100bc919061032e565b60405180910390f35b6100df60048036038101906100da9190610265565b610113565b005b60025481565b60005481565b600160009054906101000a900473ffffffffffffffffffffffffffffffffffffffff1681565b6000808373ffffffffffffffffffffffffffffffffffffffff16636466414b60e01b846040516024016101469190610369565b604051602081830303815290604052907bffffffffffffffffffffffffffffffffffffffffffffffffffffffff19166020820180517bffffffffffffffffffffffffffffffffffffffffffffffffffffffff83818316178352505050506040516101b09190610317565b600060405180830381855af49150503d80600081146101eb576040519150601f19603f3d011682016040523d82523d6000602084013e6101f0565b606091505b509150915081610235576040517f08c379a000000000000000000000000000000000000000000000000000000000815260040161022c90610349565b60405180910390fd5b50505050565b60008135905061024a81610448565b92915050565b60008135905061025f8161045f565b92915050565b6000806040838503121561027c5761027b61041a565b5b600061028a8582860161023b565b925050602061029b85828601610250565b9150509250929050565b6102ae816103ab565b82525050565b60006102bf82610384565b6102c9818561038f565b93506102d98185602086016103e7565b80840191505092915050565b60006102f260138361039a565b91506102fd8261041f565b602082019050919050565b610311816103dd565b82525050565b600061032382846102b4565b915081905092915050565b600060208201905061034360008301846102a5565b92915050565b60006020820190508181036000830152610362816102e5565b9050919050565b600060208201905061037e6000830184610308565b92915050565b600081519050919050565b600081905092915050565b600082825260208201905092915050565b60006103b6826103bd565b9050919050565b600073ffffffffffffffffffffffffffffffffffffffff82169050919050565b6000819050919050565b60005b838110156104055780820151818401526020810190506103ea565b83811115610414576000848401525b50505050565b600080fd5b7f64656c656761746563616c6c206661696c656400000000000000000000000000600082015250565b610451816103ab565b811461045c57600080fd5b50565b610468816103dd565b811461047357600080fd5b5056fea26469706673582212201e478b8e3683ac82a74df8f89d419f0e3d2c8a7e8eb32f6ef0c096e6e5a5582b64736f6c63430008070033",
					"opcodes": "PUSH1 0x80 PUSH1 0x40 MSTORE CALLVALUE DUP1 ISZERO PUSH2 0x10 JUMPI PUSH1 0x0 DUP1 REVERT JUMPDEST POP PUSH2 0x4AC DUP1 PUSH2 0x20 PUSH1 0x0 CODECOPY PUSH1 0x0 RETURN INVALID PUSH1 0x80 PUSH1 0x40 MSTORE PUSH1 0x4 CALLDATASIZE LT PUSH2 0x3F JUMPI PUSH1 0x0 CALLDATALOAD PUSH1 0xE0 SHR DUP1 PUSH4 0x3FA4F245 EQ PUSH2 0x44 JUMPI DUP1 PUSH4 0x4E70B1DC EQ PUSH2 0x6F JUMPI DUP1 PUSH4 0x67E404CE EQ PUSH2 0x9A JUMPI DUP1 PUSH4 0xD1E0F308 EQ PUSH2 0xC5 JUMPI JUMPDEST PUSH1 0x0 DUP1 REVERT JUMPDEST CALLVALUE DUP1 ISZERO PUSH2 0x50 JUMPI PUSH1 0x0 DUP1 REVERT JUMPDEST POP PUSH2 0x59 PUSH2 0xE1 JUMP JUMPDEST PUSH1 0x40 MLOAD PUSH2 0x66 SWAP2 SWAP1 PUSH2 0x369 JUMP JUMPDEST PUSH1 0x40 MLOAD DUP1 SWAP2 SUB SWAP1 RETURN JUMPDEST CALLVALUE DUP1 ISZERO PUSH2 0x7B JUMPI PUSH1 0x0 DUP1 REVERT JUMPDEST POP PUSH2 0x84 PUSH2 0xE7 JUMP JUMPDEST PUSH1 0x40 MLOAD PUSH2 0x91 SWAP2 SWAP1 PUSH2 0x369 JUMP JUMPDEST PUSH1 0x40 MLOAD DUP1 SWAP2 SUB SWAP1 RETURN JUMPDEST CALLVALUE DUP1 ISZERO PUSH2 0xA6 JUMPI PUSH1 0x0 DUP1 REVERT JUMPDEST POP PUSH2 0xAF PUSH2 0xED JUMP JUMPDEST PUSH1 0x40 MLOAD PUSH2 0xBC SWAP2 SWAP1 PUSH2 0x32E JUMP JUMPDEST PUSH1 0x40 MLOAD DUP1 SWAP2 SUB SWAP1 RETURN JUMPDEST PUSH2 0xDF PUSH1 0x4 DUP1 CALLDATASIZE SUB DUP2 ADD SWAP1 PUSH2 0xDA SWAP2 SWAP1 PUSH2 0x265 JUMP JUMPDEST PUSH2 0x113 JUMP JUMPDEST STOP JUMPDEST PUSH1 0x2 SLOAD DUP2 JUMP JUMPDEST PUSH1 0x0 SLOAD DUP2 JUMP JUMPDEST PUSH1 0x1 PUSH1 0x0 SWAP1 SLOAD SWAP1 PUSH2 0x100 EXP SWAP1 DIV PUSH20 0xFFFFFFFFFFFFFFFFFFFFFFFFFFFFFFFFFFFFFFFF AND DUP2 JUMP JUMPDEST PUSH1 0x0 DUP1 DUP4 PUSH20 0xFFFFFFFFFFFFFFFFFFFFFFFFFFFFFFFFFFFFFFFF AND PUSH4 0x6466414B PUSH1 0xE0 SHL DUP5 PUSH1 0x40 MLOAD PUSH1 0x24 ADD PUSH2 0x146 SWAP2 SWAP1 PUSH2 0x369 JUMP JUMPDEST PUSH1 0x40 MLOAD PUSH1 0x20 DUP2 DUP4 SUB SUB DUP2 MSTORE SWAP1 PUSH1 0x40 MSTORE SWAP1 PUSH28 0xFFFFFFFFFFFFFFFFFFFFFFFFFFFFFFFFFFFFFFFFFFFFFFFFFFFFFFFF NOT AND PUSH1 0x20 DUP3 ADD DUP1 MLOAD PUSH28 0xFFFFFFFFFFFFFFFFFFFFFFFFFFFFFFFFFFFFFFFFFFFFFFFFFFFFFFFF DUP4 DUP2 DUP4 AND OR DUP4 MSTORE POP POP POP POP PUSH1 0x40 MLOAD PUSH2 0x1B0 SWAP2 SWAP1 PUSH2 0x317 JUMP JUMPDEST PUSH1 0x0 PUSH1 0x40 MLOAD DUP1 DUP4 SUB DUP2 DUP6 GAS DELEGATECALL SWAP2 POP POP RETURNDATASIZE DUP1 PUSH1 0x0 DUP2 EQ PUSH2 0x1EB JUMPI PUSH1 0x40 MLOAD SWAP2 POP PUSH1 0x1F NOT PUSH1 0x3F RETURNDATASIZE ADD AND DUP3 ADD PUSH1 0x40 MSTORE RETURNDATASIZE DUP3 MSTORE RETURNDATASIZE PUSH1 0x0 PUSH1 0x20 DUP5 ADD RETURNDATACOPY PUSH2 0x1F0 JUMP JUMPDEST PUSH1 0x60 SWAP2 POP JUMPDEST POP SWAP2 POP SWAP2 POP DUP2 PUSH2 0x235 JUMPI PUSH1 0x40 MLOAD PUSH32 0x8C379A000000000000000000000000000000000000000000000000000000000 DUP2 MSTORE PUSH1 0x4 ADD PUSH2 0x22C SWAP1 PUSH2 0x349 JUMP JUMPDEST PUSH1 0x40 MLOAD DUP1 SWAP2 SUB SWAP1 REVERT JUMPDEST POP POP POP POP JUMP JUMPDEST PUSH1 0x0 DUP2 CALLDATALOAD SWAP1 POP PUSH2 0x24A DUP2 PUSH2 0x448 JUMP JUMPDEST SWAP3 SWAP2 POP POP JUMP JUMPDEST PUSH1 0x0 DUP2 CALLDATALOAD SWAP1 POP PUSH2 0x25F DUP2 PUSH2 0x45F JUMP JUMPDEST SWAP3 SWAP2 POP POP JUMP JUMPDEST PUSH1 0x0 DUP1 PUSH1 0x40 DUP4 DUP6 SUB SLT ISZERO PUSH2 0x27C JUMPI PUSH2 0x27B PUSH2 0x41A JUMP JUMPDEST JUMPDEST PUSH1 0x0 PUSH2 0x28A DUP6 DUP3 DUP7 ADD PUSH2 0x23B JUMP JUMPDEST SWAP3 POP POP PUSH1 0x20 PUSH2 0x29B DUP6 DUP3 DUP7 ADD PUSH2 0x250 JUMP JUMPDEST SWAP2 POP POP SWAP3 POP SWAP3 SWAP1 POP JUMP JUMPDEST PUSH2 0x2AE DUP2 PUSH2 0x3AB JUMP JUMPDEST DUP3 MSTORE POP POP JUMP JUMPDEST PUSH1 0x0 PUSH2 0x2BF DUP3 PUSH2 0x384 JUMP JUMPDEST PUSH2 0x2C9 DUP2 DUP6 PUSH2 0x38F JUMP JUMPDEST SWAP4 POP PUSH2 0x2D9 DUP2 DUP6 PUSH1 0x20 DUP7 ADD PUSH2 0x3E7 JUMP JUMPDEST DUP1 DUP5 ADD SWAP2 POP POP SWAP3 SWAP2 POP POP JUMP JUMPDEST PUSH1 0x0 PUSH2 0x2F2 PUSH1 0x13 DUP4 PUSH2 0x39A JUMP JUMPDEST SWAP2 POP PUSH2 0x2FD DUP3 PUSH2 0x41F JUMP JUMPDEST PUSH1 0x20 DUP3 ADD SWAP1 POP SWAP2 SWAP1 POP JUMP JUMPDEST PUSH2 0x311 DUP2 PUSH2 0x3DD JUMP JUMPDEST DUP3 MSTORE POP POP JUMP JUMPDEST PUSH1 0x0 PUSH2 0x323 DUP3 DUP5 PUSH2 0x2B4 JUMP JUMPDEST SWAP2 POP DUP2 SWAP1 POP SWAP3 SWAP2 POP POP JUMP JUMPDEST PUSH1 0x0 PUSH1 0x20 DUP3 ADD SWAP1 POP PUSH2 0x343 PUSH1 0x0 DUP4 ADD DUP5 PUSH2 0x2A5 JUMP JUMPDEST SWAP3 SWAP2 POP POP JUMP JUMPDEST PUSH1 0x0 PUSH1 0x20 DUP3 ADD SWAP1 POP DUP2 DUP2 SUB PUSH1 0x0 DUP4 ADD MSTORE PUSH2 0x362 DUP2 PUSH2 0x2E5 JUMP JUMPDEST SWAP1 POP SWAP2 SWAP1 POP JUMP JUMPDEST PUSH1 0x0 PUSH1 0x20 DUP3 ADD SWAP1 POP PUSH2 0x37E PUSH1 0x0 DUP4 ADD DUP5 PUSH2 0x308 JUMP JUMPDEST SWAP3 SWAP2 POP POP JUMP JUMPDEST PUSH1 0x0 DUP2 MLOAD SWAP1 POP SWAP2 SWAP1 POP JUMP JUMPDEST PUSH1 0x0 DUP2 SWAP1 POP SWAP3 SWAP2 POP POP JUMP JUMPDEST PUSH1 0x0 DUP3 DUP3 MSTORE PUSH1 0x20 DUP3 ADD SWAP1 POP SWAP3 SWAP2 POP POP JUMP JUMPDEST PUSH1 0x0 PUSH2 0x3B6 DUP3 PUSH2 0x3BD JUMP JUMPDEST SWAP1 POP SWAP2 SWAP1 POP JUMP JUMPDEST PUSH1 0x0 PUSH20 0xFFFFFFFFFFFFFFFFFFFFFFFFFFFFFFFFFFFFFFFF DUP3 AND SWAP1 POP SWAP2 SWAP1 POP JUMP JUMPDEST PUSH1 0x0 DUP2 SWAP1 POP SWAP2 SWAP1 POP JUMP JUMPDEST PUSH1 0x0 JUMPDEST DUP4 DUP2 LT ISZERO PUSH2 0x405 JUMPI DUP1 DUP3 ADD MLOAD DUP2 DUP5 ADD MSTORE PUSH1 0x20 DUP2 ADD SWAP1 POP PUSH2 0x3EA JUMP JUMPDEST DUP4 DUP2 GT ISZERO PUSH2 0x414 JUMPI PUSH1 0x0 DUP5 DUP5 ADD MSTORE JUMPDEST POP POP POP POP JUMP JUMPDEST PUSH1 0x0 DUP1 REVERT JUMPDEST PUSH32 0x64656C656761746563616C6C206661696C656400000000000000000000000000 PUSH1 0x0 DUP3 ADD MSTORE POP JUMP JUMPDEST PUSH2 0x451 DUP2 PUSH2 0x3AB JUMP JUMPDEST DUP2 EQ PUSH2 0x45C JUMPI PUSH1 0x0 DUP1 REVERT JUMPDEST POP JUMP JUMPDEST PUSH2 0x468 DUP2 PUSH2 0x3DD JUMP JUMPDEST DUP2 EQ PUSH2 0x473 JUMPI PUSH1 0x0 DUP1 REVERT JUMPDEST POP JUMP INVALID LOG2 PUSH5 0x6970667358 0x22 SLT KECCAK256 0x1E SELFBALANCE DUP12 DUP15 CALLDATASIZE DUP4 0xAC DUP3 0xA7 0x4D 0xF8 0xF8 SWAP14 COINBASE SWAP16 0xE RETURNDATASIZE 0x2C DUP11 PUSH31 0x8EB32F6EF0C096E6E5A5582B64736F6C634300080700330000000000000000 "
				},
				"gasEstimates": {
					"creation": {
						"codeDepositCost": "239200",
						"executionCost": "281",
						"totalCost": "239481"
					},
					"external": {
						"num()": "2429",
						"sender()": "2536",
						"setVars(address,uint256)": "infinite",
						"value()": "2407"
					}
				},
				"methodIdentifiers": {
					"num()": "4e70b1dc",
					"sender()": "67e404ce",
					"setVars(address,uint256)": "d1e0f308",
					"value()": "3fa4f245"
				}
			},
			"storageLayout": {
				"storage": [
					{
						"astId": 36,
						"contract": "contracts/DelegateCall.sol:DelegateCall",
						"label": "num",
						"offset": 0,
						"slot": "0",
						"type": "t_uint256"
					},
					{
						"astId": 38,
						"contract": "contracts/DelegateCall.sol:DelegateCall",
						"label": "sender",
						"offset": 0,
						"slot": "1",
						"type": "t_address"
					},
					{
						"astId": 40,
						"contract": "contracts/DelegateCall.sol:DelegateCall",
						"label": "value",
						"offset": 0,
						"slot": "2",
						"type": "t_uint256"
					}
				],
				"types": {
					"t_address": {
						"encoding": "inplace",
						"label": "address",
						"numberOfBytes": "20"
					},
					"t_uint256": {
						"encoding": "inplace",
						"label": "uint256",
						"numberOfBytes": "32"
					}
				}
			},
			"userdoc": {
				"kind": "user",
				"methods": {},
				"version": 1
			}
		}
	}
}