{
	"contracts/TodoList.sol": {
		"TodoList": {
			"abi": [
				{
					"inputs": [
						{
							"internalType": "string",
							"name": "_text",
							"type": "string"
						}
					],
					"name": "create",
					"outputs": [],
					"stateMutability": "nonpayable",
					"type": "function"
				},
				{
					"inputs": [
						{
							"internalType": "uint256",
							"name": "_index",
							"type": "uint256"
						}
					],
					"name": "get",
					"outputs": [
						{
							"internalType": "string",
							"name": "",
							"type": "string"
						},
						{
							"internalType": "bool",
							"name": "",
							"type": "bool"
						}
					],
					"stateMutability": "view",
					"type": "function"
				},
				{
					"inputs": [
						{
							"internalType": "uint256",
							"name": "_index",
							"type": "uint256"
						}
					],
					"name": "get2",
					"outputs": [
						{
							"internalType": "string",
							"name": "",
							"type": "string"
						},
						{
							"internalType": "bool",
							"name": "",
							"type": "bool"
						}
					],
					"stateMutability": "view",
					"type": "function"
				},
				{
					"inputs": [
						{
							"internalType": "uint256",
							"name": "",
							"type": "uint256"
						}
					],
					"name": "todos",
					"outputs": [
						{
							"internalType": "string",
							"name": "text",
							"type": "string"
						},
						{
							"internalType": "bool",
							"name": "completed",
							"type": "bool"
						}
					],
					"stateMutability": "view",
					"type": "function"
				},
				{
					"inputs": [
						{
							"internalType": "uint256",
							"name": "_index",
							"type": "uint256"
						}
					],
					"name": "toggleCompleted",
					"outputs": [],
					"stateMutability": "nonpayable",
					"type": "function"
				},
				{
					"inputs": [
						{
							"internalType": "uint256",
							"name": "_index",
							"type": "uint256"
						}
					],
					"name": "toggleCompleted2",
					"outputs": [],
					"stateMutability": "nonpayable",
					"type": "function"
				},
				{
					"inputs": [
						{
							"internalType": "uint256",
							"name": "_index",
							"type": "uint256"
						},
						{
							"internalType": "string",
							"name": "_text",
							"type": "string"
						}
					],
					"name": "updateText",
					"outputs": [],
					"stateMutability": "nonpayable",
					"type": "function"
				}
			],
			"devdoc": {
				"kind": "dev",
				"methods": {},
				"version": 1
			},
			"evm": {
				"assembly": "    /* \"contracts/TodoList.sol\":61:1882  contract TodoList {... */\n  mstore(0x40, 0x80)\n  callvalue\n  dup1\n  iszero\n  tag_1\n  jumpi\n  0x00\n  dup1\n  revert\ntag_1:\n  pop\n  dataSize(sub_0)\n  dup1\n  dataOffset(sub_0)\n  0x00\n  codecopy\n  0x00\n  return\nstop\n\nsub_0: assembly {\n        /* \"contracts/TodoList.sol\":61:1882  contract TodoList {... */\n      mstore(0x40, 0x80)\n      callvalue\n      dup1\n      iszero\n      tag_1\n      jumpi\n      0x00\n      dup1\n      revert\n    tag_1:\n      pop\n      jumpi(tag_2, lt(calldatasize, 0x04))\n      shr(0xe0, calldataload(0x00))\n      dup1\n      0x9507d39a\n      gt\n      tag_10\n      jumpi\n      dup1\n      0x9507d39a\n      eq\n      tag_6\n      jumpi\n      dup1\n      0xb6a46b3b\n      eq\n      tag_7\n      jumpi\n      dup1\n      0xbc8bc2b4\n      eq\n      tag_8\n      jumpi\n      dup1\n      0xcd111614\n      eq\n      tag_9\n      jumpi\n      jump(tag_2)\n    tag_10:\n      dup1\n      0x0a66a6b2\n      eq\n      tag_3\n      jumpi\n      dup1\n      0x31184dc3\n      eq\n      tag_4\n      jumpi\n      dup1\n      0x455f5024\n      eq\n      tag_5\n      jumpi\n    tag_2:\n      0x00\n      dup1\n      revert\n        /* \"contracts/TodoList.sol\":1748:1880  function toggleCompleted2(uint _index) external {... */\n    tag_3:\n      tag_11\n      0x04\n      dup1\n      calldatasize\n      sub\n      dup2\n      add\n      swap1\n      tag_12\n      swap2\n      swap1\n      tag_13\n      jump\t// in\n    tag_12:\n      tag_14\n      jump\t// in\n    tag_11:\n      stop\n        /* \"contracts/TodoList.sol\":1373:1558  function get2(uint _index) external view returns (string memory, bool) {... */\n    tag_4:\n      tag_15\n      0x04\n      dup1\n      calldatasize\n      sub\n      dup2\n      add\n      swap1\n      tag_16\n      swap2\n      swap1\n      tag_13\n      jump\t// in\n    tag_16:\n      tag_17\n      jump\t// in\n    tag_15:\n      mload(0x40)\n      tag_18\n      swap3\n      swap2\n      swap1\n      tag_19\n      jump\t// in\n    tag_18:\n      mload(0x40)\n      dup1\n      swap2\n      sub\n      swap1\n      return\n        /* \"contracts/TodoList.sol\":1564:1742  function toggleCompleted(uint _index) external {... */\n    tag_5:\n      tag_20\n      0x04\n      dup1\n      calldatasize\n      sub\n      dup2\n      add\n      swap1\n      tag_21\n      swap2\n      swap1\n      tag_13\n      jump\t// in\n    tag_21:\n      tag_22\n      jump\t// in\n    tag_20:\n      stop\n        /* \"contracts/TodoList.sol\":1075:1367  function get(uint _index) external view returns (string memory, bool) {... */\n    tag_6:\n      tag_23\n      0x04\n      dup1\n      calldatasize\n      sub\n      dup2\n      add\n      swap1\n      tag_24\n      swap2\n      swap1\n      tag_13\n      jump\t// in\n    tag_24:\n      tag_25\n      jump\t// in\n    tag_23:\n      mload(0x40)\n      tag_26\n      swap3\n      swap2\n      swap1\n      tag_19\n      jump\t// in\n    tag_26:\n      mload(0x40)\n      dup1\n      swap2\n      sub\n      swap1\n      return\n        /* \"contracts/TodoList.sol\":181:329  function create(string calldata _text) external {... */\n    tag_7:\n      tag_27\n      0x04\n      dup1\n      calldatasize\n      sub\n      dup2\n      add\n      swap1\n      tag_28\n      swap2\n      swap1\n      tag_29\n      jump\t// in\n    tag_28:\n      tag_30\n      jump\t// in\n    tag_27:\n      stop\n        /* \"contracts/TodoList.sol\":155:174  Todo[] public todos */\n    tag_8:\n      tag_31\n      0x04\n      dup1\n      calldatasize\n      sub\n      dup2\n      add\n      swap1\n      tag_32\n      swap2\n      swap1\n      tag_13\n      jump\t// in\n    tag_32:\n      tag_33\n      jump\t// in\n    tag_31:\n      mload(0x40)\n      tag_34\n      swap3\n      swap2\n      swap1\n      tag_19\n      jump\t// in\n    tag_34:\n      mload(0x40)\n      dup1\n      swap2\n      sub\n      swap1\n      return\n        /* \"contracts/TodoList.sol\":335:1069  function updateText(uint _index, string calldata _text) external {... */\n    tag_9:\n      tag_35\n      0x04\n      dup1\n      calldatasize\n      sub\n      dup2\n      add\n      swap1\n      tag_36\n      swap2\n      swap1\n      tag_37\n      jump\t// in\n    tag_36:\n      tag_38\n      jump\t// in\n    tag_35:\n      stop\n        /* \"contracts/TodoList.sol\":1748:1880  function toggleCompleted2(uint _index) external {... */\n    tag_14:\n        /* \"contracts/TodoList.sol\":1850:1855  todos */\n      0x00\n        /* \"contracts/TodoList.sol\":1856:1862  _index */\n      dup2\n        /* \"contracts/TodoList.sol\":1850:1863  todos[_index] */\n      dup2\n      sload\n      dup2\n      lt\n      tag_40\n      jumpi\n      tag_41\n      tag_42\n      jump\t// in\n    tag_41:\n    tag_40:\n      swap1\n      0x00\n      mstore\n      keccak256(0x00, 0x20)\n      swap1\n      0x02\n      mul\n      add\n        /* \"contracts/TodoList.sol\":1850:1873  todos[_index].completed */\n      0x01\n      add\n      0x00\n      swap1\n      sload\n      swap1\n      0x0100\n      exp\n      swap1\n      div\n      0xff\n      and\n        /* \"contracts/TodoList.sol\":1849:1873  !todos[_index].completed */\n      iszero\n        /* \"contracts/TodoList.sol\":1823:1828  todos */\n      0x00\n        /* \"contracts/TodoList.sol\":1829:1835  _index */\n      dup3\n        /* \"contracts/TodoList.sol\":1823:1836  todos[_index] */\n      dup2\n      sload\n      dup2\n      lt\n      tag_44\n      jumpi\n      tag_45\n      tag_42\n      jump\t// in\n    tag_45:\n    tag_44:\n      swap1\n      0x00\n      mstore\n      keccak256(0x00, 0x20)\n      swap1\n      0x02\n      mul\n      add\n        /* \"contracts/TodoList.sol\":1823:1846  todos[_index].completed */\n      0x01\n      add\n      0x00\n        /* \"contracts/TodoList.sol\":1823:1873  todos[_index].completed = !todos[_index].completed */\n      0x0100\n      exp\n      dup2\n      sload\n      dup2\n      0xff\n      mul\n      not\n      and\n      swap1\n      dup4\n      iszero\n      iszero\n      mul\n      or\n      swap1\n      sstore\n      pop\n        /* \"contracts/TodoList.sol\":1748:1880  function toggleCompleted2(uint _index) external {... */\n      pop\n      jump\t// out\n        /* \"contracts/TodoList.sol\":1373:1558  function get2(uint _index) external view returns (string memory, bool) {... */\n    tag_17:\n        /* \"contracts/TodoList.sol\":1423:1436  string memory */\n      0x60\n        /* \"contracts/TodoList.sol\":1438:1442  bool */\n      0x00\n        /* \"contracts/TodoList.sol\":1507:1512  todos */\n      dup1\n        /* \"contracts/TodoList.sol\":1513:1519  _index */\n      dup4\n        /* \"contracts/TodoList.sol\":1507:1520  todos[_index] */\n      dup2\n      sload\n      dup2\n      lt\n      tag_48\n      jumpi\n      tag_49\n      tag_42\n      jump\t// in\n    tag_49:\n    tag_48:\n      swap1\n      0x00\n      mstore\n      keccak256(0x00, 0x20)\n      swap1\n      0x02\n      mul\n      add\n        /* \"contracts/TodoList.sol\":1507:1525  todos[_index].text */\n      0x00\n      add\n        /* \"contracts/TodoList.sol\":1527:1532  todos */\n      0x00\n        /* \"contracts/TodoList.sol\":1533:1539  _index */\n      dup5\n        /* \"contracts/TodoList.sol\":1527:1540  todos[_index] */\n      dup2\n      sload\n      dup2\n      lt\n      tag_51\n      jumpi\n      tag_52\n      tag_42\n      jump\t// in\n    tag_52:\n    tag_51:\n      swap1\n      0x00\n      mstore\n      keccak256(0x00, 0x20)\n      swap1\n      0x02\n      mul\n      add\n        /* \"contracts/TodoList.sol\":1527:1550  todos[_index].completed */\n      0x01\n      add\n      0x00\n      swap1\n      sload\n      swap1\n      0x0100\n      exp\n      swap1\n      div\n      0xff\n      and\n        /* \"contracts/TodoList.sol\":1499:1551  return (todos[_index].text, todos[_index].completed) */\n      dup2\n      dup1\n      sload\n      tag_54\n      swap1\n      tag_55\n      jump\t// in\n    tag_54:\n      dup1\n      0x1f\n      add\n      0x20\n      dup1\n      swap2\n      div\n      mul\n      0x20\n      add\n      mload(0x40)\n      swap1\n      dup2\n      add\n      0x40\n      mstore\n      dup1\n      swap3\n      swap2\n      swap1\n      dup2\n      dup2\n      mstore\n      0x20\n      add\n      dup3\n      dup1\n      sload\n      tag_56\n      swap1\n      tag_55\n      jump\t// in\n    tag_56:\n      dup1\n      iszero\n      tag_57\n      jumpi\n      dup1\n      0x1f\n      lt\n      tag_58\n      jumpi\n      0x0100\n      dup1\n      dup4\n      sload\n      div\n      mul\n      dup4\n      mstore\n      swap2\n      0x20\n      add\n      swap2\n      jump(tag_57)\n    tag_58:\n      dup3\n      add\n      swap2\n      swap1\n      0x00\n      mstore\n      keccak256(0x00, 0x20)\n      swap1\n    tag_59:\n      dup2\n      sload\n      dup2\n      mstore\n      swap1\n      0x01\n      add\n      swap1\n      0x20\n      add\n      dup1\n      dup4\n      gt\n      tag_59\n      jumpi\n      dup3\n      swap1\n      sub\n      0x1f\n      and\n      dup3\n      add\n      swap2\n    tag_57:\n      pop\n      pop\n      pop\n      pop\n      pop\n      swap2\n      pop\n      swap2\n      pop\n      swap2\n      pop\n        /* \"contracts/TodoList.sol\":1373:1558  function get2(uint _index) external view returns (string memory, bool) {... */\n      swap2\n      pop\n      swap2\n      jump\t// out\n        /* \"contracts/TodoList.sol\":1564:1742  function toggleCompleted(uint _index) external {... */\n    tag_22:\n        /* \"contracts/TodoList.sol\":1660:1677  Todo storage todo */\n      0x00\n        /* \"contracts/TodoList.sol\":1680:1685  todos */\n      dup1\n        /* \"contracts/TodoList.sol\":1686:1692  _index */\n      dup3\n        /* \"contracts/TodoList.sol\":1680:1693  todos[_index] */\n      dup2\n      sload\n      dup2\n      lt\n      tag_61\n      jumpi\n      tag_62\n      tag_42\n      jump\t// in\n    tag_62:\n    tag_61:\n      swap1\n      0x00\n      mstore\n      keccak256(0x00, 0x20)\n      swap1\n      0x02\n      mul\n      add\n        /* \"contracts/TodoList.sol\":1660:1693  Todo storage todo = todos[_index] */\n      swap1\n      pop\n        /* \"contracts/TodoList.sol\":1721:1725  todo */\n      dup1\n        /* \"contracts/TodoList.sol\":1721:1735  todo.completed */\n      0x01\n      add\n      0x00\n      swap1\n      sload\n      swap1\n      0x0100\n      exp\n      swap1\n      div\n      0xff\n      and\n        /* \"contracts/TodoList.sol\":1720:1735  !todo.completed */\n      iszero\n        /* \"contracts/TodoList.sol\":1703:1707  todo */\n      dup2\n        /* \"contracts/TodoList.sol\":1703:1717  todo.completed */\n      0x01\n      add\n      0x00\n        /* \"contracts/TodoList.sol\":1703:1735  todo.completed = !todo.completed */\n      0x0100\n      exp\n      dup2\n      sload\n      dup2\n      0xff\n      mul\n      not\n      and\n      swap1\n      dup4\n      iszero\n      iszero\n      mul\n      or\n      swap1\n      sstore\n      pop\n        /* \"contracts/TodoList.sol\":1611:1742  {... */\n      pop\n        /* \"contracts/TodoList.sol\":1564:1742  function toggleCompleted(uint _index) external {... */\n      pop\n      jump\t// out\n        /* \"contracts/TodoList.sol\":1075:1367  function get(uint _index) external view returns (string memory, bool) {... */\n    tag_25:\n        /* \"contracts/TodoList.sol\":1124:1137  string memory */\n      0x60\n        /* \"contracts/TodoList.sol\":1139:1143  bool */\n      0x00\n        /* \"contracts/TodoList.sol\":1283:1300  Todo storage todo */\n      dup1\n        /* \"contracts/TodoList.sol\":1303:1308  todos */\n      0x00\n        /* \"contracts/TodoList.sol\":1309:1315  _index */\n      dup5\n        /* \"contracts/TodoList.sol\":1303:1316  todos[_index] */\n      dup2\n      sload\n      dup2\n      lt\n      tag_65\n      jumpi\n      tag_66\n      tag_42\n      jump\t// in\n    tag_66:\n    tag_65:\n      swap1\n      0x00\n      mstore\n      keccak256(0x00, 0x20)\n      swap1\n      0x02\n      mul\n      add\n        /* \"contracts/TodoList.sol\":1283:1316  Todo storage todo = todos[_index] */\n      swap1\n      pop\n        /* \"contracts/TodoList.sol\":1334:1338  todo */\n      dup1\n        /* \"contracts/TodoList.sol\":1334:1343  todo.text */\n      0x00\n      add\n        /* \"contracts/TodoList.sol\":1345:1349  todo */\n      dup2\n        /* \"contracts/TodoList.sol\":1345:1359  todo.completed */\n      0x01\n      add\n      0x00\n      swap1\n      sload\n      swap1\n      0x0100\n      exp\n      swap1\n      div\n      0xff\n      and\n        /* \"contracts/TodoList.sol\":1326:1360  return (todo.text, todo.completed) */\n      dup2\n      dup1\n      sload\n      tag_68\n      swap1\n      tag_55\n      jump\t// in\n    tag_68:\n      dup1\n      0x1f\n      add\n      0x20\n      dup1\n      swap2\n      div\n      mul\n      0x20\n      add\n      mload(0x40)\n      swap1\n      dup2\n      add\n      0x40\n      mstore\n      dup1\n      swap3\n      swap2\n      swap1\n      dup2\n      dup2\n      mstore\n      0x20\n      add\n      dup3\n      dup1\n      sload\n      tag_69\n      swap1\n      tag_55\n      jump\t// in\n    tag_69:\n      dup1\n      iszero\n      tag_70\n      jumpi\n      dup1\n      0x1f\n      lt\n      tag_71\n      jumpi\n      0x0100\n      dup1\n      dup4\n      sload\n      div\n      mul\n      dup4\n      mstore\n      swap2\n      0x20\n      add\n      swap2\n      jump(tag_70)\n    tag_71:\n      dup3\n      add\n      swap2\n      swap1\n      0x00\n      mstore\n      keccak256(0x00, 0x20)\n      swap1\n    tag_72:\n      dup2\n      sload\n      dup2\n      mstore\n      swap1\n      0x01\n      add\n      swap1\n      0x20\n      add\n      dup1\n      dup4\n      gt\n      tag_72\n      jumpi\n      dup3\n      swap1\n      sub\n      0x1f\n      and\n      dup3\n      add\n      swap2\n    tag_70:\n      pop\n      pop\n      pop\n      pop\n      pop\n      swap2\n      pop\n      swap3\n      pop\n      swap3\n      pop\n      pop\n        /* \"contracts/TodoList.sol\":1075:1367  function get(uint _index) external view returns (string memory, bool) {... */\n      swap2\n      pop\n      swap2\n      jump\t// out\n        /* \"contracts/TodoList.sol\":181:329  function create(string calldata _text) external {... */\n    tag_30:\n        /* \"contracts/TodoList.sol\":239:244  todos */\n      0x00\n        /* \"contracts/TodoList.sol\":250:321  Todo({... */\n      mload(0x40)\n      dup1\n      0x40\n      add\n      0x40\n      mstore\n      dup1\n        /* \"contracts/TodoList.sol\":275:280  _text */\n      dup5\n      dup5\n        /* \"contracts/TodoList.sol\":250:321  Todo({... */\n      dup1\n      dup1\n      0x1f\n      add\n      0x20\n      dup1\n      swap2\n      div\n      mul\n      0x20\n      add\n      mload(0x40)\n      swap1\n      dup2\n      add\n      0x40\n      mstore\n      dup1\n      swap4\n      swap3\n      swap2\n      swap1\n      dup2\n      dup2\n      mstore\n      0x20\n      add\n      dup4\n      dup4\n      dup1\n      dup3\n      dup5\n      calldatacopy\n      0x00\n      dup2\n      dup5\n      add\n      mstore\n      not(0x1f)\n      0x1f\n      dup3\n      add\n      and\n      swap1\n      pop\n      dup1\n      dup4\n      add\n      swap3\n      pop\n      pop\n      pop\n      pop\n      pop\n      pop\n      pop\n      dup2\n      mstore\n      0x20\n      add\n        /* \"contracts/TodoList.sol\":305:310  false */\n      0x00\n        /* \"contracts/TodoList.sol\":250:321  Todo({... */\n      iszero\n      iszero\n      dup2\n      mstore\n      pop\n        /* \"contracts/TodoList.sol\":239:322  todos.push(Todo({... */\n      swap1\n      dup1\n      0x01\n      dup2\n      sload\n      add\n      dup1\n      dup3\n      sstore\n      dup1\n      swap2\n      pop\n      pop\n      0x01\n      swap1\n      sub\n      swap1\n      0x00\n      mstore\n      keccak256(0x00, 0x20)\n      swap1\n      0x02\n      mul\n      add\n      0x00\n      swap1\n      swap2\n      swap1\n      swap2\n      swap1\n      swap2\n      pop\n      0x00\n      dup3\n      add\n      mload\n      dup2\n      0x00\n      add\n      swap1\n      dup1\n      mload\n      swap1\n      0x20\n      add\n      swap1\n      tag_75\n      swap3\n      swap2\n      swap1\n      tag_76\n      jump\t// in\n    tag_75:\n      pop\n      0x20\n      dup3\n      add\n      mload\n      dup2\n      0x01\n      add\n      exp(0x0100, 0x00)\n      dup2\n      sload\n      dup2\n      0xff\n      mul\n      not\n      and\n      swap1\n      dup4\n      iszero\n      iszero\n      mul\n      or\n      swap1\n      sstore\n      pop\n      pop\n      pop\n        /* \"contracts/TodoList.sol\":181:329  function create(string calldata _text) external {... */\n      pop\n      pop\n      jump\t// out\n        /* \"contracts/TodoList.sol\":155:174  Todo[] public todos */\n    tag_33:\n      0x00\n      dup2\n      dup2\n      sload\n      dup2\n      lt\n      tag_77\n      jumpi\n      0x00\n      dup1\n      revert\n    tag_77:\n      swap1\n      0x00\n      mstore\n      keccak256(0x00, 0x20)\n      swap1\n      0x02\n      mul\n      add\n      0x00\n      swap2\n      pop\n      swap1\n      pop\n      dup1\n      0x00\n      add\n      dup1\n      sload\n      tag_79\n      swap1\n      tag_55\n      jump\t// in\n    tag_79:\n      dup1\n      0x1f\n      add\n      0x20\n      dup1\n      swap2\n      div\n      mul\n      0x20\n      add\n      mload(0x40)\n      swap1\n      dup2\n      add\n      0x40\n      mstore\n      dup1\n      swap3\n      swap2\n      swap1\n      dup2\n      dup2\n      mstore\n      0x20\n      add\n      dup3\n      dup1\n      sload\n      tag_80\n      swap1\n      tag_55\n      jump\t// in\n    tag_80:\n      dup1\n      iszero\n      tag_81\n      jumpi\n      dup1\n      0x1f\n      lt\n      tag_82\n      jumpi\n      0x0100\n      dup1\n      dup4\n      sload\n      div\n      mul\n      dup4\n      mstore\n      swap2\n      0x20\n      add\n      swap2\n      jump(tag_81)\n    tag_82:\n      dup3\n      add\n      swap2\n      swap1\n      0x00\n      mstore\n      keccak256(0x00, 0x20)\n      swap1\n    tag_83:\n      dup2\n      sload\n      dup2\n      mstore\n      swap1\n      0x01\n      add\n      swap1\n      0x20\n      add\n      dup1\n      dup4\n      gt\n      tag_83\n      jumpi\n      dup3\n      swap1\n      sub\n      0x1f\n      and\n      dup3\n      add\n      swap2\n    tag_81:\n      pop\n      pop\n      pop\n      pop\n      pop\n      swap1\n      dup1\n      0x01\n      add\n      0x00\n      swap1\n      sload\n      swap1\n      0x0100\n      exp\n      swap1\n      div\n      0xff\n      and\n      swap1\n      pop\n      dup3\n      jump\t// out\n        /* \"contracts/TodoList.sol\":335:1069  function updateText(uint _index, string calldata _text) external {... */\n    tag_38:\n        /* \"contracts/TodoList.sol\":597:602  _text */\n      dup2\n      dup2\n        /* \"contracts/TodoList.sol\":576:581  todos */\n      0x00\n        /* \"contracts/TodoList.sol\":582:588  _index */\n      dup6\n        /* \"contracts/TodoList.sol\":576:589  todos[_index] */\n      dup2\n      sload\n      dup2\n      lt\n      tag_85\n      jumpi\n      tag_86\n      tag_42\n      jump\t// in\n    tag_86:\n    tag_85:\n      swap1\n      0x00\n      mstore\n      keccak256(0x00, 0x20)\n      swap1\n      0x02\n      mul\n      add\n        /* \"contracts/TodoList.sol\":576:594  todos[_index].text */\n      0x00\n      add\n        /* \"contracts/TodoList.sol\":576:602  todos[_index].text = _text */\n      swap2\n      swap1\n      tag_88\n      swap3\n      swap2\n      swap1\n      tag_89\n      jump\t// in\n    tag_88:\n      pop\n        /* \"contracts/TodoList.sol\":633:638  _text */\n      dup2\n      dup2\n        /* \"contracts/TodoList.sol\":612:617  todos */\n      0x00\n        /* \"contracts/TodoList.sol\":618:624  _index */\n      dup6\n        /* \"contracts/TodoList.sol\":612:625  todos[_index] */\n      dup2\n      sload\n      dup2\n      lt\n      tag_90\n      jumpi\n      tag_91\n      tag_42\n      jump\t// in\n    tag_91:\n    tag_90:\n      swap1\n      0x00\n      mstore\n      keccak256(0x00, 0x20)\n      swap1\n      0x02\n      mul\n      add\n        /* \"contracts/TodoList.sol\":612:630  todos[_index].text */\n      0x00\n      add\n        /* \"contracts/TodoList.sol\":612:638  todos[_index].text = _text */\n      swap2\n      swap1\n      tag_93\n      swap3\n      swap2\n      swap1\n      tag_89\n      jump\t// in\n    tag_93:\n      pop\n        /* \"contracts/TodoList.sol\":669:674  _text */\n      dup2\n      dup2\n        /* \"contracts/TodoList.sol\":648:653  todos */\n      0x00\n        /* \"contracts/TodoList.sol\":654:660  _index */\n      dup6\n        /* \"contracts/TodoList.sol\":648:661  todos[_index] */\n      dup2\n      sload\n      dup2\n      lt\n      tag_94\n      jumpi\n      tag_95\n      tag_42\n      jump\t// in\n    tag_95:\n    tag_94:\n      swap1\n      0x00\n      mstore\n      keccak256(0x00, 0x20)\n      swap1\n      0x02\n      mul\n      add\n        /* \"contracts/TodoList.sol\":648:666  todos[_index].text */\n      0x00\n      add\n        /* \"contracts/TodoList.sol\":648:674  todos[_index].text = _text */\n      swap2\n      swap1\n      tag_97\n      swap3\n      swap2\n      swap1\n      tag_89\n      jump\t// in\n    tag_97:\n      pop\n        /* \"contracts/TodoList.sol\":705:710  _text */\n      dup2\n      dup2\n        /* \"contracts/TodoList.sol\":684:689  todos */\n      0x00\n        /* \"contracts/TodoList.sol\":690:696  _index */\n      dup6\n        /* \"contracts/TodoList.sol\":684:697  todos[_index] */\n      dup2\n      sload\n      dup2\n      lt\n      tag_98\n      jumpi\n      tag_99\n      tag_42\n      jump\t// in\n    tag_99:\n    tag_98:\n      swap1\n      0x00\n      mstore\n      keccak256(0x00, 0x20)\n      swap1\n      0x02\n      mul\n      add\n        /* \"contracts/TodoList.sol\":684:702  todos[_index].text */\n      0x00\n      add\n        /* \"contracts/TodoList.sol\":684:710  todos[_index].text = _text */\n      swap2\n      swap1\n      tag_101\n      swap3\n      swap2\n      swap1\n      tag_89\n      jump\t// in\n    tag_101:\n      pop\n        /* \"contracts/TodoList.sol\":335:1069  function updateText(uint _index, string calldata _text) external {... */\n      pop\n      pop\n      pop\n      jump\t// out\n    tag_76:\n      dup3\n      dup1\n      sload\n      tag_102\n      swap1\n      tag_55\n      jump\t// in\n    tag_102:\n      swap1\n      0x00\n      mstore\n      keccak256(0x00, 0x20)\n      swap1\n      0x1f\n      add\n      0x20\n      swap1\n      div\n      dup2\n      add\n      swap3\n      dup3\n      tag_104\n      jumpi\n      0x00\n      dup6\n      sstore\n      jump(tag_103)\n    tag_104:\n      dup3\n      0x1f\n      lt\n      tag_105\n      jumpi\n      dup1\n      mload\n      not(0xff)\n      and\n      dup4\n      dup1\n      add\n      or\n      dup6\n      sstore\n      jump(tag_103)\n    tag_105:\n      dup3\n      dup1\n      add\n      0x01\n      add\n      dup6\n      sstore\n      dup3\n      iszero\n      tag_103\n      jumpi\n      swap2\n      dup3\n      add\n    tag_106:\n      dup3\n      dup2\n      gt\n      iszero\n      tag_107\n      jumpi\n      dup3\n      mload\n      dup3\n      sstore\n      swap2\n      0x20\n      add\n      swap2\n      swap1\n      0x01\n      add\n      swap1\n      jump(tag_106)\n    tag_107:\n    tag_103:\n      pop\n      swap1\n      pop\n      tag_108\n      swap2\n      swap1\n      tag_109\n      jump\t// in\n    tag_108:\n      pop\n      swap1\n      jump\t// out\n    tag_89:\n      dup3\n      dup1\n      sload\n      tag_110\n      swap1\n      tag_55\n      jump\t// in\n    tag_110:\n      swap1\n      0x00\n      mstore\n      keccak256(0x00, 0x20)\n      swap1\n      0x1f\n      add\n      0x20\n      swap1\n      div\n      dup2\n      add\n      swap3\n      dup3\n      tag_112\n      jumpi\n      0x00\n      dup6\n      sstore\n      jump(tag_111)\n    tag_112:\n      dup3\n      0x1f\n      lt\n      tag_113\n      jumpi\n      dup1\n      calldataload\n      not(0xff)\n      and\n      dup4\n      dup1\n      add\n      or\n      dup6\n      sstore\n      jump(tag_111)\n    tag_113:\n      dup3\n      dup1\n      add\n      0x01\n      add\n      dup6\n      sstore\n      dup3\n      iszero\n      tag_111\n      jumpi\n      swap2\n      dup3\n      add\n    tag_114:\n      dup3\n      dup2\n      gt\n      iszero\n      tag_115\n      jumpi\n      dup3\n      calldataload\n      dup3\n      sstore\n      swap2\n      0x20\n      add\n      swap2\n      swap1\n      0x01\n      add\n      swap1\n      jump(tag_114)\n    tag_115:\n    tag_111:\n      pop\n      swap1\n      pop\n      tag_116\n      swap2\n      swap1\n      tag_109\n      jump\t// in\n    tag_116:\n      pop\n      swap1\n      jump\t// out\n    tag_109:\n    tag_117:\n      dup1\n      dup3\n      gt\n      iszero\n      tag_118\n      jumpi\n      0x00\n      dup2\n      0x00\n      swap1\n      sstore\n      pop\n      0x01\n      add\n      jump(tag_117)\n    tag_118:\n      pop\n      swap1\n      jump\t// out\n        /* \"#utility.yul\":21:574   */\n    tag_120:\n        /* \"#utility.yul\":79:87   */\n      0x00\n        /* \"#utility.yul\":89:95   */\n      dup1\n        /* \"#utility.yul\":139:142   */\n      dup4\n        /* \"#utility.yul\":132:136   */\n      0x1f\n        /* \"#utility.yul\":124:130   */\n      dup5\n        /* \"#utility.yul\":120:137   */\n      add\n        /* \"#utility.yul\":116:143   */\n      slt\n        /* \"#utility.yul\":106:228   */\n      tag_122\n      jumpi\n        /* \"#utility.yul\":147:226   */\n      tag_123\n      tag_124\n      jump\t// in\n    tag_123:\n        /* \"#utility.yul\":106:228   */\n    tag_122:\n        /* \"#utility.yul\":260:266   */\n      dup3\n        /* \"#utility.yul\":247:267   */\n      calldataload\n        /* \"#utility.yul\":237:267   */\n      swap1\n      pop\n        /* \"#utility.yul\":290:308   */\n      0xffffffffffffffff\n        /* \"#utility.yul\":282:288   */\n      dup2\n        /* \"#utility.yul\":279:309   */\n      gt\n        /* \"#utility.yul\":276:393   */\n      iszero\n      tag_125\n      jumpi\n        /* \"#utility.yul\":312:391   */\n      tag_126\n      tag_127\n      jump\t// in\n    tag_126:\n        /* \"#utility.yul\":276:393   */\n    tag_125:\n        /* \"#utility.yul\":426:430   */\n      0x20\n        /* \"#utility.yul\":418:424   */\n      dup4\n        /* \"#utility.yul\":414:431   */\n      add\n        /* \"#utility.yul\":402:431   */\n      swap2\n      pop\n        /* \"#utility.yul\":480:483   */\n      dup4\n        /* \"#utility.yul\":472:476   */\n      0x01\n        /* \"#utility.yul\":464:470   */\n      dup3\n        /* \"#utility.yul\":460:477   */\n      mul\n        /* \"#utility.yul\":450:458   */\n      dup4\n        /* \"#utility.yul\":446:478   */\n      add\n        /* \"#utility.yul\":443:484   */\n      gt\n        /* \"#utility.yul\":440:568   */\n      iszero\n      tag_128\n      jumpi\n        /* \"#utility.yul\":487:566   */\n      tag_129\n      tag_130\n      jump\t// in\n    tag_129:\n        /* \"#utility.yul\":440:568   */\n    tag_128:\n        /* \"#utility.yul\":21:574   */\n      swap3\n      pop\n      swap3\n      swap1\n      pop\n      jump\t// out\n        /* \"#utility.yul\":580:719   */\n    tag_131:\n        /* \"#utility.yul\":626:631   */\n      0x00\n        /* \"#utility.yul\":664:670   */\n      dup2\n        /* \"#utility.yul\":651:671   */\n      calldataload\n        /* \"#utility.yul\":642:671   */\n      swap1\n      pop\n        /* \"#utility.yul\":680:713   */\n      tag_133\n        /* \"#utility.yul\":707:712   */\n      dup2\n        /* \"#utility.yul\":680:713   */\n      tag_134\n      jump\t// in\n    tag_133:\n        /* \"#utility.yul\":580:719   */\n      swap3\n      swap2\n      pop\n      pop\n      jump\t// out\n        /* \"#utility.yul\":725:1254   */\n    tag_29:\n        /* \"#utility.yul\":796:802   */\n      0x00\n        /* \"#utility.yul\":804:810   */\n      dup1\n        /* \"#utility.yul\":853:855   */\n      0x20\n        /* \"#utility.yul\":841:850   */\n      dup4\n        /* \"#utility.yul\":832:839   */\n      dup6\n        /* \"#utility.yul\":828:851   */\n      sub\n        /* \"#utility.yul\":824:856   */\n      slt\n        /* \"#utility.yul\":821:940   */\n      iszero\n      tag_136\n      jumpi\n        /* \"#utility.yul\":859:938   */\n      tag_137\n      tag_138\n      jump\t// in\n    tag_137:\n        /* \"#utility.yul\":821:940   */\n    tag_136:\n        /* \"#utility.yul\":1007:1008   */\n      0x00\n        /* \"#utility.yul\":996:1005   */\n      dup4\n        /* \"#utility.yul\":992:1009   */\n      add\n        /* \"#utility.yul\":979:1010   */\n      calldataload\n        /* \"#utility.yul\":1037:1055   */\n      0xffffffffffffffff\n        /* \"#utility.yul\":1029:1035   */\n      dup2\n        /* \"#utility.yul\":1026:1056   */\n      gt\n        /* \"#utility.yul\":1023:1140   */\n      iszero\n      tag_139\n      jumpi\n        /* \"#utility.yul\":1059:1138   */\n      tag_140\n      tag_141\n      jump\t// in\n    tag_140:\n        /* \"#utility.yul\":1023:1140   */\n    tag_139:\n        /* \"#utility.yul\":1172:1237   */\n      tag_142\n        /* \"#utility.yul\":1229:1236   */\n      dup6\n        /* \"#utility.yul\":1220:1226   */\n      dup3\n        /* \"#utility.yul\":1209:1218   */\n      dup7\n        /* \"#utility.yul\":1205:1227   */\n      add\n        /* \"#utility.yul\":1172:1237   */\n      tag_120\n      jump\t// in\n    tag_142:\n        /* \"#utility.yul\":1154:1237   */\n      swap3\n      pop\n      swap3\n      pop\n        /* \"#utility.yul\":950:1247   */\n      pop\n        /* \"#utility.yul\":725:1254   */\n      swap3\n      pop\n      swap3\n      swap1\n      pop\n      jump\t// out\n        /* \"#utility.yul\":1260:1589   */\n    tag_13:\n        /* \"#utility.yul\":1319:1325   */\n      0x00\n        /* \"#utility.yul\":1368:1370   */\n      0x20\n        /* \"#utility.yul\":1356:1365   */\n      dup3\n        /* \"#utility.yul\":1347:1354   */\n      dup5\n        /* \"#utility.yul\":1343:1366   */\n      sub\n        /* \"#utility.yul\":1339:1371   */\n      slt\n        /* \"#utility.yul\":1336:1455   */\n      iszero\n      tag_144\n      jumpi\n        /* \"#utility.yul\":1374:1453   */\n      tag_145\n      tag_138\n      jump\t// in\n    tag_145:\n        /* \"#utility.yul\":1336:1455   */\n    tag_144:\n        /* \"#utility.yul\":1494:1495   */\n      0x00\n        /* \"#utility.yul\":1519:1572   */\n      tag_146\n        /* \"#utility.yul\":1564:1571   */\n      dup5\n        /* \"#utility.yul\":1555:1561   */\n      dup3\n        /* \"#utility.yul\":1544:1553   */\n      dup6\n        /* \"#utility.yul\":1540:1562   */\n      add\n        /* \"#utility.yul\":1519:1572   */\n      tag_131\n      jump\t// in\n    tag_146:\n        /* \"#utility.yul\":1509:1572   */\n      swap2\n      pop\n        /* \"#utility.yul\":1465:1582   */\n      pop\n        /* \"#utility.yul\":1260:1589   */\n      swap3\n      swap2\n      pop\n      pop\n      jump\t// out\n        /* \"#utility.yul\":1595:2269   */\n    tag_37:\n        /* \"#utility.yul\":1675:1681   */\n      0x00\n        /* \"#utility.yul\":1683:1689   */\n      dup1\n        /* \"#utility.yul\":1691:1697   */\n      0x00\n        /* \"#utility.yul\":1740:1742   */\n      0x40\n        /* \"#utility.yul\":1728:1737   */\n      dup5\n        /* \"#utility.yul\":1719:1726   */\n      dup7\n        /* \"#utility.yul\":1715:1738   */\n      sub\n        /* \"#utility.yul\":1711:1743   */\n      slt\n        /* \"#utility.yul\":1708:1827   */\n      iszero\n      tag_148\n      jumpi\n        /* \"#utility.yul\":1746:1825   */\n      tag_149\n      tag_138\n      jump\t// in\n    tag_149:\n        /* \"#utility.yul\":1708:1827   */\n    tag_148:\n        /* \"#utility.yul\":1866:1867   */\n      0x00\n        /* \"#utility.yul\":1891:1944   */\n      tag_150\n        /* \"#utility.yul\":1936:1943   */\n      dup7\n        /* \"#utility.yul\":1927:1933   */\n      dup3\n        /* \"#utility.yul\":1916:1925   */\n      dup8\n        /* \"#utility.yul\":1912:1934   */\n      add\n        /* \"#utility.yul\":1891:1944   */\n      tag_131\n      jump\t// in\n    tag_150:\n        /* \"#utility.yul\":1881:1944   */\n      swap4\n      pop\n        /* \"#utility.yul\":1837:1954   */\n      pop\n        /* \"#utility.yul\":2021:2023   */\n      0x20\n        /* \"#utility.yul\":2010:2019   */\n      dup5\n        /* \"#utility.yul\":2006:2024   */\n      add\n        /* \"#utility.yul\":1993:2025   */\n      calldataload\n        /* \"#utility.yul\":2052:2070   */\n      0xffffffffffffffff\n        /* \"#utility.yul\":2044:2050   */\n      dup2\n        /* \"#utility.yul\":2041:2071   */\n      gt\n        /* \"#utility.yul\":2038:2155   */\n      iszero\n      tag_151\n      jumpi\n        /* \"#utility.yul\":2074:2153   */\n      tag_152\n      tag_141\n      jump\t// in\n    tag_152:\n        /* \"#utility.yul\":2038:2155   */\n    tag_151:\n        /* \"#utility.yul\":2187:2252   */\n      tag_153\n        /* \"#utility.yul\":2244:2251   */\n      dup7\n        /* \"#utility.yul\":2235:2241   */\n      dup3\n        /* \"#utility.yul\":2224:2233   */\n      dup8\n        /* \"#utility.yul\":2220:2242   */\n      add\n        /* \"#utility.yul\":2187:2252   */\n      tag_120\n      jump\t// in\n    tag_153:\n        /* \"#utility.yul\":2169:2252   */\n      swap3\n      pop\n      swap3\n      pop\n        /* \"#utility.yul\":1964:2262   */\n      pop\n        /* \"#utility.yul\":1595:2269   */\n      swap3\n      pop\n      swap3\n      pop\n      swap3\n      jump\t// out\n        /* \"#utility.yul\":2275:2384   */\n    tag_154:\n        /* \"#utility.yul\":2356:2377   */\n      tag_156\n        /* \"#utility.yul\":2371:2376   */\n      dup2\n        /* \"#utility.yul\":2356:2377   */\n      tag_157\n      jump\t// in\n    tag_156:\n        /* \"#utility.yul\":2351:2354   */\n      dup3\n        /* \"#utility.yul\":2344:2378   */\n      mstore\n        /* \"#utility.yul\":2275:2384   */\n      pop\n      pop\n      jump\t// out\n        /* \"#utility.yul\":2390:2754   */\n    tag_158:\n        /* \"#utility.yul\":2478:2481   */\n      0x00\n        /* \"#utility.yul\":2506:2545   */\n      tag_160\n        /* \"#utility.yul\":2539:2544   */\n      dup3\n        /* \"#utility.yul\":2506:2545   */\n      tag_161\n      jump\t// in\n    tag_160:\n        /* \"#utility.yul\":2561:2632   */\n      tag_162\n        /* \"#utility.yul\":2625:2631   */\n      dup2\n        /* \"#utility.yul\":2620:2623   */\n      dup6\n        /* \"#utility.yul\":2561:2632   */\n      tag_163\n      jump\t// in\n    tag_162:\n        /* \"#utility.yul\":2554:2632   */\n      swap4\n      pop\n        /* \"#utility.yul\":2641:2693   */\n      tag_164\n        /* \"#utility.yul\":2686:2692   */\n      dup2\n        /* \"#utility.yul\":2681:2684   */\n      dup6\n        /* \"#utility.yul\":2674:2678   */\n      0x20\n        /* \"#utility.yul\":2667:2672   */\n      dup7\n        /* \"#utility.yul\":2663:2679   */\n      add\n        /* \"#utility.yul\":2641:2693   */\n      tag_165\n      jump\t// in\n    tag_164:\n        /* \"#utility.yul\":2718:2747   */\n      tag_166\n        /* \"#utility.yul\":2740:2746   */\n      dup2\n        /* \"#utility.yul\":2718:2747   */\n      tag_167\n      jump\t// in\n    tag_166:\n        /* \"#utility.yul\":2713:2716   */\n      dup5\n        /* \"#utility.yul\":2709:2748   */\n      add\n        /* \"#utility.yul\":2702:2748   */\n      swap2\n      pop\n        /* \"#utility.yul\":2482:2754   */\n      pop\n        /* \"#utility.yul\":2390:2754   */\n      swap3\n      swap2\n      pop\n      pop\n      jump\t// out\n        /* \"#utility.yul\":2760:3171   */\n    tag_19:\n        /* \"#utility.yul\":2895:2899   */\n      0x00\n        /* \"#utility.yul\":2933:2935   */\n      0x40\n        /* \"#utility.yul\":2922:2931   */\n      dup3\n        /* \"#utility.yul\":2918:2936   */\n      add\n        /* \"#utility.yul\":2910:2936   */\n      swap1\n      pop\n        /* \"#utility.yul\":2982:2991   */\n      dup2\n        /* \"#utility.yul\":2976:2980   */\n      dup2\n        /* \"#utility.yul\":2972:2992   */\n      sub\n        /* \"#utility.yul\":2968:2969   */\n      0x00\n        /* \"#utility.yul\":2957:2966   */\n      dup4\n        /* \"#utility.yul\":2953:2970   */\n      add\n        /* \"#utility.yul\":2946:2993   */\n      mstore\n        /* \"#utility.yul\":3010:3088   */\n      tag_169\n        /* \"#utility.yul\":3083:3087   */\n      dup2\n        /* \"#utility.yul\":3074:3080   */\n      dup6\n        /* \"#utility.yul\":3010:3088   */\n      tag_158\n      jump\t// in\n    tag_169:\n        /* \"#utility.yul\":3002:3088   */\n      swap1\n      pop\n        /* \"#utility.yul\":3098:3164   */\n      tag_170\n        /* \"#utility.yul\":3160:3162   */\n      0x20\n        /* \"#utility.yul\":3149:3158   */\n      dup4\n        /* \"#utility.yul\":3145:3163   */\n      add\n        /* \"#utility.yul\":3136:3142   */\n      dup5\n        /* \"#utility.yul\":3098:3164   */\n      tag_154\n      jump\t// in\n    tag_170:\n        /* \"#utility.yul\":2760:3171   */\n      swap4\n      swap3\n      pop\n      pop\n      pop\n      jump\t// out\n        /* \"#utility.yul\":3258:3357   */\n    tag_161:\n        /* \"#utility.yul\":3310:3316   */\n      0x00\n        /* \"#utility.yul\":3344:3349   */\n      dup2\n        /* \"#utility.yul\":3338:3350   */\n      mload\n        /* \"#utility.yul\":3328:3350   */\n      swap1\n      pop\n        /* \"#utility.yul\":3258:3357   */\n      swap2\n      swap1\n      pop\n      jump\t// out\n        /* \"#utility.yul\":3363:3532   */\n    tag_163:\n        /* \"#utility.yul\":3447:3458   */\n      0x00\n        /* \"#utility.yul\":3481:3487   */\n      dup3\n        /* \"#utility.yul\":3476:3479   */\n      dup3\n        /* \"#utility.yul\":3469:3488   */\n      mstore\n        /* \"#utility.yul\":3521:3525   */\n      0x20\n        /* \"#utility.yul\":3516:3519   */\n      dup3\n        /* \"#utility.yul\":3512:3526   */\n      add\n        /* \"#utility.yul\":3497:3526   */\n      swap1\n      pop\n        /* \"#utility.yul\":3363:3532   */\n      swap3\n      swap2\n      pop\n      pop\n      jump\t// out\n        /* \"#utility.yul\":3538:3628   */\n    tag_157:\n        /* \"#utility.yul\":3572:3579   */\n      0x00\n        /* \"#utility.yul\":3615:3620   */\n      dup2\n        /* \"#utility.yul\":3608:3621   */\n      iszero\n        /* \"#utility.yul\":3601:3622   */\n      iszero\n        /* \"#utility.yul\":3590:3622   */\n      swap1\n      pop\n        /* \"#utility.yul\":3538:3628   */\n      swap2\n      swap1\n      pop\n      jump\t// out\n        /* \"#utility.yul\":3634:3711   */\n    tag_176:\n        /* \"#utility.yul\":3671:3678   */\n      0x00\n        /* \"#utility.yul\":3700:3705   */\n      dup2\n        /* \"#utility.yul\":3689:3705   */\n      swap1\n      pop\n        /* \"#utility.yul\":3634:3711   */\n      swap2\n      swap1\n      pop\n      jump\t// out\n        /* \"#utility.yul\":3717:4024   */\n    tag_165:\n        /* \"#utility.yul\":3785:3786   */\n      0x00\n        /* \"#utility.yul\":3795:3908   */\n    tag_179:\n        /* \"#utility.yul\":3809:3815   */\n      dup4\n        /* \"#utility.yul\":3806:3807   */\n      dup2\n        /* \"#utility.yul\":3803:3816   */\n      lt\n        /* \"#utility.yul\":3795:3908   */\n      iszero\n      tag_181\n      jumpi\n        /* \"#utility.yul\":3894:3895   */\n      dup1\n        /* \"#utility.yul\":3889:3892   */\n      dup3\n        /* \"#utility.yul\":3885:3896   */\n      add\n        /* \"#utility.yul\":3879:3897   */\n      mload\n        /* \"#utility.yul\":3875:3876   */\n      dup2\n        /* \"#utility.yul\":3870:3873   */\n      dup5\n        /* \"#utility.yul\":3866:3877   */\n      add\n        /* \"#utility.yul\":3859:3898   */\n      mstore\n        /* \"#utility.yul\":3831:3833   */\n      0x20\n        /* \"#utility.yul\":3828:3829   */\n      dup2\n        /* \"#utility.yul\":3824:3834   */\n      add\n        /* \"#utility.yul\":3819:3834   */\n      swap1\n      pop\n        /* \"#utility.yul\":3795:3908   */\n      jump(tag_179)\n    tag_181:\n        /* \"#utility.yul\":3926:3932   */\n      dup4\n        /* \"#utility.yul\":3923:3924   */\n      dup2\n        /* \"#utility.yul\":3920:3933   */\n      gt\n        /* \"#utility.yul\":3917:4018   */\n      iszero\n      tag_182\n      jumpi\n        /* \"#utility.yul\":4006:4007   */\n      0x00\n        /* \"#utility.yul\":3997:4003   */\n      dup5\n        /* \"#utility.yul\":3992:3995   */\n      dup5\n        /* \"#utility.yul\":3988:4004   */\n      add\n        /* \"#utility.yul\":3981:4008   */\n      mstore\n        /* \"#utility.yul\":3917:4018   */\n    tag_182:\n        /* \"#utility.yul\":3766:4024   */\n      pop\n        /* \"#utility.yul\":3717:4024   */\n      pop\n      pop\n      pop\n      jump\t// out\n        /* \"#utility.yul\":4030:4350   */\n    tag_55:\n        /* \"#utility.yul\":4074:4080   */\n      0x00\n        /* \"#utility.yul\":4111:4112   */\n      0x02\n        /* \"#utility.yul\":4105:4109   */\n      dup3\n        /* \"#utility.yul\":4101:4113   */\n      div\n        /* \"#utility.yul\":4091:4113   */\n      swap1\n      pop\n        /* \"#utility.yul\":4158:4159   */\n      0x01\n        /* \"#utility.yul\":4152:4156   */\n      dup3\n        /* \"#utility.yul\":4148:4160   */\n      and\n        /* \"#utility.yul\":4179:4197   */\n      dup1\n        /* \"#utility.yul\":4169:4250   */\n      tag_184\n      jumpi\n        /* \"#utility.yul\":4235:4239   */\n      0x7f\n        /* \"#utility.yul\":4227:4233   */\n      dup3\n        /* \"#utility.yul\":4223:4240   */\n      and\n        /* \"#utility.yul\":4213:4240   */\n      swap2\n      pop\n        /* \"#utility.yul\":4169:4250   */\n    tag_184:\n        /* \"#utility.yul\":4297:4299   */\n      0x20\n        /* \"#utility.yul\":4289:4295   */\n      dup3\n        /* \"#utility.yul\":4286:4300   */\n      lt\n        /* \"#utility.yul\":4266:4284   */\n      dup2\n        /* \"#utility.yul\":4263:4301   */\n      eq\n        /* \"#utility.yul\":4260:4344   */\n      iszero\n      tag_185\n      jumpi\n        /* \"#utility.yul\":4316:4334   */\n      tag_186\n      tag_187\n      jump\t// in\n    tag_186:\n        /* \"#utility.yul\":4260:4344   */\n    tag_185:\n        /* \"#utility.yul\":4081:4350   */\n      pop\n        /* \"#utility.yul\":4030:4350   */\n      swap2\n      swap1\n      pop\n      jump\t// out\n        /* \"#utility.yul\":4356:4536   */\n    tag_187:\n        /* \"#utility.yul\":4404:4481   */\n      0x4e487b7100000000000000000000000000000000000000000000000000000000\n        /* \"#utility.yul\":4401:4402   */\n      0x00\n        /* \"#utility.yul\":4394:4482   */\n      mstore\n        /* \"#utility.yul\":4501:4505   */\n      0x22\n        /* \"#utility.yul\":4498:4499   */\n      0x04\n        /* \"#utility.yul\":4491:4506   */\n      mstore\n        /* \"#utility.yul\":4525:4529   */\n      0x24\n        /* \"#utility.yul\":4522:4523   */\n      0x00\n        /* \"#utility.yul\":4515:4530   */\n      revert\n        /* \"#utility.yul\":4542:4722   */\n    tag_42:\n        /* \"#utility.yul\":4590:4667   */\n      0x4e487b7100000000000000000000000000000000000000000000000000000000\n        /* \"#utility.yul\":4587:4588   */\n      0x00\n        /* \"#utility.yul\":4580:4668   */\n      mstore\n        /* \"#utility.yul\":4687:4691   */\n      0x32\n        /* \"#utility.yul\":4684:4685   */\n      0x04\n        /* \"#utility.yul\":4677:4692   */\n      mstore\n        /* \"#utility.yul\":4711:4715   */\n      0x24\n        /* \"#utility.yul\":4708:4709   */\n      0x00\n        /* \"#utility.yul\":4701:4716   */\n      revert\n        /* \"#utility.yul\":4728:4845   */\n    tag_127:\n        /* \"#utility.yul\":4837:4838   */\n      0x00\n        /* \"#utility.yul\":4834:4835   */\n      dup1\n        /* \"#utility.yul\":4827:4839   */\n      revert\n        /* \"#utility.yul\":4851:4968   */\n    tag_124:\n        /* \"#utility.yul\":4960:4961   */\n      0x00\n        /* \"#utility.yul\":4957:4958   */\n      dup1\n        /* \"#utility.yul\":4950:4962   */\n      revert\n        /* \"#utility.yul\":4974:5091   */\n    tag_130:\n        /* \"#utility.yul\":5083:5084   */\n      0x00\n        /* \"#utility.yul\":5080:5081   */\n      dup1\n        /* \"#utility.yul\":5073:5085   */\n      revert\n        /* \"#utility.yul\":5097:5214   */\n    tag_141:\n        /* \"#utility.yul\":5206:5207   */\n      0x00\n        /* \"#utility.yul\":5203:5204   */\n      dup1\n        /* \"#utility.yul\":5196:5208   */\n      revert\n        /* \"#utility.yul\":5220:5337   */\n    tag_138:\n        /* \"#utility.yul\":5329:5330   */\n      0x00\n        /* \"#utility.yul\":5326:5327   */\n      dup1\n        /* \"#utility.yul\":5319:5331   */\n      revert\n        /* \"#utility.yul\":5343:5445   */\n    tag_167:\n        /* \"#utility.yul\":5384:5390   */\n      0x00\n        /* \"#utility.yul\":5435:5437   */\n      0x1f\n        /* \"#utility.yul\":5431:5438   */\n      not\n        /* \"#utility.yul\":5426:5428   */\n      0x1f\n        /* \"#utility.yul\":5419:5424   */\n      dup4\n        /* \"#utility.yul\":5415:5429   */\n      add\n        /* \"#utility.yul\":5411:5439   */\n      and\n        /* \"#utility.yul\":5401:5439   */\n      swap1\n      pop\n        /* \"#utility.yul\":5343:5445   */\n      swap2\n      swap1\n      pop\n      jump\t// out\n        /* \"#utility.yul\":5451:5573   */\n    tag_134:\n        /* \"#utility.yul\":5524:5548   */\n      tag_197\n        /* \"#utility.yul\":5542:5547   */\n      dup2\n        /* \"#utility.yul\":5524:5548   */\n      tag_176\n      jump\t// in\n    tag_197:\n        /* \"#utility.yul\":5517:5522   */\n      dup2\n        /* \"#utility.yul\":5514:5549   */\n      eq\n        /* \"#utility.yul\":5504:5567   */\n      tag_198\n      jumpi\n        /* \"#utility.yul\":5563:5564   */\n      0x00\n        /* \"#utility.yul\":5560:5561   */\n      dup1\n        /* \"#utility.yul\":5553:5565   */\n      revert\n        /* \"#utility.yul\":5504:5567   */\n    tag_198:\n        /* \"#utility.yul\":5451:5573   */\n      pop\n      jump\t// out\n\n    auxdata: 0xa2646970667358221220927fd4aa93a36668b2a99e49cf23d0c840889b373318e5902331a52a3018b0eb64736f6c63430008070033\n}\n",
				"bytecode": {
					"linkReferences": {},
					"object": "608060405234801561001057600080fd5b50610ad2806100206000396000f3fe608060405234801561001057600080fd5b506004361061007d5760003560e01c80639507d39a1161005b5780639507d39a146100eb578063b6a46b3b1461011c578063bc8bc2b414610138578063cd111614146101695761007d565b80630a66a6b21461008257806331184dc31461009e578063455f5024146100cf575b600080fd5b61009c60048036038101906100979190610861565b610185565b005b6100b860048036038101906100b39190610861565b6101f8565b6040516100c6929190610936565b60405180910390f35b6100e960048036038101906100e49190610861565b6102e8565b005b61010560048036038101906101009190610861565b61033f565b604051610113929190610936565b60405180910390f35b61013660048036038101906101319190610814565b610414565b005b610152600480360381019061014d9190610861565b6104de565b604051610160929190610936565b60405180910390f35b610183600480360381019061017e919061088e565b6105a7565b005b6000818154811061019957610198610a2c565b5b906000526020600020906002020160010160009054906101000a900460ff1615600082815481106101cd576101cc610a2c565b5b906000526020600020906002020160010160006101000a81548160ff02191690831515021790555050565b6060600080838154811061020f5761020e610a2c565b5b90600052602060002090600202016000016000848154811061023457610233610a2c565b5b906000526020600020906002020160010160009054906101000a900460ff1681805461025f906109cb565b80601f016020809104026020016040519081016040528092919081815260200182805461028b906109cb565b80156102d85780601f106102ad576101008083540402835291602001916102d8565b820191906000526020600020905b8154815290600101906020018083116102bb57829003601f168201915b5050505050915091509150915091565b60008082815481106102fd576102fc610a2c565b5b906000526020600020906002020190508060010160009054906101000a900460ff16158160010160006101000a81548160ff0219169083151502179055505050565b60606000806000848154811061035857610357610a2c565b5b90600052602060002090600202019050806000018160010160009054906101000a900460ff1681805461038a906109cb565b80601f01602080910402602001604051908101604052809291908181526020018280546103b6906109cb565b80156104035780601f106103d857610100808354040283529160200191610403565b820191906000526020600020905b8154815290600101906020018083116103e657829003601f168201915b505050505091509250925050915091565b6000604051806040016040528084848080601f016020809104026020016040519081016040528093929190818152602001838380828437600081840152601f19601f82011690508083019250505050505050815260200160001515815250908060018154018082558091505060019003906000526020600020906002020160009091909190915060008201518160000190805190602001906104b7929190610680565b5060208201518160010160006101000a81548160ff02191690831515021790555050505050565b600081815481106104ee57600080fd5b9060005260206000209060020201600091509050806000018054610511906109cb565b80601f016020809104026020016040519081016040528092919081815260200182805461053d906109cb565b801561058a5780601f1061055f5761010080835404028352916020019161058a565b820191906000526020600020905b81548152906001019060200180831161056d57829003601f168201915b5050505050908060010160009054906101000a900460ff16905082565b8181600085815481106105bd576105bc610a2c565b5b906000526020600020906002020160000191906105db929190610706565b508181600085815481106105f2576105f1610a2c565b5b90600052602060002090600202016000019190610610929190610706565b5081816000858154811061062757610626610a2c565b5b90600052602060002090600202016000019190610645929190610706565b5081816000858154811061065c5761065b610a2c565b5b9060005260206000209060020201600001919061067a929190610706565b50505050565b82805461068c906109cb565b90600052602060002090601f0160209004810192826106ae57600085556106f5565b82601f106106c757805160ff19168380011785556106f5565b828001600101855582156106f5579182015b828111156106f45782518255916020019190600101906106d9565b5b509050610702919061078c565b5090565b828054610712906109cb565b90600052602060002090601f016020900481019282610734576000855561077b565b82601f1061074d57803560ff191683800117855561077b565b8280016001018555821561077b579182015b8281111561077a57823582559160200191906001019061075f565b5b509050610788919061078c565b5090565b5b808211156107a557600081600090555060010161078d565b5090565b60008083601f8401126107bf576107be610a60565b5b8235905067ffffffffffffffff8111156107dc576107db610a5b565b5b6020830191508360018202830111156107f8576107f7610a65565b5b9250929050565b60008135905061080e81610a85565b92915050565b6000806020838503121561082b5761082a610a6f565b5b600083013567ffffffffffffffff81111561084957610848610a6a565b5b610855858286016107a9565b92509250509250929050565b60006020828403121561087757610876610a6f565b5b6000610885848285016107ff565b91505092915050565b6000806000604084860312156108a7576108a6610a6f565b5b60006108b5868287016107ff565b935050602084013567ffffffffffffffff8111156108d6576108d5610a6a565b5b6108e2868287016107a9565b92509250509250925092565b6108f781610982565b82525050565b600061090882610966565b6109128185610971565b9350610922818560208601610998565b61092b81610a74565b840191505092915050565b6000604082019050818103600083015261095081856108fd565b905061095f60208301846108ee565b9392505050565b600081519050919050565b600082825260208201905092915050565b60008115159050919050565b6000819050919050565b60005b838110156109b657808201518184015260208101905061099b565b838111156109c5576000848401525b50505050565b600060028204905060018216806109e357607f821691505b602082108114156109f7576109f66109fd565b5b50919050565b7f4e487b7100000000000000000000000000000000000000000000000000000000600052602260045260246000fd5b7f4e487b7100000000000000000000000000000000000000000000000000000000600052603260045260246000fd5b600080fd5b600080fd5b600080fd5b600080fd5b600080fd5b6000601f19601f8301169050919050565b610a8e8161098e565b8114610a9957600080fd5b5056fea2646970667358221220927fd4aa93a36668b2a99e49cf23d0c840889b373318e5902331a52a3018b0eb64736f6c63430008070033",
					"opcodes": "PUSH1 0x80 PUSH1 0x40 MSTORE CALLVALUE DUP1 ISZERO PUSH2 0x10 JUMPI PUSH1 0x0 DUP1 REVERT JUMPDEST POP PUSH2 0xAD2 DUP1 PUSH2 0x20 PUSH1 0x0 CODECOPY PUSH1 0x0 RETURN INVALID PUSH1 0x80 PUSH1 0x40 MSTORE CALLVALUE DUP1 ISZERO PUSH2 0x10 JUMPI PUSH1 0x0 DUP1 REVERT JUMPDEST POP PUSH1 0x4 CALLDATASIZE LT PUSH2 0x7D JUMPI PUSH1 0x0 CALLDATALOAD PUSH1 0xE0 SHR DUP1 PUSH4 0x9507D39A GT PUSH2 0x5B JUMPI DUP1 PUSH4 0x9507D39A EQ PUSH2 0xEB JUMPI DUP1 PUSH4 0xB6A46B3B EQ PUSH2 0x11C JUMPI DUP1 PUSH4 0xBC8BC2B4 EQ PUSH2 0x138 JUMPI DUP1 PUSH4 0xCD111614 EQ PUSH2 0x169 JUMPI PUSH2 0x7D JUMP JUMPDEST DUP1 PUSH4 0xA66A6B2 EQ PUSH2 0x82 JUMPI DUP1 PUSH4 0x31184DC3 EQ PUSH2 0x9E JUMPI DUP1 PUSH4 0x455F5024 EQ PUSH2 0xCF JUMPI JUMPDEST PUSH1 0x0 DUP1 REVERT JUMPDEST PUSH2 0x9C PUSH1 0x4 DUP1 CALLDATASIZE SUB DUP2 ADD SWAP1 PUSH2 0x97 SWAP2 SWAP1 PUSH2 0x861 JUMP JUMPDEST PUSH2 0x185 JUMP JUMPDEST STOP JUMPDEST PUSH2 0xB8 PUSH1 0x4 DUP1 CALLDATASIZE SUB DUP2 ADD SWAP1 PUSH2 0xB3 SWAP2 SWAP1 PUSH2 0x861 JUMP JUMPDEST PUSH2 0x1F8 JUMP JUMPDEST PUSH1 0x40 MLOAD PUSH2 0xC6 SWAP3 SWAP2 SWAP1 PUSH2 0x936 JUMP JUMPDEST PUSH1 0x40 MLOAD DUP1 SWAP2 SUB SWAP1 RETURN JUMPDEST PUSH2 0xE9 PUSH1 0x4 DUP1 CALLDATASIZE SUB DUP2 ADD SWAP1 PUSH2 0xE4 SWAP2 SWAP1 PUSH2 0x861 JUMP JUMPDEST PUSH2 0x2E8 JUMP JUMPDEST STOP JUMPDEST PUSH2 0x105 PUSH1 0x4 DUP1 CALLDATASIZE SUB DUP2 ADD SWAP1 PUSH2 0x100 SWAP2 SWAP1 PUSH2 0x861 JUMP JUMPDEST PUSH2 0x33F JUMP JUMPDEST PUSH1 0x40 MLOAD PUSH2 0x113 SWAP3 SWAP2 SWAP1 PUSH2 0x936 JUMP JUMPDEST PUSH1 0x40 MLOAD DUP1 SWAP2 SUB SWAP1 RETURN JUMPDEST PUSH2 0x136 PUSH1 0x4 DUP1 CALLDATASIZE SUB DUP2 ADD SWAP1 PUSH2 0x131 SWAP2 SWAP1 PUSH2 0x814 JUMP JUMPDEST PUSH2 0x414 JUMP JUMPDEST STOP JUMPDEST PUSH2 0x152 PUSH1 0x4 DUP1 CALLDATASIZE SUB DUP2 ADD SWAP1 PUSH2 0x14D SWAP2 SWAP1 PUSH2 0x861 JUMP JUMPDEST PUSH2 0x4DE JUMP JUMPDEST PUSH1 0x40 MLOAD PUSH2 0x160 SWAP3 SWAP2 SWAP1 PUSH2 0x936 JUMP JUMPDEST PUSH1 0x40 MLOAD DUP1 SWAP2 SUB SWAP1 RETURN JUMPDEST PUSH2 0x183 PUSH1 0x4 DUP1 CALLDATASIZE SUB DUP2 ADD SWAP1 PUSH2 0x17E SWAP2 SWAP1 PUSH2 0x88E JUMP JUMPDEST PUSH2 0x5A7 JUMP JUMPDEST STOP JUMPDEST PUSH1 0x0 DUP2 DUP2 SLOAD DUP2 LT PUSH2 0x199 JUMPI PUSH2 0x198 PUSH2 0xA2C JUMP JUMPDEST JUMPDEST SWAP1 PUSH1 0x0 MSTORE PUSH1 0x20 PUSH1 0x0 KECCAK256 SWAP1 PUSH1 0x2 MUL ADD PUSH1 0x1 ADD PUSH1 0x0 SWAP1 SLOAD SWAP1 PUSH2 0x100 EXP SWAP1 DIV PUSH1 0xFF AND ISZERO PUSH1 0x0 DUP3 DUP2 SLOAD DUP2 LT PUSH2 0x1CD JUMPI PUSH2 0x1CC PUSH2 0xA2C JUMP JUMPDEST JUMPDEST SWAP1 PUSH1 0x0 MSTORE PUSH1 0x20 PUSH1 0x0 KECCAK256 SWAP1 PUSH1 0x2 MUL ADD PUSH1 0x1 ADD PUSH1 0x0 PUSH2 0x100 EXP DUP2 SLOAD DUP2 PUSH1 0xFF MUL NOT AND SWAP1 DUP4 ISZERO ISZERO MUL OR SWAP1 SSTORE POP POP JUMP JUMPDEST PUSH1 0x60 PUSH1 0x0 DUP1 DUP4 DUP2 SLOAD DUP2 LT PUSH2 0x20F JUMPI PUSH2 0x20E PUSH2 0xA2C JUMP JUMPDEST JUMPDEST SWAP1 PUSH1 0x0 MSTORE PUSH1 0x20 PUSH1 0x0 KECCAK256 SWAP1 PUSH1 0x2 MUL ADD PUSH1 0x0 ADD PUSH1 0x0 DUP5 DUP2 SLOAD DUP2 LT PUSH2 0x234 JUMPI PUSH2 0x233 PUSH2 0xA2C JUMP JUMPDEST JUMPDEST SWAP1 PUSH1 0x0 MSTORE PUSH1 0x20 PUSH1 0x0 KECCAK256 SWAP1 PUSH1 0x2 MUL ADD PUSH1 0x1 ADD PUSH1 0x0 SWAP1 SLOAD SWAP1 PUSH2 0x100 EXP SWAP1 DIV PUSH1 0xFF AND DUP2 DUP1 SLOAD PUSH2 0x25F SWAP1 PUSH2 0x9CB JUMP JUMPDEST DUP1 PUSH1 0x1F ADD PUSH1 0x20 DUP1 SWAP2 DIV MUL PUSH1 0x20 ADD PUSH1 0x40 MLOAD SWAP1 DUP2 ADD PUSH1 0x40 MSTORE DUP1 SWAP3 SWAP2 SWAP1 DUP2 DUP2 MSTORE PUSH1 0x20 ADD DUP3 DUP1 SLOAD PUSH2 0x28B SWAP1 PUSH2 0x9CB JUMP JUMPDEST DUP1 ISZERO PUSH2 0x2D8 JUMPI DUP1 PUSH1 0x1F LT PUSH2 0x2AD JUMPI PUSH2 0x100 DUP1 DUP4 SLOAD DIV MUL DUP4 MSTORE SWAP2 PUSH1 0x20 ADD SWAP2 PUSH2 0x2D8 JUMP JUMPDEST DUP3 ADD SWAP2 SWAP1 PUSH1 0x0 MSTORE PUSH1 0x20 PUSH1 0x0 KECCAK256 SWAP1 JUMPDEST DUP2 SLOAD DUP2 MSTORE SWAP1 PUSH1 0x1 ADD SWAP1 PUSH1 0x20 ADD DUP1 DUP4 GT PUSH2 0x2BB JUMPI DUP3 SWAP1 SUB PUSH1 0x1F AND DUP3 ADD SWAP2 JUMPDEST POP POP POP POP POP SWAP2 POP SWAP2 POP SWAP2 POP SWAP2 POP SWAP2 JUMP JUMPDEST PUSH1 0x0 DUP1 DUP3 DUP2 SLOAD DUP2 LT PUSH2 0x2FD JUMPI PUSH2 0x2FC PUSH2 0xA2C JUMP JUMPDEST JUMPDEST SWAP1 PUSH1 0x0 MSTORE PUSH1 0x20 PUSH1 0x0 KECCAK256 SWAP1 PUSH1 0x2 MUL ADD SWAP1 POP DUP1 PUSH1 0x1 ADD PUSH1 0x0 SWAP1 SLOAD SWAP1 PUSH2 0x100 EXP SWAP1 DIV PUSH1 0xFF AND ISZERO DUP2 PUSH1 0x1 ADD PUSH1 0x0 PUSH2 0x100 EXP DUP2 SLOAD DUP2 PUSH1 0xFF MUL NOT AND SWAP1 DUP4 ISZERO ISZERO MUL OR SWAP1 SSTORE POP POP POP JUMP JUMPDEST PUSH1 0x60 PUSH1 0x0 DUP1 PUSH1 0x0 DUP5 DUP2 SLOAD DUP2 LT PUSH2 0x358 JUMPI PUSH2 0x357 PUSH2 0xA2C JUMP JUMPDEST JUMPDEST SWAP1 PUSH1 0x0 MSTORE PUSH1 0x20 PUSH1 0x0 KECCAK256 SWAP1 PUSH1 0x2 MUL ADD SWAP1 POP DUP1 PUSH1 0x0 ADD DUP2 PUSH1 0x1 ADD PUSH1 0x0 SWAP1 SLOAD SWAP1 PUSH2 0x100 EXP SWAP1 DIV PUSH1 0xFF AND DUP2 DUP1 SLOAD PUSH2 0x38A SWAP1 PUSH2 0x9CB JUMP JUMPDEST DUP1 PUSH1 0x1F ADD PUSH1 0x20 DUP1 SWAP2 DIV MUL PUSH1 0x20 ADD PUSH1 0x40 MLOAD SWAP1 DUP2 ADD PUSH1 0x40 MSTORE DUP1 SWAP3 SWAP2 SWAP1 DUP2 DUP2 MSTORE PUSH1 0x20 ADD DUP3 DUP1 SLOAD PUSH2 0x3B6 SWAP1 PUSH2 0x9CB JUMP JUMPDEST DUP1 ISZERO PUSH2 0x403 JUMPI DUP1 PUSH1 0x1F LT PUSH2 0x3D8 JUMPI PUSH2 0x100 DUP1 DUP4 SLOAD DIV MUL DUP4 MSTORE SWAP2 PUSH1 0x20 ADD SWAP2 PUSH2 0x403 JUMP JUMPDEST DUP3 ADD SWAP2 SWAP1 PUSH1 0x0 MSTORE PUSH1 0x20 PUSH1 0x0 KECCAK256 SWAP1 JUMPDEST DUP2 SLOAD DUP2 MSTORE SWAP1 PUSH1 0x1 ADD SWAP1 PUSH1 0x20 ADD DUP1 DUP4 GT PUSH2 0x3E6 JUMPI DUP3 SWAP1 SUB PUSH1 0x1F AND DUP3 ADD SWAP2 JUMPDEST POP POP POP POP POP SWAP2 POP SWAP3 POP SWAP3 POP POP SWAP2 POP SWAP2 JUMP JUMPDEST PUSH1 0x0 PUSH1 0x40 MLOAD DUP1 PUSH1 0x40 ADD PUSH1 0x40 MSTORE DUP1 DUP5 DUP5 DUP1 DUP1 PUSH1 0x1F ADD PUSH1 0x20 DUP1 SWAP2 DIV MUL PUSH1 0x20 ADD PUSH1 0x40 MLOAD SWAP1 DUP2 ADD PUSH1 0x40 MSTORE DUP1 SWAP4 SWAP3 SWAP2 SWAP1 DUP2 DUP2 MSTORE PUSH1 0x20 ADD DUP4 DUP4 DUP1 DUP3 DUP5 CALLDATACOPY PUSH1 0x0 DUP2 DUP5 ADD MSTORE PUSH1 0x1F NOT PUSH1 0x1F DUP3 ADD AND SWAP1 POP DUP1 DUP4 ADD SWAP3 POP POP POP POP POP POP POP DUP2 MSTORE PUSH1 0x20 ADD PUSH1 0x0 ISZERO ISZERO DUP2 MSTORE POP SWAP1 DUP1 PUSH1 0x1 DUP2 SLOAD ADD DUP1 DUP3 SSTORE DUP1 SWAP2 POP POP PUSH1 0x1 SWAP1 SUB SWAP1 PUSH1 0x0 MSTORE PUSH1 0x20 PUSH1 0x0 KECCAK256 SWAP1 PUSH1 0x2 MUL ADD PUSH1 0x0 SWAP1 SWAP2 SWAP1 SWAP2 SWAP1 SWAP2 POP PUSH1 0x0 DUP3 ADD MLOAD DUP2 PUSH1 0x0 ADD SWAP1 DUP1 MLOAD SWAP1 PUSH1 0x20 ADD SWAP1 PUSH2 0x4B7 SWAP3 SWAP2 SWAP1 PUSH2 0x680 JUMP JUMPDEST POP PUSH1 0x20 DUP3 ADD MLOAD DUP2 PUSH1 0x1 ADD PUSH1 0x0 PUSH2 0x100 EXP DUP2 SLOAD DUP2 PUSH1 0xFF MUL NOT AND SWAP1 DUP4 ISZERO ISZERO MUL OR SWAP1 SSTORE POP POP POP POP POP JUMP JUMPDEST PUSH1 0x0 DUP2 DUP2 SLOAD DUP2 LT PUSH2 0x4EE JUMPI PUSH1 0x0 DUP1 REVERT JUMPDEST SWAP1 PUSH1 0x0 MSTORE PUSH1 0x20 PUSH1 0x0 KECCAK256 SWAP1 PUSH1 0x2 MUL ADD PUSH1 0x0 SWAP2 POP SWAP1 POP DUP1 PUSH1 0x0 ADD DUP1 SLOAD PUSH2 0x511 SWAP1 PUSH2 0x9CB JUMP JUMPDEST DUP1 PUSH1 0x1F ADD PUSH1 0x20 DUP1 SWAP2 DIV MUL PUSH1 0x20 ADD PUSH1 0x40 MLOAD SWAP1 DUP2 ADD PUSH1 0x40 MSTORE DUP1 SWAP3 SWAP2 SWAP1 DUP2 DUP2 MSTORE PUSH1 0x20 ADD DUP3 DUP1 SLOAD PUSH2 0x53D SWAP1 PUSH2 0x9CB JUMP JUMPDEST DUP1 ISZERO PUSH2 0x58A JUMPI DUP1 PUSH1 0x1F LT PUSH2 0x55F JUMPI PUSH2 0x100 DUP1 DUP4 SLOAD DIV MUL DUP4 MSTORE SWAP2 PUSH1 0x20 ADD SWAP2 PUSH2 0x58A JUMP JUMPDEST DUP3 ADD SWAP2 SWAP1 PUSH1 0x0 MSTORE PUSH1 0x20 PUSH1 0x0 KECCAK256 SWAP1 JUMPDEST DUP2 SLOAD DUP2 MSTORE SWAP1 PUSH1 0x1 ADD SWAP1 PUSH1 0x20 ADD DUP1 DUP4 GT PUSH2 0x56D JUMPI DUP3 SWAP1 SUB PUSH1 0x1F AND DUP3 ADD SWAP2 JUMPDEST POP POP POP POP POP SWAP1 DUP1 PUSH1 0x1 ADD PUSH1 0x0 SWAP1 SLOAD SWAP1 PUSH2 0x100 EXP SWAP1 DIV PUSH1 0xFF AND SWAP1 POP DUP3 JUMP JUMPDEST DUP2 DUP2 PUSH1 0x0 DUP6 DUP2 SLOAD DUP2 LT PUSH2 0x5BD JUMPI PUSH2 0x5BC PUSH2 0xA2C JUMP JUMPDEST JUMPDEST SWAP1 PUSH1 0x0 MSTORE PUSH1 0x20 PUSH1 0x0 KECCAK256 SWAP1 PUSH1 0x2 MUL ADD PUSH1 0x0 ADD SWAP2 SWAP1 PUSH2 0x5DB SWAP3 SWAP2 SWAP1 PUSH2 0x706 JUMP JUMPDEST POP DUP2 DUP2 PUSH1 0x0 DUP6 DUP2 SLOAD DUP2 LT PUSH2 0x5F2 JUMPI PUSH2 0x5F1 PUSH2 0xA2C JUMP JUMPDEST JUMPDEST SWAP1 PUSH1 0x0 MSTORE PUSH1 0x20 PUSH1 0x0 KECCAK256 SWAP1 PUSH1 0x2 MUL ADD PUSH1 0x0 ADD SWAP2 SWAP1 PUSH2 0x610 SWAP3 SWAP2 SWAP1 PUSH2 0x706 JUMP JUMPDEST POP DUP2 DUP2 PUSH1 0x0 DUP6 DUP2 SLOAD DUP2 LT PUSH2 0x627 JUMPI PUSH2 0x626 PUSH2 0xA2C JUMP JUMPDEST JUMPDEST SWAP1 PUSH1 0x0 MSTORE PUSH1 0x20 PUSH1 0x0 KECCAK256 SWAP1 PUSH1 0x2 MUL ADD PUSH1 0x0 ADD SWAP2 SWAP1 PUSH2 0x645 SWAP3 SWAP2 SWAP1 PUSH2 0x706 JUMP JUMPDEST POP DUP2 DUP2 PUSH1 0x0 DUP6 DUP2 SLOAD DUP2 LT PUSH2 0x65C JUMPI PUSH2 0x65B PUSH2 0xA2C JUMP JUMPDEST JUMPDEST SWAP1 PUSH1 0x0 MSTORE PUSH1 0x20 PUSH1 0x0 KECCAK256 SWAP1 PUSH1 0x2 MUL ADD PUSH1 0x0 ADD SWAP2 SWAP1 PUSH2 0x67A SWAP3 SWAP2 SWAP1 PUSH2 0x706 JUMP JUMPDEST POP POP POP POP JUMP JUMPDEST DUP3 DUP1 SLOAD PUSH2 0x68C SWAP1 PUSH2 0x9CB JUMP JUMPDEST SWAP1 PUSH1 0x0 MSTORE PUSH1 0x20 PUSH1 0x0 KECCAK256 SWAP1 PUSH1 0x1F ADD PUSH1 0x20 SWAP1 DIV DUP2 ADD SWAP3 DUP3 PUSH2 0x6AE JUMPI PUSH1 0x0 DUP6 SSTORE PUSH2 0x6F5 JUMP JUMPDEST DUP3 PUSH1 0x1F LT PUSH2 0x6C7 JUMPI DUP1 MLOAD PUSH1 0xFF NOT AND DUP4 DUP1 ADD OR DUP6 SSTORE PUSH2 0x6F5 JUMP JUMPDEST DUP3 DUP1 ADD PUSH1 0x1 ADD DUP6 SSTORE DUP3 ISZERO PUSH2 0x6F5 JUMPI SWAP2 DUP3 ADD JUMPDEST DUP3 DUP2 GT ISZERO PUSH2 0x6F4 JUMPI DUP3 MLOAD DUP3 SSTORE SWAP2 PUSH1 0x20 ADD SWAP2 SWAP1 PUSH1 0x1 ADD SWAP1 PUSH2 0x6D9 JUMP JUMPDEST JUMPDEST POP SWAP1 POP PUSH2 0x702 SWAP2 SWAP1 PUSH2 0x78C JUMP JUMPDEST POP SWAP1 JUMP JUMPDEST DUP3 DUP1 SLOAD PUSH2 0x712 SWAP1 PUSH2 0x9CB JUMP JUMPDEST SWAP1 PUSH1 0x0 MSTORE PUSH1 0x20 PUSH1 0x0 KECCAK256 SWAP1 PUSH1 0x1F ADD PUSH1 0x20 SWAP1 DIV DUP2 ADD SWAP3 DUP3 PUSH2 0x734 JUMPI PUSH1 0x0 DUP6 SSTORE PUSH2 0x77B JUMP JUMPDEST DUP3 PUSH1 0x1F LT PUSH2 0x74D JUMPI DUP1 CALLDATALOAD PUSH1 0xFF NOT AND DUP4 DUP1 ADD OR DUP6 SSTORE PUSH2 0x77B JUMP JUMPDEST DUP3 DUP1 ADD PUSH1 0x1 ADD DUP6 SSTORE DUP3 ISZERO PUSH2 0x77B JUMPI SWAP2 DUP3 ADD JUMPDEST DUP3 DUP2 GT ISZERO PUSH2 0x77A JUMPI DUP3 CALLDATALOAD DUP3 SSTORE SWAP2 PUSH1 0x20 ADD SWAP2 SWAP1 PUSH1 0x1 ADD SWAP1 PUSH2 0x75F JUMP JUMPDEST JUMPDEST POP SWAP1 POP PUSH2 0x788 SWAP2 SWAP1 PUSH2 0x78C JUMP JUMPDEST POP SWAP1 JUMP JUMPDEST JUMPDEST DUP1 DUP3 GT ISZERO PUSH2 0x7A5 JUMPI PUSH1 0x0 DUP2 PUSH1 0x0 SWAP1 SSTORE POP PUSH1 0x1 ADD PUSH2 0x78D JUMP JUMPDEST POP SWAP1 JUMP JUMPDEST PUSH1 0x0 DUP1 DUP4 PUSH1 0x1F DUP5 ADD SLT PUSH2 0x7BF JUMPI PUSH2 0x7BE PUSH2 0xA60 JUMP JUMPDEST JUMPDEST DUP3 CALLDATALOAD SWAP1 POP PUSH8 0xFFFFFFFFFFFFFFFF DUP2 GT ISZERO PUSH2 0x7DC JUMPI PUSH2 0x7DB PUSH2 0xA5B JUMP JUMPDEST JUMPDEST PUSH1 0x20 DUP4 ADD SWAP2 POP DUP4 PUSH1 0x1 DUP3 MUL DUP4 ADD GT ISZERO PUSH2 0x7F8 JUMPI PUSH2 0x7F7 PUSH2 0xA65 JUMP JUMPDEST JUMPDEST SWAP3 POP SWAP3 SWAP1 POP JUMP JUMPDEST PUSH1 0x0 DUP2 CALLDATALOAD SWAP1 POP PUSH2 0x80E DUP2 PUSH2 0xA85 JUMP JUMPDEST SWAP3 SWAP2 POP POP JUMP JUMPDEST PUSH1 0x0 DUP1 PUSH1 0x20 DUP4 DUP6 SUB SLT ISZERO PUSH2 0x82B JUMPI PUSH2 0x82A PUSH2 0xA6F JUMP JUMPDEST JUMPDEST PUSH1 0x0 DUP4 ADD CALLDATALOAD PUSH8 0xFFFFFFFFFFFFFFFF DUP2 GT ISZERO PUSH2 0x849 JUMPI PUSH2 0x848 PUSH2 0xA6A JUMP JUMPDEST JUMPDEST PUSH2 0x855 DUP6 DUP3 DUP7 ADD PUSH2 0x7A9 JUMP JUMPDEST SWAP3 POP SWAP3 POP POP SWAP3 POP SWAP3 SWAP1 POP JUMP JUMPDEST PUSH1 0x0 PUSH1 0x20 DUP3 DUP5 SUB SLT ISZERO PUSH2 0x877 JUMPI PUSH2 0x876 PUSH2 0xA6F JUMP JUMPDEST JUMPDEST PUSH1 0x0 PUSH2 0x885 DUP5 DUP3 DUP6 ADD PUSH2 0x7FF JUMP JUMPDEST SWAP2 POP POP SWAP3 SWAP2 POP POP JUMP JUMPDEST PUSH1 0x0 DUP1 PUSH1 0x0 PUSH1 0x40 DUP5 DUP7 SUB SLT ISZERO PUSH2 0x8A7 JUMPI PUSH2 0x8A6 PUSH2 0xA6F JUMP JUMPDEST JUMPDEST PUSH1 0x0 PUSH2 0x8B5 DUP7 DUP3 DUP8 ADD PUSH2 0x7FF JUMP JUMPDEST SWAP4 POP POP PUSH1 0x20 DUP5 ADD CALLDATALOAD PUSH8 0xFFFFFFFFFFFFFFFF DUP2 GT ISZERO PUSH2 0x8D6 JUMPI PUSH2 0x8D5 PUSH2 0xA6A JUMP JUMPDEST JUMPDEST PUSH2 0x8E2 DUP7 DUP3 DUP8 ADD PUSH2 0x7A9 JUMP JUMPDEST SWAP3 POP SWAP3 POP POP SWAP3 POP SWAP3 POP SWAP3 JUMP JUMPDEST PUSH2 0x8F7 DUP2 PUSH2 0x982 JUMP JUMPDEST DUP3 MSTORE POP POP JUMP JUMPDEST PUSH1 0x0 PUSH2 0x908 DUP3 PUSH2 0x966 JUMP JUMPDEST PUSH2 0x912 DUP2 DUP6 PUSH2 0x971 JUMP JUMPDEST SWAP4 POP PUSH2 0x922 DUP2 DUP6 PUSH1 0x20 DUP7 ADD PUSH2 0x998 JUMP JUMPDEST PUSH2 0x92B DUP2 PUSH2 0xA74 JUMP JUMPDEST DUP5 ADD SWAP2 POP POP SWAP3 SWAP2 POP POP JUMP JUMPDEST PUSH1 0x0 PUSH1 0x40 DUP3 ADD SWAP1 POP DUP2 DUP2 SUB PUSH1 0x0 DUP4 ADD MSTORE PUSH2 0x950 DUP2 DUP6 PUSH2 0x8FD JUMP JUMPDEST SWAP1 POP PUSH2 0x95F PUSH1 0x20 DUP4 ADD DUP5 PUSH2 0x8EE JUMP JUMPDEST SWAP4 SWAP3 POP POP POP JUMP JUMPDEST PUSH1 0x0 DUP2 MLOAD SWAP1 POP SWAP2 SWAP1 POP JUMP JUMPDEST PUSH1 0x0 DUP3 DUP3 MSTORE PUSH1 0x20 DUP3 ADD SWAP1 POP SWAP3 SWAP2 POP POP JUMP JUMPDEST PUSH1 0x0 DUP2 ISZERO ISZERO SWAP1 POP SWAP2 SWAP1 POP JUMP JUMPDEST PUSH1 0x0 DUP2 SWAP1 POP SWAP2 SWAP1 POP JUMP JUMPDEST PUSH1 0x0 JUMPDEST DUP4 DUP2 LT ISZERO PUSH2 0x9B6 JUMPI DUP1 DUP3 ADD MLOAD DUP2 DUP5 ADD MSTORE PUSH1 0x20 DUP2 ADD SWAP1 POP PUSH2 0x99B JUMP JUMPDEST DUP4 DUP2 GT ISZERO PUSH2 0x9C5 JUMPI PUSH1 0x0 DUP5 DUP5 ADD MSTORE JUMPDEST POP POP POP POP JUMP JUMPDEST PUSH1 0x0 PUSH1 0x2 DUP3 DIV SWAP1 POP PUSH1 0x1 DUP3 AND DUP1 PUSH2 0x9E3 JUMPI PUSH1 0x7F DUP3 AND SWAP2 POP JUMPDEST PUSH1 0x20 DUP3 LT DUP2 EQ ISZERO PUSH2 0x9F7 JUMPI PUSH2 0x9F6 PUSH2 0x9FD JUMP JUMPDEST JUMPDEST POP SWAP2 SWAP1 POP JUMP JUMPDEST PUSH32 0x4E487B7100000000000000000000000000000000000000000000000000000000 PUSH1 0x0 MSTORE PUSH1 0x22 PUSH1 0x4 MSTORE PUSH1 0x24 PUSH1 0x0 REVERT JUMPDEST PUSH32 0x4E487B7100000000000000000000000000000000000000000000000000000000 PUSH1 0x0 MSTORE PUSH1 0x32 PUSH1 0x4 MSTORE PUSH1 0x24 PUSH1 0x0 REVERT JUMPDEST PUSH1 0x0 DUP1 REVERT JUMPDEST PUSH1 0x0 DUP1 REVERT JUMPDEST PUSH1 0x0 DUP1 REVERT JUMPDEST PUSH1 0x0 DUP1 REVERT JUMPDEST PUSH1 0x0 DUP1 REVERT JUMPDEST PUSH1 0x0 PUSH1 0x1F NOT PUSH1 0x1F DUP4 ADD AND SWAP1 POP SWAP2 SWAP1 POP JUMP JUMPDEST PUSH2 0xA8E DUP2 PUSH2 0x98E JUMP JUMPDEST DUP2 EQ PUSH2 0xA99 JUMPI PUSH1 0x0 DUP1 REVERT JUMPDEST POP JUMP INVALID LOG2 PUSH5 0x6970667358 0x22 SLT KECCAK256 SWAP3 PUSH32 0xD4AA93A36668B2A99E49CF23D0C840889B373318E5902331A52A3018B0EB6473 PUSH16 0x6C634300080700330000000000000000 "
				},
				"gasEstimates": {
					"creation": {
						"codeDepositCost": "554000",
						"executionCost": "587",
						"totalCost": "554587"
					},
					"external": {
						"create(string)": "infinite",
						"get(uint256)": "infinite",
						"get2(uint256)": "infinite",
						"todos(uint256)": "infinite",
						"toggleCompleted(uint256)": "29073",
						"toggleCompleted2(uint256)": "31207",
						"updateText(uint256,string)": "infinite"
					}
				},
				"methodIdentifiers": {
					"create(string)": "b6a46b3b",
					"get(uint256)": "9507d39a",
					"get2(uint256)": "31184dc3",
					"todos(uint256)": "bc8bc2b4",
					"toggleCompleted(uint256)": "455f5024",
					"toggleCompleted2(uint256)": "0a66a6b2",
					"updateText(uint256,string)": "cd111614"
				}
			},
			"storageLayout": {
				"storage": [
					{
						"astId": 10,
						"contract": "contracts/TodoList.sol:TodoList",
						"label": "todos",
						"offset": 0,
						"slot": "0",
						"type": "t_array(t_struct(Todo)6_storage)dyn_storage"
					}
				],
				"types": {
					"t_array(t_struct(Todo)6_storage)dyn_storage": {
						"base": "t_struct(Todo)6_storage",
						"encoding": "dynamic_array",
						"label": "struct TodoList.Todo[]",
						"numberOfBytes": "32"
					},
					"t_bool": {
						"encoding": "inplace",
						"label": "bool",
						"numberOfBytes": "1"
					},
					"t_string_storage": {
						"encoding": "bytes",
						"label": "string",
						"numberOfBytes": "32"
					},
					"t_struct(Todo)6_storage": {
						"encoding": "inplace",
						"label": "struct TodoList.Todo",
						"members": [
							{
								"astId": 3,
								"contract": "contracts/TodoList.sol:TodoList",
								"label": "text",
								"offset": 0,
								"slot": "0",
								"type": "t_string_storage"
							},
							{
								"astId": 5,
								"contract": "contracts/TodoList.sol:TodoList",
								"label": "completed",
								"offset": 0,
								"slot": "1",
								"type": "t_bool"
							}
						],
						"numberOfBytes": "64"
					}
				}
			},
			"userdoc": {
				"kind": "user",
				"methods": {},
				"version": 1
			}
		}
	}
}