{
	"contracts/FunctionOutputs.sol": {
		"FunctionOutputs": {
			"abi": [
				{
					"inputs": [],
					"name": "returnMany",
					"outputs": [
						{
							"internalType": "uint256",
							"name": "",
							"type": "uint256"
						},
						{
							"internalType": "bool",
							"name": "",
							"type": "bool"
						}
					],
					"stateMutability": "pure",
					"type": "function"
				},
				{
					"inputs": [],
					"name": "returnManyNamed",
					"outputs": [
						{
							"internalType": "uint256",
							"name": "x",
							"type": "uint256"
						},
						{
							"internalType": "bool",
							"name": "b",
							"type": "bool"
						}
					],
					"stateMutability": "pure",
					"type": "function"
				},
				{
					"inputs": [],
					"name": "returnManyNamedAssigned",
					"outputs": [
						{
							"internalType": "uint256",
							"name": "x",
							"type": "uint256"
						},
						{
							"internalType": "bool",
							"name": "b",
							"type": "bool"
						}
					],
					"stateMutability": "pure",
					"type": "function"
				}
			],
			"devdoc": {
				"kind": "dev",
				"methods": {},
				"version": 1
			},
			"evm": {
				"assembly": "    /* \"contracts/FunctionOutputs.sol\":160:680  contract FunctionOutputs {... */\n  mstore(0x40, 0x80)\n  callvalue\n  dup1\n  iszero\n  tag_1\n  jumpi\n  0x00\n  dup1\n  revert\ntag_1:\n  pop\n  dataSize(sub_0)\n  dup1\n  dataOffset(sub_0)\n  0x00\n  codecopy\n  0x00\n  return\nstop\n\nsub_0: assembly {\n        /* \"contracts/FunctionOutputs.sol\":160:680  contract FunctionOutputs {... */\n      mstore(0x40, 0x80)\n      callvalue\n      dup1\n      iszero\n      tag_1\n      jumpi\n      0x00\n      dup1\n      revert\n    tag_1:\n      pop\n      jumpi(tag_2, lt(calldatasize, 0x04))\n      shr(0xe0, calldataload(0x00))\n      dup1\n      0x5d45f1ce\n      eq\n      tag_3\n      jumpi\n      dup1\n      0x86887544\n      eq\n      tag_4\n      jumpi\n      dup1\n      0xb091b082\n      eq\n      tag_5\n      jumpi\n    tag_2:\n      0x00\n      dup1\n      revert\n        /* \"contracts/FunctionOutputs.sol\":402:499  function returnManyNamed() public pure returns (uint x, bool b) {... */\n    tag_3:\n      tag_6\n      tag_7\n      jump\t// in\n    tag_6:\n      mload(0x40)\n      tag_8\n      swap3\n      swap2\n      swap1\n      tag_9\n      jump\t// in\n    tag_8:\n      mload(0x40)\n      dup1\n      swap2\n      sub\n      swap1\n      return\n        /* \"contracts/FunctionOutputs.sol\":287:375  function returnMany() public pure returns (uint, bool) {... */\n    tag_4:\n      tag_10\n      tag_11\n      jump\t// in\n    tag_10:\n      mload(0x40)\n      tag_12\n      swap3\n      swap2\n      swap1\n      tag_9\n      jump\t// in\n    tag_12:\n      mload(0x40)\n      dup1\n      swap2\n      sub\n      swap1\n      return\n        /* \"contracts/FunctionOutputs.sol\":566:678  function returnManyNamedAssigned() public pure returns (uint x, bool b) {... */\n    tag_5:\n      tag_13\n      tag_14\n      jump\t// in\n    tag_13:\n      mload(0x40)\n      tag_15\n      swap3\n      swap2\n      swap1\n      tag_9\n      jump\t// in\n    tag_15:\n      mload(0x40)\n      dup1\n      swap2\n      sub\n      swap1\n      return\n        /* \"contracts/FunctionOutputs.sol\":402:499  function returnManyNamed() public pure returns (uint x, bool b) {... */\n    tag_7:\n        /* \"contracts/FunctionOutputs.sol\":450:456  uint x */\n      0x00\n        /* \"contracts/FunctionOutputs.sol\":458:464  bool b */\n      dup1\n        /* \"contracts/FunctionOutputs.sol\":484:485  1 */\n      0x01\n        /* \"contracts/FunctionOutputs.sol\":487:491  true */\n      dup1\n        /* \"contracts/FunctionOutputs.sol\":476:492  return (1, true) */\n      swap2\n      pop\n      swap2\n      pop\n        /* \"contracts/FunctionOutputs.sol\":402:499  function returnManyNamed() public pure returns (uint x, bool b) {... */\n      swap1\n      swap2\n      jump\t// out\n        /* \"contracts/FunctionOutputs.sol\":287:375  function returnMany() public pure returns (uint, bool) {... */\n    tag_11:\n        /* \"contracts/FunctionOutputs.sol\":330:334  uint */\n      0x00\n        /* \"contracts/FunctionOutputs.sol\":336:340  bool */\n      dup1\n        /* \"contracts/FunctionOutputs.sol\":360:361  1 */\n      0x01\n        /* \"contracts/FunctionOutputs.sol\":363:367  true */\n      dup1\n        /* \"contracts/FunctionOutputs.sol\":352:368  return (1, true) */\n      swap2\n      pop\n      swap2\n      pop\n        /* \"contracts/FunctionOutputs.sol\":287:375  function returnMany() public pure returns (uint, bool) {... */\n      swap1\n      swap2\n      jump\t// out\n        /* \"contracts/FunctionOutputs.sol\":566:678  function returnManyNamedAssigned() public pure returns (uint x, bool b) {... */\n    tag_14:\n        /* \"contracts/FunctionOutputs.sol\":622:628  uint x */\n      0x00\n        /* \"contracts/FunctionOutputs.sol\":630:636  bool b */\n      dup1\n        /* \"contracts/FunctionOutputs.sol\":652:653  1 */\n      0x01\n        /* \"contracts/FunctionOutputs.sol\":648:653  x = 1 */\n      swap2\n      pop\n        /* \"contracts/FunctionOutputs.sol\":667:671  true */\n      0x01\n        /* \"contracts/FunctionOutputs.sol\":663:671  b = true */\n      swap1\n      pop\n        /* \"contracts/FunctionOutputs.sol\":566:678  function returnManyNamedAssigned() public pure returns (uint x, bool b) {... */\n      swap1\n      swap2\n      jump\t// out\n        /* \"#utility.yul\":7:116   */\n    tag_20:\n        /* \"#utility.yul\":88:109   */\n      tag_22\n        /* \"#utility.yul\":103:108   */\n      dup2\n        /* \"#utility.yul\":88:109   */\n      tag_23\n      jump\t// in\n    tag_22:\n        /* \"#utility.yul\":83:86   */\n      dup3\n        /* \"#utility.yul\":76:110   */\n      mstore\n        /* \"#utility.yul\":7:116   */\n      pop\n      pop\n      jump\t// out\n        /* \"#utility.yul\":122:240   */\n    tag_24:\n        /* \"#utility.yul\":209:233   */\n      tag_26\n        /* \"#utility.yul\":227:232   */\n      dup2\n        /* \"#utility.yul\":209:233   */\n      tag_27\n      jump\t// in\n    tag_26:\n        /* \"#utility.yul\":204:207   */\n      dup3\n        /* \"#utility.yul\":197:234   */\n      mstore\n        /* \"#utility.yul\":122:240   */\n      pop\n      pop\n      jump\t// out\n        /* \"#utility.yul\":246:566   */\n    tag_9:\n        /* \"#utility.yul\":361:365   */\n      0x00\n        /* \"#utility.yul\":399:401   */\n      0x40\n        /* \"#utility.yul\":388:397   */\n      dup3\n        /* \"#utility.yul\":384:402   */\n      add\n        /* \"#utility.yul\":376:402   */\n      swap1\n      pop\n        /* \"#utility.yul\":412:483   */\n      tag_29\n        /* \"#utility.yul\":480:481   */\n      0x00\n        /* \"#utility.yul\":469:478   */\n      dup4\n        /* \"#utility.yul\":465:482   */\n      add\n        /* \"#utility.yul\":456:462   */\n      dup6\n        /* \"#utility.yul\":412:483   */\n      tag_24\n      jump\t// in\n    tag_29:\n        /* \"#utility.yul\":493:559   */\n      tag_30\n        /* \"#utility.yul\":555:557   */\n      0x20\n        /* \"#utility.yul\":544:553   */\n      dup4\n        /* \"#utility.yul\":540:558   */\n      add\n        /* \"#utility.yul\":531:537   */\n      dup5\n        /* \"#utility.yul\":493:559   */\n      tag_20\n      jump\t// in\n    tag_30:\n        /* \"#utility.yul\":246:566   */\n      swap4\n      swap3\n      pop\n      pop\n      pop\n      jump\t// out\n        /* \"#utility.yul\":572:662   */\n    tag_23:\n        /* \"#utility.yul\":606:613   */\n      0x00\n        /* \"#utility.yul\":649:654   */\n      dup2\n        /* \"#utility.yul\":642:655   */\n      iszero\n        /* \"#utility.yul\":635:656   */\n      iszero\n        /* \"#utility.yul\":624:656   */\n      swap1\n      pop\n        /* \"#utility.yul\":572:662   */\n      swap2\n      swap1\n      pop\n      jump\t// out\n        /* \"#utility.yul\":668:745   */\n    tag_27:\n        /* \"#utility.yul\":705:712   */\n      0x00\n        /* \"#utility.yul\":734:739   */\n      dup2\n        /* \"#utility.yul\":723:739   */\n      swap1\n      pop\n        /* \"#utility.yul\":668:745   */\n      swap2\n      swap1\n      pop\n      jump\t// out\n\n    auxdata: 0xa2646970667358221220e697a844ff6a54804ded981269f0a634ec6be2b35c5e281e28213a9bf1370a3a64736f6c63430008070033\n}\n",
				"bytecode": {
					"linkReferences": {},
					"object": "608060405234801561001057600080fd5b50610161806100206000396000f3fe608060405234801561001057600080fd5b50600436106100415760003560e01c80635d45f1ce146100465780638688754414610065578063b091b08214610084575b600080fd5b61004e6100a3565b60405161005c9291906100ec565b60405180910390f35b61006d6100b1565b60405161007b9291906100ec565b60405180910390f35b61008c6100bf565b60405161009a9291906100ec565b60405180910390f35b600080600180915091509091565b600080600180915091509091565b60008060019150600190509091565b6100d781610115565b82525050565b6100e681610121565b82525050565b600060408201905061010160008301856100dd565b61010e60208301846100ce565b9392505050565b60008115159050919050565b600081905091905056fea2646970667358221220e697a844ff6a54804ded981269f0a634ec6be2b35c5e281e28213a9bf1370a3a64736f6c63430008070033",
					"opcodes": "PUSH1 0x80 PUSH1 0x40 MSTORE CALLVALUE DUP1 ISZERO PUSH2 0x10 JUMPI PUSH1 0x0 DUP1 REVERT JUMPDEST POP PUSH2 0x161 DUP1 PUSH2 0x20 PUSH1 0x0 CODECOPY PUSH1 0x0 RETURN INVALID PUSH1 0x80 PUSH1 0x40 MSTORE CALLVALUE DUP1 ISZERO PUSH2 0x10 JUMPI PUSH1 0x0 DUP1 REVERT JUMPDEST POP PUSH1 0x4 CALLDATASIZE LT PUSH2 0x41 JUMPI PUSH1 0x0 CALLDATALOAD PUSH1 0xE0 SHR DUP1 PUSH4 0x5D45F1CE EQ PUSH2 0x46 JUMPI DUP1 PUSH4 0x86887544 EQ PUSH2 0x65 JUMPI DUP1 PUSH4 0xB091B082 EQ PUSH2 0x84 JUMPI JUMPDEST PUSH1 0x0 DUP1 REVERT JUMPDEST PUSH2 0x4E PUSH2 0xA3 JUMP JUMPDEST PUSH1 0x40 MLOAD PUSH2 0x5C SWAP3 SWAP2 SWAP1 PUSH2 0xEC JUMP JUMPDEST PUSH1 0x40 MLOAD DUP1 SWAP2 SUB SWAP1 RETURN JUMPDEST PUSH2 0x6D PUSH2 0xB1 JUMP JUMPDEST PUSH1 0x40 MLOAD PUSH2 0x7B SWAP3 SWAP2 SWAP1 PUSH2 0xEC JUMP JUMPDEST PUSH1 0x40 MLOAD DUP1 SWAP2 SUB SWAP1 RETURN JUMPDEST PUSH2 0x8C PUSH2 0xBF JUMP JUMPDEST PUSH1 0x40 MLOAD PUSH2 0x9A SWAP3 SWAP2 SWAP1 PUSH2 0xEC JUMP JUMPDEST PUSH1 0x40 MLOAD DUP1 SWAP2 SUB SWAP1 RETURN JUMPDEST PUSH1 0x0 DUP1 PUSH1 0x1 DUP1 SWAP2 POP SWAP2 POP SWAP1 SWAP2 JUMP JUMPDEST PUSH1 0x0 DUP1 PUSH1 0x1 DUP1 SWAP2 POP SWAP2 POP SWAP1 SWAP2 JUMP JUMPDEST PUSH1 0x0 DUP1 PUSH1 0x1 SWAP2 POP PUSH1 0x1 SWAP1 POP SWAP1 SWAP2 JUMP JUMPDEST PUSH2 0xD7 DUP2 PUSH2 0x115 JUMP JUMPDEST DUP3 MSTORE POP POP JUMP JUMPDEST PUSH2 0xE6 DUP2 PUSH2 0x121 JUMP JUMPDEST DUP3 MSTORE POP POP JUMP JUMPDEST PUSH1 0x0 PUSH1 0x40 DUP3 ADD SWAP1 POP PUSH2 0x101 PUSH1 0x0 DUP4 ADD DUP6 PUSH2 0xDD JUMP JUMPDEST PUSH2 0x10E PUSH1 0x20 DUP4 ADD DUP5 PUSH2 0xCE JUMP JUMPDEST SWAP4 SWAP3 POP POP POP JUMP JUMPDEST PUSH1 0x0 DUP2 ISZERO ISZERO SWAP1 POP SWAP2 SWAP1 POP JUMP JUMPDEST PUSH1 0x0 DUP2 SWAP1 POP SWAP2 SWAP1 POP JUMP INVALID LOG2 PUSH5 0x6970667358 0x22 SLT KECCAK256 0xE6 SWAP8 0xA8 DIFFICULTY SELFDESTRUCT PUSH11 0x54804DED981269F0A634EC PUSH12 0xE2B35C5E281E28213A9BF137 EXP GASPRICE PUSH5 0x736F6C6343 STOP ADDMOD SMOD STOP CALLER "
				},
				"gasEstimates": {
					"creation": {
						"codeDepositCost": "70600",
						"executionCost": "123",
						"totalCost": "70723"
					},
					"external": {
						"returnMany()": "457",
						"returnManyNamed()": "435",
						"returnManyNamedAssigned()": "479"
					}
				},
				"methodIdentifiers": {
					"returnMany()": "86887544",
					"returnManyNamed()": "5d45f1ce",
					"returnManyNamedAssigned()": "b091b082"
				}
			},
			"storageLayout": {
				"storage": [],
				"types": null
			},
			"userdoc": {
				"kind": "user",
				"methods": {},
				"version": 1
			}
		}
	}
}