{
	"contracts/Visibility.sol": {
		"VisibilityChild": {
			"abi": [
				{
					"inputs": [],
					"name": "examples",
					"outputs": [],
					"stateMutability": "view",
					"type": "function"
				},
				{
					"inputs": [],
					"name": "examples2",
					"outputs": [],
					"stateMutability": "view",
					"type": "function"
				},
				{
					"inputs": [],
					"name": "externalFunc",
					"outputs": [
						{
							"internalType": "uint256",
							"name": "",
							"type": "uint256"
						}
					],
					"stateMutability": "pure",
					"type": "function"
				},
				{
					"inputs": [],
					"name": "publicFunc",
					"outputs": [
						{
							"internalType": "uint256",
							"name": "",
							"type": "uint256"
						}
					],
					"stateMutability": "pure",
					"type": "function"
				},
				{
					"inputs": [],
					"name": "z",
					"outputs": [
						{
							"internalType": "uint256",
							"name": "",
							"type": "uint256"
						}
					],
					"stateMutability": "view",
					"type": "function"
				}
			],
			"devdoc": {
				"kind": "dev",
				"methods": {},
				"version": 1
			},
			"evm": {
				"assembly": "    /* \"contracts/Visibility.sol\":1048:1206  contract VisibilityChild is VisibilityBase {... */\n  mstore(0x40, 0x80)\n    /* \"contracts/Visibility.sol\":512:513  0 */\n  0x00\n    /* \"contracts/Visibility.sol\":495:513  uint private x = 0 */\n  dup1\n  sstore\n    /* \"contracts/Visibility.sol\":537:538  1 */\n  0x01\n    /* \"contracts/Visibility.sol\":519:538  uint internal y = 1 */\n  dup1\n  sstore\n    /* \"contracts/Visibility.sol\":560:561  2 */\n  0x02\n    /* \"contracts/Visibility.sol\":544:561  uint public z = 2 */\n  dup1\n  sstore\n    /* \"contracts/Visibility.sol\":1048:1206  contract VisibilityChild is VisibilityBase {... */\n  callvalue\n  dup1\n  iszero\n  tag_1\n  jumpi\n  0x00\n  dup1\n  revert\ntag_1:\n  pop\n  dataSize(sub_0)\n  dup1\n  dataOffset(sub_0)\n  0x00\n  codecopy\n  0x00\n  return\nstop\n\nsub_0: assembly {\n        /* \"contracts/Visibility.sol\":1048:1206  contract VisibilityChild is VisibilityBase {... */\n      mstore(0x40, 0x80)\n      callvalue\n      dup1\n      iszero\n      tag_1\n      jumpi\n      0x00\n      dup1\n      revert\n    tag_1:\n      pop\n      jumpi(tag_2, lt(calldatasize, 0x04))\n      shr(0xe0, calldataload(0x00))\n      dup1\n      0x335d00c2\n      eq\n      tag_3\n      jumpi\n      dup1\n      0x42b148aa\n      eq\n      tag_4\n      jumpi\n      dup1\n      0x4b73383f\n      eq\n      tag_5\n      jumpi\n      dup1\n      0xc3be8e2c\n      eq\n      tag_6\n      jumpi\n      dup1\n      0xc5d7802e\n      eq\n      tag_7\n      jumpi\n    tag_2:\n      0x00\n      dup1\n      revert\n        /* \"contracts/Visibility.sol\":805:1044  function examples() external view {... */\n    tag_3:\n      tag_8\n      tag_9\n      jump\t// in\n    tag_8:\n      stop\n        /* \"contracts/Visibility.sol\":744:799  function externalFunc() external pure returns (uint) {} */\n    tag_4:\n      tag_10\n      tag_11\n      jump\t// in\n    tag_10:\n      mload(0x40)\n      tag_12\n      swap2\n      swap1\n      tag_13\n      jump\t// in\n    tag_12:\n      mload(0x40)\n      dup1\n      swap2\n      sub\n      swap1\n      return\n        /* \"contracts/Visibility.sol\":687:738  function publicFunc() public pure returns (uint) {} */\n    tag_5:\n      tag_14\n      tag_15\n      jump\t// in\n    tag_14:\n      mload(0x40)\n      tag_16\n      swap2\n      swap1\n      tag_13\n      jump\t// in\n    tag_16:\n      mload(0x40)\n      dup1\n      swap2\n      sub\n      swap1\n      return\n        /* \"contracts/Visibility.sol\":1097:1204  function examples2() external view {... */\n    tag_6:\n      tag_17\n      tag_18\n      jump\t// in\n    tag_17:\n      stop\n        /* \"contracts/Visibility.sol\":544:561  uint public z = 2 */\n    tag_7:\n      tag_19\n      tag_20\n      jump\t// in\n    tag_19:\n      mload(0x40)\n      tag_21\n      swap2\n      swap1\n      tag_13\n      jump\t// in\n    tag_21:\n      mload(0x40)\n      dup1\n      swap2\n      sub\n      swap1\n      return\n        /* \"contracts/Visibility.sol\":805:1044  function examples() external view {... */\n    tag_9:\n        /* \"contracts/Visibility.sol\":857:858  z */\n      sload(0x02)\n        /* \"contracts/Visibility.sol\":853:854  y */\n      sload(0x01)\n        /* \"contracts/Visibility.sol\":849:850  x */\n      sload(0x00)\n        /* \"contracts/Visibility.sol\":849:854  x + y */\n      tag_23\n      swap2\n      swap1\n      tag_24\n      jump\t// in\n    tag_23:\n        /* \"contracts/Visibility.sol\":849:858  x + y + z */\n      tag_25\n      swap2\n      swap1\n      tag_24\n      jump\t// in\n    tag_25:\n      pop\n        /* \"contracts/Visibility.sol\":868:881  privateFunc() */\n      tag_26\n        /* \"contracts/Visibility.sol\":868:879  privateFunc */\n      tag_27\n        /* \"contracts/Visibility.sol\":868:881  privateFunc() */\n      jump\t// in\n    tag_26:\n      pop\n        /* \"contracts/Visibility.sol\":891:905  internalFunc() */\n      tag_28\n        /* \"contracts/Visibility.sol\":891:903  internalFunc */\n      tag_29\n        /* \"contracts/Visibility.sol\":891:905  internalFunc() */\n      jump\t// in\n    tag_28:\n      pop\n        /* \"contracts/Visibility.sol\":915:927  publicFunc() */\n      tag_30\n        /* \"contracts/Visibility.sol\":915:925  publicFunc */\n      tag_15\n        /* \"contracts/Visibility.sol\":915:927  publicFunc() */\n      jump\t// in\n    tag_30:\n      pop\n        /* \"contracts/Visibility.sol\":805:1044  function examples() external view {... */\n      jump\t// out\n        /* \"contracts/Visibility.sol\":744:799  function externalFunc() external pure returns (uint) {} */\n    tag_11:\n        /* \"contracts/Visibility.sol\":791:795  uint */\n      0x00\n        /* \"contracts/Visibility.sol\":744:799  function externalFunc() external pure returns (uint) {} */\n      swap1\n      jump\t// out\n        /* \"contracts/Visibility.sol\":687:738  function publicFunc() public pure returns (uint) {} */\n    tag_15:\n        /* \"contracts/Visibility.sol\":730:734  uint */\n      0x00\n        /* \"contracts/Visibility.sol\":687:738  function publicFunc() public pure returns (uint) {} */\n      swap1\n      jump\t// out\n        /* \"contracts/Visibility.sol\":1097:1204  function examples2() external view {... */\n    tag_18:\n        /* \"contracts/Visibility.sol\":1146:1147  z */\n      sload(0x02)\n        /* \"contracts/Visibility.sol\":1142:1143  y */\n      sload(0x01)\n        /* \"contracts/Visibility.sol\":1142:1147  y + z */\n      tag_34\n      swap2\n      swap1\n      tag_24\n      jump\t// in\n    tag_34:\n      pop\n        /* \"contracts/Visibility.sol\":1185:1197  publicFunc() */\n      tag_35\n        /* \"contracts/Visibility.sol\":1185:1195  publicFunc */\n      tag_15\n        /* \"contracts/Visibility.sol\":1185:1197  publicFunc() */\n      jump\t// in\n    tag_35:\n      pop\n        /* \"contracts/Visibility.sol\":1097:1204  function examples2() external view {... */\n      jump\t// out\n        /* \"contracts/Visibility.sol\":544:561  uint public z = 2 */\n    tag_20:\n      sload(0x02)\n      dup2\n      jump\t// out\n        /* \"contracts/Visibility.sol\":568:621  function privateFunc() private pure returns (uint) {} */\n    tag_27:\n        /* \"contracts/Visibility.sol\":613:617  uint */\n      0x00\n        /* \"contracts/Visibility.sol\":568:621  function privateFunc() private pure returns (uint) {} */\n      swap1\n      jump\t// out\n        /* \"contracts/Visibility.sol\":627:681  function internalFunc() private pure returns (uint) {} */\n    tag_29:\n        /* \"contracts/Visibility.sol\":673:677  uint */\n      0x00\n        /* \"contracts/Visibility.sol\":627:681  function internalFunc() private pure returns (uint) {} */\n      swap1\n      jump\t// out\n        /* \"#utility.yul\":7:125   */\n    tag_39:\n        /* \"#utility.yul\":94:118   */\n      tag_41\n        /* \"#utility.yul\":112:117   */\n      dup2\n        /* \"#utility.yul\":94:118   */\n      tag_42\n      jump\t// in\n    tag_41:\n        /* \"#utility.yul\":89:92   */\n      dup3\n        /* \"#utility.yul\":82:119   */\n      mstore\n        /* \"#utility.yul\":7:125   */\n      pop\n      pop\n      jump\t// out\n        /* \"#utility.yul\":131:353   */\n    tag_13:\n        /* \"#utility.yul\":224:228   */\n      0x00\n        /* \"#utility.yul\":262:264   */\n      0x20\n        /* \"#utility.yul\":251:260   */\n      dup3\n        /* \"#utility.yul\":247:265   */\n      add\n        /* \"#utility.yul\":239:265   */\n      swap1\n      pop\n        /* \"#utility.yul\":275:346   */\n      tag_44\n        /* \"#utility.yul\":343:344   */\n      0x00\n        /* \"#utility.yul\":332:341   */\n      dup4\n        /* \"#utility.yul\":328:345   */\n      add\n        /* \"#utility.yul\":319:325   */\n      dup5\n        /* \"#utility.yul\":275:346   */\n      tag_39\n      jump\t// in\n    tag_44:\n        /* \"#utility.yul\":131:353   */\n      swap3\n      swap2\n      pop\n      pop\n      jump\t// out\n        /* \"#utility.yul\":359:664   */\n    tag_24:\n        /* \"#utility.yul\":399:402   */\n      0x00\n        /* \"#utility.yul\":418:438   */\n      tag_46\n        /* \"#utility.yul\":436:437   */\n      dup3\n        /* \"#utility.yul\":418:438   */\n      tag_42\n      jump\t// in\n    tag_46:\n        /* \"#utility.yul\":413:438   */\n      swap2\n      pop\n        /* \"#utility.yul\":452:472   */\n      tag_47\n        /* \"#utility.yul\":470:471   */\n      dup4\n        /* \"#utility.yul\":452:472   */\n      tag_42\n      jump\t// in\n    tag_47:\n        /* \"#utility.yul\":447:472   */\n      swap3\n      pop\n        /* \"#utility.yul\":606:607   */\n      dup3\n        /* \"#utility.yul\":538:604   */\n      0xffffffffffffffffffffffffffffffffffffffffffffffffffffffffffffffff\n        /* \"#utility.yul\":534:608   */\n      sub\n        /* \"#utility.yul\":531:532   */\n      dup3\n        /* \"#utility.yul\":528:609   */\n      gt\n        /* \"#utility.yul\":525:632   */\n      iszero\n      tag_48\n      jumpi\n        /* \"#utility.yul\":612:630   */\n      tag_49\n      tag_50\n      jump\t// in\n    tag_49:\n        /* \"#utility.yul\":525:632   */\n    tag_48:\n        /* \"#utility.yul\":656:657   */\n      dup3\n        /* \"#utility.yul\":653:654   */\n      dup3\n        /* \"#utility.yul\":649:658   */\n      add\n        /* \"#utility.yul\":642:658   */\n      swap1\n      pop\n        /* \"#utility.yul\":359:664   */\n      swap3\n      swap2\n      pop\n      pop\n      jump\t// out\n        /* \"#utility.yul\":670:747   */\n    tag_42:\n        /* \"#utility.yul\":707:714   */\n      0x00\n        /* \"#utility.yul\":736:741   */\n      dup2\n        /* \"#utility.yul\":725:741   */\n      swap1\n      pop\n        /* \"#utility.yul\":670:747   */\n      swap2\n      swap1\n      pop\n      jump\t// out\n        /* \"#utility.yul\":753:933   */\n    tag_50:\n        /* \"#utility.yul\":801:878   */\n      0x4e487b7100000000000000000000000000000000000000000000000000000000\n        /* \"#utility.yul\":798:799   */\n      0x00\n        /* \"#utility.yul\":791:879   */\n      mstore\n        /* \"#utility.yul\":898:902   */\n      0x11\n        /* \"#utility.yul\":895:896   */\n      0x04\n        /* \"#utility.yul\":888:903   */\n      mstore\n        /* \"#utility.yul\":922:926   */\n      0x24\n        /* \"#utility.yul\":919:920   */\n      0x00\n        /* \"#utility.yul\":912:927   */\n      revert\n\n    auxdata: 0xa264697066735822122099120e16913a16de1cd8e0d9ffac25b176715db62ce5e6366683026729fda5de64736f6c63430008070033\n}\n",
				"bytecode": {
					"linkReferences": {},
					"object": "608060405260008055600180556002805534801561001c57600080fd5b5061022a8061002c6000396000f3fe608060405234801561001057600080fd5b50600436106100575760003560e01c8063335d00c21461005c57806342b148aa146100665780634b73383f14610084578063c3be8e2c146100a2578063c5d7802e146100ac575b600080fd5b6100646100ca565b005b61006e610105565b60405161007b919061014a565b60405180910390f35b61008c61010a565b604051610099919061014a565b60405180910390f35b6100aa61010f565b005b6100b461012b565b6040516100c1919061014a565b60405180910390f35b6002546001546000546100dd9190610165565b6100e79190610165565b506100f0610131565b506100f9610136565b5061010261010a565b50565b600090565b600090565b60025460015461011f9190610165565b5061012861010a565b50565b60025481565b600090565b600090565b610144816101bb565b82525050565b600060208201905061015f600083018461013b565b92915050565b6000610170826101bb565b915061017b836101bb565b9250827fffffffffffffffffffffffffffffffffffffffffffffffffffffffffffffffff038211156101b0576101af6101c5565b5b828201905092915050565b6000819050919050565b7f4e487b7100000000000000000000000000000000000000000000000000000000600052601160045260246000fdfea264697066735822122099120e16913a16de1cd8e0d9ffac25b176715db62ce5e6366683026729fda5de64736f6c63430008070033",
					"opcodes": "PUSH1 0x80 PUSH1 0x40 MSTORE PUSH1 0x0 DUP1 SSTORE PUSH1 0x1 DUP1 SSTORE PUSH1 0x2 DUP1 SSTORE CALLVALUE DUP1 ISZERO PUSH2 0x1C JUMPI PUSH1 0x0 DUP1 REVERT JUMPDEST POP PUSH2 0x22A DUP1 PUSH2 0x2C PUSH1 0x0 CODECOPY PUSH1 0x0 RETURN INVALID PUSH1 0x80 PUSH1 0x40 MSTORE CALLVALUE DUP1 ISZERO PUSH2 0x10 JUMPI PUSH1 0x0 DUP1 REVERT JUMPDEST POP PUSH1 0x4 CALLDATASIZE LT PUSH2 0x57 JUMPI PUSH1 0x0 CALLDATALOAD PUSH1 0xE0 SHR DUP1 PUSH4 0x335D00C2 EQ PUSH2 0x5C JUMPI DUP1 PUSH4 0x42B148AA EQ PUSH2 0x66 JUMPI DUP1 PUSH4 0x4B73383F EQ PUSH2 0x84 JUMPI DUP1 PUSH4 0xC3BE8E2C EQ PUSH2 0xA2 JUMPI DUP1 PUSH4 0xC5D7802E EQ PUSH2 0xAC JUMPI JUMPDEST PUSH1 0x0 DUP1 REVERT JUMPDEST PUSH2 0x64 PUSH2 0xCA JUMP JUMPDEST STOP JUMPDEST PUSH2 0x6E PUSH2 0x105 JUMP JUMPDEST PUSH1 0x40 MLOAD PUSH2 0x7B SWAP2 SWAP1 PUSH2 0x14A JUMP JUMPDEST PUSH1 0x40 MLOAD DUP1 SWAP2 SUB SWAP1 RETURN JUMPDEST PUSH2 0x8C PUSH2 0x10A JUMP JUMPDEST PUSH1 0x40 MLOAD PUSH2 0x99 SWAP2 SWAP1 PUSH2 0x14A JUMP JUMPDEST PUSH1 0x40 MLOAD DUP1 SWAP2 SUB SWAP1 RETURN JUMPDEST PUSH2 0xAA PUSH2 0x10F JUMP JUMPDEST STOP JUMPDEST PUSH2 0xB4 PUSH2 0x12B JUMP JUMPDEST PUSH1 0x40 MLOAD PUSH2 0xC1 SWAP2 SWAP1 PUSH2 0x14A JUMP JUMPDEST PUSH1 0x40 MLOAD DUP1 SWAP2 SUB SWAP1 RETURN JUMPDEST PUSH1 0x2 SLOAD PUSH1 0x1 SLOAD PUSH1 0x0 SLOAD PUSH2 0xDD SWAP2 SWAP1 PUSH2 0x165 JUMP JUMPDEST PUSH2 0xE7 SWAP2 SWAP1 PUSH2 0x165 JUMP JUMPDEST POP PUSH2 0xF0 PUSH2 0x131 JUMP JUMPDEST POP PUSH2 0xF9 PUSH2 0x136 JUMP JUMPDEST POP PUSH2 0x102 PUSH2 0x10A JUMP JUMPDEST POP JUMP JUMPDEST PUSH1 0x0 SWAP1 JUMP JUMPDEST PUSH1 0x0 SWAP1 JUMP JUMPDEST PUSH1 0x2 SLOAD PUSH1 0x1 SLOAD PUSH2 0x11F SWAP2 SWAP1 PUSH2 0x165 JUMP JUMPDEST POP PUSH2 0x128 PUSH2 0x10A JUMP JUMPDEST POP JUMP JUMPDEST PUSH1 0x2 SLOAD DUP2 JUMP JUMPDEST PUSH1 0x0 SWAP1 JUMP JUMPDEST PUSH1 0x0 SWAP1 JUMP JUMPDEST PUSH2 0x144 DUP2 PUSH2 0x1BB JUMP JUMPDEST DUP3 MSTORE POP POP JUMP JUMPDEST PUSH1 0x0 PUSH1 0x20 DUP3 ADD SWAP1 POP PUSH2 0x15F PUSH1 0x0 DUP4 ADD DUP5 PUSH2 0x13B JUMP JUMPDEST SWAP3 SWAP2 POP POP JUMP JUMPDEST PUSH1 0x0 PUSH2 0x170 DUP3 PUSH2 0x1BB JUMP JUMPDEST SWAP2 POP PUSH2 0x17B DUP4 PUSH2 0x1BB JUMP JUMPDEST SWAP3 POP DUP3 PUSH32 0xFFFFFFFFFFFFFFFFFFFFFFFFFFFFFFFFFFFFFFFFFFFFFFFFFFFFFFFFFFFFFFFF SUB DUP3 GT ISZERO PUSH2 0x1B0 JUMPI PUSH2 0x1AF PUSH2 0x1C5 JUMP JUMPDEST JUMPDEST DUP3 DUP3 ADD SWAP1 POP SWAP3 SWAP2 POP POP JUMP JUMPDEST PUSH1 0x0 DUP2 SWAP1 POP SWAP2 SWAP1 POP JUMP JUMPDEST PUSH32 0x4E487B7100000000000000000000000000000000000000000000000000000000 PUSH1 0x0 MSTORE PUSH1 0x11 PUSH1 0x4 MSTORE PUSH1 0x24 PUSH1 0x0 REVERT INVALID LOG2 PUSH5 0x6970667358 0x22 SLT KECCAK256 SWAP10 SLT 0xE AND SWAP2 GASPRICE AND 0xDE SHR 0xD8 0xE0 0xD9 SELFDESTRUCT 0xAC 0x25 0xB1 PUSH23 0x715DB62CE5E6366683026729FDA5DE64736F6C63430008 SMOD STOP CALLER "
				},
				"gasEstimates": {
					"creation": {
						"codeDepositCost": "110800",
						"executionCost": "49377",
						"totalCost": "160177"
					},
					"external": {
						"examples()": "infinite",
						"examples2()": "infinite",
						"externalFunc()": "329",
						"publicFunc()": "351",
						"z()": "2495"
					}
				},
				"methodIdentifiers": {
					"examples()": "335d00c2",
					"examples2()": "c3be8e2c",
					"externalFunc()": "42b148aa",
					"publicFunc()": "4b73383f",
					"z()": "c5d7802e"
				}
			},
			"storageLayout": {
				"storage": [
					{
						"astId": 4,
						"contract": "contracts/Visibility.sol:VisibilityChild",
						"label": "x",
						"offset": 0,
						"slot": "0",
						"type": "t_uint256"
					},
					{
						"astId": 7,
						"contract": "contracts/Visibility.sol:VisibilityChild",
						"label": "y",
						"offset": 0,
						"slot": "1",
						"type": "t_uint256"
					},
					{
						"astId": 10,
						"contract": "contracts/Visibility.sol:VisibilityChild",
						"label": "z",
						"offset": 0,
						"slot": "2",
						"type": "t_uint256"
					}
				],
				"types": {
					"t_uint256": {
						"encoding": "inplace",
						"label": "uint256",
						"numberOfBytes": "32"
					}
				}
			},
			"userdoc": {
				"kind": "user",
				"methods": {},
				"version": 1
			}
		}
	}
}