{
	"contracts/Visibility.sol": {
		"VisibilityBase": {
			"abi": [
				{
					"inputs": [],
					"name": "examples",
					"outputs": [],
					"stateMutability": "view",
					"type": "function"
				},
				{
					"inputs": [],
					"name": "externalFunc",
					"outputs": [
						{
							"internalType": "uint256",
							"name": "",
							"type": "uint256"
						}
					],
					"stateMutability": "pure",
					"type": "function"
				},
				{
					"inputs": [],
					"name": "publicFunc",
					"outputs": [
						{
							"internalType": "uint256",
							"name": "",
							"type": "uint256"
						}
					],
					"stateMutability": "pure",
					"type": "function"
				},
				{
					"inputs": [],
					"name": "z",
					"outputs": [
						{
							"internalType": "uint256",
							"name": "",
							"type": "uint256"
						}
					],
					"stateMutability": "view",
					"type": "function"
				}
			],
			"devdoc": {
				"kind": "dev",
				"methods": {},
				"version": 1
			},
			"evm": {
				"assembly": "    /* \"contracts/Visibility.sol\":465:1046  contract VisibilityBase {... */\n  mstore(0x40, 0x80)\n    /* \"contracts/Visibility.sol\":512:513  0 */\n  0x00\n    /* \"contracts/Visibility.sol\":495:513  uint private x = 0 */\n  dup1\n  sstore\n    /* \"contracts/Visibility.sol\":537:538  1 */\n  0x01\n    /* \"contracts/Visibility.sol\":519:538  uint internal y = 1 */\n  dup1\n  sstore\n    /* \"contracts/Visibility.sol\":560:561  2 */\n  0x02\n    /* \"contracts/Visibility.sol\":544:561  uint public z = 2 */\n  dup1\n  sstore\n    /* \"contracts/Visibility.sol\":465:1046  contract VisibilityBase {... */\n  callvalue\n  dup1\n  iszero\n  tag_1\n  jumpi\n  0x00\n  dup1\n  revert\ntag_1:\n  pop\n  dataSize(sub_0)\n  dup1\n  dataOffset(sub_0)\n  0x00\n  codecopy\n  0x00\n  return\nstop\n\nsub_0: assembly {\n        /* \"contracts/Visibility.sol\":465:1046  contract VisibilityBase {... */\n      mstore(0x40, 0x80)\n      callvalue\n      dup1\n      iszero\n      tag_1\n      jumpi\n      0x00\n      dup1\n      revert\n    tag_1:\n      pop\n      jumpi(tag_2, lt(calldatasize, 0x04))\n      shr(0xe0, calldataload(0x00))\n      dup1\n      0x335d00c2\n      eq\n      tag_3\n      jumpi\n      dup1\n      0x42b148aa\n      eq\n      tag_4\n      jumpi\n      dup1\n      0x4b73383f\n      eq\n      tag_5\n      jumpi\n      dup1\n      0xc5d7802e\n      eq\n      tag_6\n      jumpi\n    tag_2:\n      0x00\n      dup1\n      revert\n        /* \"contracts/Visibility.sol\":805:1044  function examples() external view {... */\n    tag_3:\n      tag_7\n      tag_8\n      jump\t// in\n    tag_7:\n      stop\n        /* \"contracts/Visibility.sol\":744:799  function externalFunc() external pure returns (uint) {} */\n    tag_4:\n      tag_9\n      tag_10\n      jump\t// in\n    tag_9:\n      mload(0x40)\n      tag_11\n      swap2\n      swap1\n      tag_12\n      jump\t// in\n    tag_11:\n      mload(0x40)\n      dup1\n      swap2\n      sub\n      swap1\n      return\n        /* \"contracts/Visibility.sol\":687:738  function publicFunc() public pure returns (uint) {} */\n    tag_5:\n      tag_13\n      tag_14\n      jump\t// in\n    tag_13:\n      mload(0x40)\n      tag_15\n      swap2\n      swap1\n      tag_12\n      jump\t// in\n    tag_15:\n      mload(0x40)\n      dup1\n      swap2\n      sub\n      swap1\n      return\n        /* \"contracts/Visibility.sol\":544:561  uint public z = 2 */\n    tag_6:\n      tag_16\n      tag_17\n      jump\t// in\n    tag_16:\n      mload(0x40)\n      tag_18\n      swap2\n      swap1\n      tag_12\n      jump\t// in\n    tag_18:\n      mload(0x40)\n      dup1\n      swap2\n      sub\n      swap1\n      return\n        /* \"contracts/Visibility.sol\":805:1044  function examples() external view {... */\n    tag_8:\n        /* \"contracts/Visibility.sol\":857:858  z */\n      sload(0x02)\n        /* \"contracts/Visibility.sol\":853:854  y */\n      sload(0x01)\n        /* \"contracts/Visibility.sol\":849:850  x */\n      sload(0x00)\n        /* \"contracts/Visibility.sol\":849:854  x + y */\n      tag_20\n      swap2\n      swap1\n      tag_21\n      jump\t// in\n    tag_20:\n        /* \"contracts/Visibility.sol\":849:858  x + y + z */\n      tag_22\n      swap2\n      swap1\n      tag_21\n      jump\t// in\n    tag_22:\n      pop\n        /* \"contracts/Visibility.sol\":868:881  privateFunc() */\n      tag_23\n        /* \"contracts/Visibility.sol\":868:879  privateFunc */\n      tag_24\n        /* \"contracts/Visibility.sol\":868:881  privateFunc() */\n      jump\t// in\n    tag_23:\n      pop\n        /* \"contracts/Visibility.sol\":891:905  internalFunc() */\n      tag_25\n        /* \"contracts/Visibility.sol\":891:903  internalFunc */\n      tag_26\n        /* \"contracts/Visibility.sol\":891:905  internalFunc() */\n      jump\t// in\n    tag_25:\n      pop\n        /* \"contracts/Visibility.sol\":915:927  publicFunc() */\n      tag_27\n        /* \"contracts/Visibility.sol\":915:925  publicFunc */\n      tag_14\n        /* \"contracts/Visibility.sol\":915:927  publicFunc() */\n      jump\t// in\n    tag_27:\n      pop\n        /* \"contracts/Visibility.sol\":805:1044  function examples() external view {... */\n      jump\t// out\n        /* \"contracts/Visibility.sol\":744:799  function externalFunc() external pure returns (uint) {} */\n    tag_10:\n        /* \"contracts/Visibility.sol\":791:795  uint */\n      0x00\n        /* \"contracts/Visibility.sol\":744:799  function externalFunc() external pure returns (uint) {} */\n      swap1\n      jump\t// out\n        /* \"contracts/Visibility.sol\":687:738  function publicFunc() public pure returns (uint) {} */\n    tag_14:\n        /* \"contracts/Visibility.sol\":730:734  uint */\n      0x00\n        /* \"contracts/Visibility.sol\":687:738  function publicFunc() public pure returns (uint) {} */\n      swap1\n      jump\t// out\n        /* \"contracts/Visibility.sol\":544:561  uint public z = 2 */\n    tag_17:\n      sload(0x02)\n      dup2\n      jump\t// out\n        /* \"contracts/Visibility.sol\":568:621  function privateFunc() private pure returns (uint) {} */\n    tag_24:\n        /* \"contracts/Visibility.sol\":613:617  uint */\n      0x00\n        /* \"contracts/Visibility.sol\":568:621  function privateFunc() private pure returns (uint) {} */\n      swap1\n      jump\t// out\n        /* \"contracts/Visibility.sol\":627:681  function internalFunc() private pure returns (uint) {} */\n    tag_26:\n        /* \"contracts/Visibility.sol\":673:677  uint */\n      0x00\n        /* \"contracts/Visibility.sol\":627:681  function internalFunc() private pure returns (uint) {} */\n      swap1\n      jump\t// out\n        /* \"#utility.yul\":7:125   */\n    tag_33:\n        /* \"#utility.yul\":94:118   */\n      tag_35\n        /* \"#utility.yul\":112:117   */\n      dup2\n        /* \"#utility.yul\":94:118   */\n      tag_36\n      jump\t// in\n    tag_35:\n        /* \"#utility.yul\":89:92   */\n      dup3\n        /* \"#utility.yul\":82:119   */\n      mstore\n        /* \"#utility.yul\":7:125   */\n      pop\n      pop\n      jump\t// out\n        /* \"#utility.yul\":131:353   */\n    tag_12:\n        /* \"#utility.yul\":224:228   */\n      0x00\n        /* \"#utility.yul\":262:264   */\n      0x20\n        /* \"#utility.yul\":251:260   */\n      dup3\n        /* \"#utility.yul\":247:265   */\n      add\n        /* \"#utility.yul\":239:265   */\n      swap1\n      pop\n        /* \"#utility.yul\":275:346   */\n      tag_38\n        /* \"#utility.yul\":343:344   */\n      0x00\n        /* \"#utility.yul\":332:341   */\n      dup4\n        /* \"#utility.yul\":328:345   */\n      add\n        /* \"#utility.yul\":319:325   */\n      dup5\n        /* \"#utility.yul\":275:346   */\n      tag_33\n      jump\t// in\n    tag_38:\n        /* \"#utility.yul\":131:353   */\n      swap3\n      swap2\n      pop\n      pop\n      jump\t// out\n        /* \"#utility.yul\":359:664   */\n    tag_21:\n        /* \"#utility.yul\":399:402   */\n      0x00\n        /* \"#utility.yul\":418:438   */\n      tag_40\n        /* \"#utility.yul\":436:437   */\n      dup3\n        /* \"#utility.yul\":418:438   */\n      tag_36\n      jump\t// in\n    tag_40:\n        /* \"#utility.yul\":413:438   */\n      swap2\n      pop\n        /* \"#utility.yul\":452:472   */\n      tag_41\n        /* \"#utility.yul\":470:471   */\n      dup4\n        /* \"#utility.yul\":452:472   */\n      tag_36\n      jump\t// in\n    tag_41:\n        /* \"#utility.yul\":447:472   */\n      swap3\n      pop\n        /* \"#utility.yul\":606:607   */\n      dup3\n        /* \"#utility.yul\":538:604   */\n      0xffffffffffffffffffffffffffffffffffffffffffffffffffffffffffffffff\n        /* \"#utility.yul\":534:608   */\n      sub\n        /* \"#utility.yul\":531:532   */\n      dup3\n        /* \"#utility.yul\":528:609   */\n      gt\n        /* \"#utility.yul\":525:632   */\n      iszero\n      tag_42\n      jumpi\n        /* \"#utility.yul\":612:630   */\n      tag_43\n      tag_44\n      jump\t// in\n    tag_43:\n        /* \"#utility.yul\":525:632   */\n    tag_42:\n        /* \"#utility.yul\":656:657   */\n      dup3\n        /* \"#utility.yul\":653:654   */\n      dup3\n        /* \"#utility.yul\":649:658   */\n      add\n        /* \"#utility.yul\":642:658   */\n      swap1\n      pop\n        /* \"#utility.yul\":359:664   */\n      swap3\n      swap2\n      pop\n      pop\n      jump\t// out\n        /* \"#utility.yul\":670:747   */\n    tag_36:\n        /* \"#utility.yul\":707:714   */\n      0x00\n        /* \"#utility.yul\":736:741   */\n      dup2\n        /* \"#utility.yul\":725:741   */\n      swap1\n      pop\n        /* \"#utility.yul\":670:747   */\n      swap2\n      swap1\n      pop\n      jump\t// out\n        /* \"#utility.yul\":753:933   */\n    tag_44:\n        /* \"#utility.yul\":801:878   */\n      0x4e487b7100000000000000000000000000000000000000000000000000000000\n        /* \"#utility.yul\":798:799   */\n      0x00\n        /* \"#utility.yul\":791:879   */\n      mstore\n        /* \"#utility.yul\":898:902   */\n      0x11\n        /* \"#utility.yul\":895:896   */\n      0x04\n        /* \"#utility.yul\":888:903   */\n      mstore\n        /* \"#utility.yul\":922:926   */\n      0x24\n        /* \"#utility.yul\":919:920   */\n      0x00\n        /* \"#utility.yul\":912:927   */\n      revert\n\n    auxdata: 0xa2646970667358221220b3deaa2d47f66e704a8e427ad0e2846dc03e15fc3dfabd66176c38aadfb23c0264736f6c63430008070033\n}\n",
				"bytecode": {
					"linkReferences": {},
					"object": "608060405260008055600180556002805534801561001c57600080fd5b506101f98061002c6000396000f3fe608060405234801561001057600080fd5b506004361061004c5760003560e01c8063335d00c21461005157806342b148aa1461005b5780634b73383f14610079578063c5d7802e14610097575b600080fd5b6100596100b5565b005b6100636100f0565b6040516100709190610119565b60405180910390f35b6100816100f5565b60405161008e9190610119565b60405180910390f35b61009f6100fa565b6040516100ac9190610119565b60405180910390f35b6002546001546000546100c89190610134565b6100d29190610134565b506100db610100565b506100e4610105565b506100ed6100f5565b50565b600090565b600090565b60025481565b600090565b600090565b6101138161018a565b82525050565b600060208201905061012e600083018461010a565b92915050565b600061013f8261018a565b915061014a8361018a565b9250827fffffffffffffffffffffffffffffffffffffffffffffffffffffffffffffffff0382111561017f5761017e610194565b5b828201905092915050565b6000819050919050565b7f4e487b7100000000000000000000000000000000000000000000000000000000600052601160045260246000fdfea2646970667358221220b3deaa2d47f66e704a8e427ad0e2846dc03e15fc3dfabd66176c38aadfb23c0264736f6c63430008070033",
					"opcodes": "PUSH1 0x80 PUSH1 0x40 MSTORE PUSH1 0x0 DUP1 SSTORE PUSH1 0x1 DUP1 SSTORE PUSH1 0x2 DUP1 SSTORE CALLVALUE DUP1 ISZERO PUSH2 0x1C JUMPI PUSH1 0x0 DUP1 REVERT JUMPDEST POP PUSH2 0x1F9 DUP1 PUSH2 0x2C PUSH1 0x0 CODECOPY PUSH1 0x0 RETURN INVALID PUSH1 0x80 PUSH1 0x40 MSTORE CALLVALUE DUP1 ISZERO PUSH2 0x10 JUMPI PUSH1 0x0 DUP1 REVERT JUMPDEST POP PUSH1 0x4 CALLDATASIZE LT PUSH2 0x4C JUMPI PUSH1 0x0 CALLDATALOAD PUSH1 0xE0 SHR DUP1 PUSH4 0x335D00C2 EQ PUSH2 0x51 JUMPI DUP1 PUSH4 0x42B148AA EQ PUSH2 0x5B JUMPI DUP1 PUSH4 0x4B73383F EQ PUSH2 0x79 JUMPI DUP1 PUSH4 0xC5D7802E EQ PUSH2 0x97 JUMPI JUMPDEST PUSH1 0x0 DUP1 REVERT JUMPDEST PUSH2 0x59 PUSH2 0xB5 JUMP JUMPDEST STOP JUMPDEST PUSH2 0x63 PUSH2 0xF0 JUMP JUMPDEST PUSH1 0x40 MLOAD PUSH2 0x70 SWAP2 SWAP1 PUSH2 0x119 JUMP JUMPDEST PUSH1 0x40 MLOAD DUP1 SWAP2 SUB SWAP1 RETURN JUMPDEST PUSH2 0x81 PUSH2 0xF5 JUMP JUMPDEST PUSH1 0x40 MLOAD PUSH2 0x8E SWAP2 SWAP1 PUSH2 0x119 JUMP JUMPDEST PUSH1 0x40 MLOAD DUP1 SWAP2 SUB SWAP1 RETURN JUMPDEST PUSH2 0x9F PUSH2 0xFA JUMP JUMPDEST PUSH1 0x40 MLOAD PUSH2 0xAC SWAP2 SWAP1 PUSH2 0x119 JUMP JUMPDEST PUSH1 0x40 MLOAD DUP1 SWAP2 SUB SWAP1 RETURN JUMPDEST PUSH1 0x2 SLOAD PUSH1 0x1 SLOAD PUSH1 0x0 SLOAD PUSH2 0xC8 SWAP2 SWAP1 PUSH2 0x134 JUMP JUMPDEST PUSH2 0xD2 SWAP2 SWAP1 PUSH2 0x134 JUMP JUMPDEST POP PUSH2 0xDB PUSH2 0x100 JUMP JUMPDEST POP PUSH2 0xE4 PUSH2 0x105 JUMP JUMPDEST POP PUSH2 0xED PUSH2 0xF5 JUMP JUMPDEST POP JUMP JUMPDEST PUSH1 0x0 SWAP1 JUMP JUMPDEST PUSH1 0x0 SWAP1 JUMP JUMPDEST PUSH1 0x2 SLOAD DUP2 JUMP JUMPDEST PUSH1 0x0 SWAP1 JUMP JUMPDEST PUSH1 0x0 SWAP1 JUMP JUMPDEST PUSH2 0x113 DUP2 PUSH2 0x18A JUMP JUMPDEST DUP3 MSTORE POP POP JUMP JUMPDEST PUSH1 0x0 PUSH1 0x20 DUP3 ADD SWAP1 POP PUSH2 0x12E PUSH1 0x0 DUP4 ADD DUP5 PUSH2 0x10A JUMP JUMPDEST SWAP3 SWAP2 POP POP JUMP JUMPDEST PUSH1 0x0 PUSH2 0x13F DUP3 PUSH2 0x18A JUMP JUMPDEST SWAP2 POP PUSH2 0x14A DUP4 PUSH2 0x18A JUMP JUMPDEST SWAP3 POP DUP3 PUSH32 0xFFFFFFFFFFFFFFFFFFFFFFFFFFFFFFFFFFFFFFFFFFFFFFFFFFFFFFFFFFFFFFFF SUB DUP3 GT ISZERO PUSH2 0x17F JUMPI PUSH2 0x17E PUSH2 0x194 JUMP JUMPDEST JUMPDEST DUP3 DUP3 ADD SWAP1 POP SWAP3 SWAP2 POP POP JUMP JUMPDEST PUSH1 0x0 DUP2 SWAP1 POP SWAP2 SWAP1 POP JUMP JUMPDEST PUSH32 0x4E487B7100000000000000000000000000000000000000000000000000000000 PUSH1 0x0 MSTORE PUSH1 0x11 PUSH1 0x4 MSTORE PUSH1 0x24 PUSH1 0x0 REVERT INVALID LOG2 PUSH5 0x6970667358 0x22 SLT KECCAK256 0xB3 0xDE 0xAA 0x2D SELFBALANCE 0xF6 PUSH15 0x704A8E427AD0E2846DC03E15FC3DFA 0xBD PUSH7 0x176C38AADFB23C MUL PUSH5 0x736F6C6343 STOP ADDMOD SMOD STOP CALLER "
				},
				"gasEstimates": {
					"creation": {
						"codeDepositCost": "101000",
						"executionCost": "49365",
						"totalCost": "150365"
					},
					"external": {
						"examples()": "infinite",
						"externalFunc()": "329",
						"publicFunc()": "351",
						"z()": "2473"
					},
					"internal": {
						"internalFunc()": "15",
						"privateFunc()": "15"
					}
				},
				"methodIdentifiers": {
					"examples()": "335d00c2",
					"externalFunc()": "42b148aa",
					"publicFunc()": "4b73383f",
					"z()": "c5d7802e"
				}
			},
			"storageLayout": {
				"storage": [
					{
						"astId": 4,
						"contract": "contracts/Visibility.sol:VisibilityBase",
						"label": "x",
						"offset": 0,
						"slot": "0",
						"type": "t_uint256"
					},
					{
						"astId": 7,
						"contract": "contracts/Visibility.sol:VisibilityBase",
						"label": "y",
						"offset": 0,
						"slot": "1",
						"type": "t_uint256"
					},
					{
						"astId": 10,
						"contract": "contracts/Visibility.sol:VisibilityBase",
						"label": "z",
						"offset": 0,
						"slot": "2",
						"type": "t_uint256"
					}
				],
				"types": {
					"t_uint256": {
						"encoding": "inplace",
						"label": "uint256",
						"numberOfBytes": "32"
					}
				}
			},
			"userdoc": {
				"kind": "user",
				"methods": {},
				"version": 1
			}
		}
	}
}